{
	"contracts/4_Twitter.sol": {
		"Twitter": {
			"abi": [
				{
					"inputs": [
						{
							"internalType": "address",
							"name": "_from",
							"type": "address"
						},
						{
							"internalType": "address",
							"name": "_to",
							"type": "address"
						},
						{
							"internalType": "string",
							"name": "_content",
							"type": "string"
						}
					],
					"name": "_sendMessage",
					"outputs": [],
					"stateMutability": "nonpayable",
					"type": "function"
				},
				{
					"inputs": [
						{
							"internalType": "address",
							"name": "_from",
							"type": "address"
						},
						{
							"internalType": "string",
							"name": "_content",
							"type": "string"
						}
					],
					"name": "_tweet",
					"outputs": [],
					"stateMutability": "nonpayable",
					"type": "function"
				},
				{
					"inputs": [
						{
							"internalType": "address",
							"name": "_opretor",
							"type": "address"
						}
					],
					"name": "allow",
					"outputs": [],
					"stateMutability": "nonpayable",
					"type": "function"
				},
				{
					"inputs": [
						{
							"internalType": "address",
							"name": "",
							"type": "address"
						},
						{
							"internalType": "uint256",
							"name": "",
							"type": "uint256"
						}
					],
					"name": "conversations",
					"outputs": [
						{
							"internalType": "uint256",
							"name": "id",
							"type": "uint256"
						},
						{
							"internalType": "string",
							"name": "content",
							"type": "string"
						},
						{
							"internalType": "address",
							"name": "from",
							"type": "address"
						},
						{
							"internalType": "address",
							"name": "to",
							"type": "address"
						},
						{
							"internalType": "uint256",
							"name": "createdAt",
							"type": "uint256"
						}
					],
					"stateMutability": "view",
					"type": "function"
				},
				{
					"inputs": [
						{
							"internalType": "address",
							"name": "_opretor",
							"type": "address"
						}
					],
					"name": "disAllow",
					"outputs": [],
					"stateMutability": "nonpayable",
					"type": "function"
				},
				{
					"inputs": [
						{
							"internalType": "address",
							"name": "_followed",
							"type": "address"
						}
					],
					"name": "follow",
					"outputs": [],
					"stateMutability": "nonpayable",
					"type": "function"
				},
				{
					"inputs": [
						{
							"internalType": "address",
							"name": "",
							"type": "address"
						},
						{
							"internalType": "uint256",
							"name": "",
							"type": "uint256"
						}
					],
					"name": "following",
					"outputs": [
						{
							"internalType": "address",
							"name": "",
							"type": "address"
						}
					],
					"stateMutability": "view",
					"type": "function"
				},
				{
					"inputs": [
						{
							"internalType": "address",
							"name": "_user",
							"type": "address"
						},
						{
							"internalType": "uint256",
							"name": "count",
							"type": "uint256"
						}
					],
					"name": "getLatestOfUser",
					"outputs": [
						{
							"components": [
								{
									"internalType": "uint256",
									"name": "id",
									"type": "uint256"
								},
								{
									"internalType": "address",
									"name": "authore",
									"type": "address"
								},
								{
									"internalType": "string",
									"name": "content",
									"type": "string"
								},
								{
									"internalType": "uint256",
									"name": "createdAt",
									"type": "uint256"
								}
							],
							"internalType": "struct Twitter.Tweet[]",
							"name": "",
							"type": "tuple[]"
						}
					],
					"stateMutability": "view",
					"type": "function"
				},
				{
					"inputs": [
						{
							"internalType": "uint256",
							"name": "count",
							"type": "uint256"
						}
					],
					"name": "getLatestTweet",
					"outputs": [
						{
							"components": [
								{
									"internalType": "uint256",
									"name": "id",
									"type": "uint256"
								},
								{
									"internalType": "address",
									"name": "authore",
									"type": "address"
								},
								{
									"internalType": "string",
									"name": "content",
									"type": "string"
								},
								{
									"internalType": "uint256",
									"name": "createdAt",
									"type": "uint256"
								}
							],
							"internalType": "struct Twitter.Tweet[]",
							"name": "",
							"type": "tuple[]"
						}
					],
					"stateMutability": "view",
					"type": "function"
				},
				{
					"inputs": [
						{
							"internalType": "address",
							"name": "",
							"type": "address"
						},
						{
							"internalType": "address",
							"name": "",
							"type": "address"
						}
					],
					"name": "operator",
					"outputs": [
						{
							"internalType": "bool",
							"name": "",
							"type": "bool"
						}
					],
					"stateMutability": "view",
					"type": "function"
				},
				{
					"inputs": [
						{
							"internalType": "address",
							"name": "_from",
							"type": "address"
						},
						{
							"internalType": "address",
							"name": "_to",
							"type": "address"
						},
						{
							"internalType": "string",
							"name": "_content",
							"type": "string"
						}
					],
					"name": "sendMessage",
					"outputs": [],
					"stateMutability": "nonpayable",
					"type": "function"
				},
				{
					"inputs": [
						{
							"internalType": "address",
							"name": "_to",
							"type": "address"
						},
						{
							"internalType": "string",
							"name": "_content",
							"type": "string"
						}
					],
					"name": "sendMessage",
					"outputs": [],
					"stateMutability": "nonpayable",
					"type": "function"
				},
				{
					"inputs": [
						{
							"internalType": "address",
							"name": "_from",
							"type": "address"
						},
						{
							"internalType": "string",
							"name": "_content",
							"type": "string"
						}
					],
					"name": "tweet",
					"outputs": [],
					"stateMutability": "nonpayable",
					"type": "function"
				},
				{
					"inputs": [
						{
							"internalType": "string",
							"name": "_content",
							"type": "string"
						}
					],
					"name": "tweet",
					"outputs": [],
					"stateMutability": "nonpayable",
					"type": "function"
				},
				{
					"inputs": [
						{
							"internalType": "uint256",
							"name": "",
							"type": "uint256"
						}
					],
					"name": "tweets",
					"outputs": [
						{
							"internalType": "uint256",
							"name": "id",
							"type": "uint256"
						},
						{
							"internalType": "address",
							"name": "authore",
							"type": "address"
						},
						{
							"internalType": "string",
							"name": "content",
							"type": "string"
						},
						{
							"internalType": "uint256",
							"name": "createdAt",
							"type": "uint256"
						}
					],
					"stateMutability": "view",
					"type": "function"
				},
				{
					"inputs": [
						{
							"internalType": "address",
							"name": "",
							"type": "address"
						},
						{
							"internalType": "uint256",
							"name": "",
							"type": "uint256"
						}
					],
					"name": "tweetsOf",
					"outputs": [
						{
							"internalType": "uint256",
							"name": "",
							"type": "uint256"
						}
					],
					"stateMutability": "view",
					"type": "function"
				}
			],
			"devdoc": {
				"kind": "dev",
				"methods": {},
				"version": 1
			},
			"evm": {
				"assembly": "    /* \"contracts/4_Twitter.sol\":70:2974  contract Twitter{... */\n  mstore(0x40, 0x80)\n  callvalue\n  dup1\n  iszero\n  tag_1\n  jumpi\n  0x00\n  dup1\n  revert\ntag_1:\n  pop\n  dataSize(sub_0)\n  dup1\n  dataOffset(sub_0)\n  0x00\n  codecopy\n  0x00\n  return\nstop\n\nsub_0: assembly {\n        /* \"contracts/4_Twitter.sol\":70:2974  contract Twitter{... */\n      mstore(0x40, 0x80)\n      callvalue\n      dup1\n      iszero\n      tag_1\n      jumpi\n      0x00\n      dup1\n      revert\n    tag_1:\n      pop\n      jumpi(tag_2, lt(calldatasize, 0x04))\n      shr(0xe0, calldataload(0x00))\n      dup1\n      0xcf8aacdd\n      gt\n      tag_19\n      jumpi\n      dup1\n      0xde6f24bb\n      gt\n      tag_20\n      jumpi\n      dup1\n      0xde6f24bb\n      eq\n      tag_15\n      jumpi\n      dup1\n      0xe8d857b0\n      eq\n      tag_16\n      jumpi\n      dup1\n      0xfb46d4c5\n      eq\n      tag_17\n      jumpi\n      dup1\n      0xff9913e8\n      eq\n      tag_18\n      jumpi\n      jump(tag_2)\n    tag_20:\n      dup1\n      0xcf8aacdd\n      eq\n      tag_11\n      jumpi\n      dup1\n      0xcfe3d77a\n      eq\n      tag_12\n      jumpi\n      dup1\n      0xd21d1596\n      eq\n      tag_13\n      jumpi\n      dup1\n      0xdc7d0635\n      eq\n      tag_14\n      jumpi\n      jump(tag_2)\n    tag_19:\n      dup1\n      0x78bae934\n      gt\n      tag_21\n      jumpi\n      dup1\n      0x78bae934\n      eq\n      tag_7\n      jumpi\n      dup1\n      0x9139cda5\n      eq\n      tag_8\n      jumpi\n      dup1\n      0xaf22bf94\n      eq\n      tag_9\n      jumpi\n      dup1\n      0xb88e318d\n      eq\n      tag_10\n      jumpi\n      jump(tag_2)\n    tag_21:\n      dup1\n      0x3befea09\n      eq\n      tag_3\n      jumpi\n      dup1\n      0x41599f87\n      eq\n      tag_4\n      jumpi\n      dup1\n      0x4dbf27cc\n      eq\n      tag_5\n      jumpi\n      dup1\n      0x5025c428\n      eq\n      tag_6\n      jumpi\n    tag_2:\n      0x00\n      dup1\n      revert\n        /* \"contracts/4_Twitter.sol\":435:488  mapping (address => message []) public  conversations */\n    tag_3:\n      tag_22\n      0x04\n      dup1\n      calldatasize\n      sub\n      dup2\n      add\n      swap1\n      tag_23\n      swap2\n      swap1\n      tag_24\n      jump\t// in\n    tag_23:\n      tag_25\n      jump\t// in\n    tag_22:\n      mload(0x40)\n      tag_26\n      swap6\n      swap5\n      swap4\n      swap3\n      swap2\n      swap1\n      tag_27\n      jump\t// in\n    tag_26:\n      mload(0x40)\n      dup1\n      swap2\n      sub\n      swap1\n      return\n        /* \"contracts/4_Twitter.sol\":2383:2972  function getLatestOfUser(address _user,uint count) public view returns(Tweet [] memory) {... */\n    tag_4:\n      tag_28\n      0x04\n      dup1\n      calldatasize\n      sub\n      dup2\n      add\n      swap1\n      tag_29\n      swap2\n      swap1\n      tag_24\n      jump\t// in\n    tag_29:\n      tag_30\n      jump\t// in\n    tag_28:\n      mload(0x40)\n      tag_31\n      swap2\n      swap1\n      tag_32\n      jump\t// in\n    tag_31:\n      mload(0x40)\n      dup1\n      swap2\n      sub\n      swap1\n      return\n        /* \"contracts/4_Twitter.sol\":1614:1711  function follow(address _followed) public  {... */\n    tag_5:\n      tag_33\n      0x04\n      dup1\n      calldatasize\n      sub\n      dup2\n      add\n      swap1\n      tag_34\n      swap2\n      swap1\n      tag_35\n      jump\t// in\n    tag_34:\n      tag_36\n      jump\t// in\n    tag_33:\n      stop\n        /* \"contracts/4_Twitter.sol\":1915:2377  function getLatestTweet(uint count) public view returns (Tweet[] memory) {... */\n    tag_6:\n      tag_37\n      0x04\n      dup1\n      calldatasize\n      sub\n      dup2\n      add\n      swap1\n      tag_38\n      swap2\n      swap1\n      tag_39\n      jump\t// in\n    tag_38:\n      tag_40\n      jump\t// in\n    tag_37:\n      mload(0x40)\n      tag_41\n      swap2\n      swap1\n      tag_32\n      jump\t// in\n    tag_41:\n      mload(0x40)\n      dup1\n      swap2\n      sub\n      swap1\n      return\n        /* \"contracts/4_Twitter.sol\":655:941  function _tweet(address _from,string memory _content) public {... */\n    tag_7:\n      tag_42\n      0x04\n      dup1\n      calldatasize\n      sub\n      dup2\n      add\n      swap1\n      tag_43\n      swap2\n      swap1\n      tag_44\n      jump\t// in\n    tag_43:\n      tag_45\n      jump\t// in\n    tag_42:\n      stop\n        /* \"contracts/4_Twitter.sol\":562:610  mapping (address => address []) public following */\n    tag_8:\n      tag_46\n      0x04\n      dup1\n      calldatasize\n      sub\n      dup2\n      add\n      swap1\n      tag_47\n      swap2\n      swap1\n      tag_24\n      jump\t// in\n    tag_47:\n      tag_48\n      jump\t// in\n    tag_46:\n      mload(0x40)\n      tag_49\n      swap2\n      swap1\n      tag_50\n      jump\t// in\n    tag_49:\n      mload(0x40)\n      dup1\n      swap2\n      sub\n      swap1\n      return\n        /* \"contracts/4_Twitter.sol\":385:429  mapping (address => uint []) public tweetsOf */\n    tag_9:\n      tag_51\n      0x04\n      dup1\n      calldatasize\n      sub\n      dup2\n      add\n      swap1\n      tag_52\n      swap2\n      swap1\n      tag_24\n      jump\t// in\n    tag_52:\n      tag_53\n      jump\t// in\n    tag_51:\n      mload(0x40)\n      tag_54\n      swap2\n      swap1\n      tag_55\n      jump\t// in\n    tag_54:\n      mload(0x40)\n      dup1\n      swap2\n      sub\n      swap1\n      return\n        /* \"contracts/4_Twitter.sol\":1479:1608  function sendMessage(address _from,address _to,string memory _content) public {... */\n    tag_10:\n      tag_56\n      0x04\n      dup1\n      calldatasize\n      sub\n      dup2\n      add\n      swap1\n      tag_57\n      swap2\n      swap1\n      tag_58\n      jump\t// in\n    tag_57:\n      tag_59\n      jump\t// in\n    tag_56:\n      stop\n        /* \"contracts/4_Twitter.sol\":1814:1909  function disAllow(address _opretor)public {... */\n    tag_11:\n      tag_60\n      0x04\n      dup1\n      calldatasize\n      sub\n      dup2\n      add\n      swap1\n      tag_61\n      swap2\n      swap1\n      tag_35\n      jump\t// in\n    tag_61:\n      tag_62\n      jump\t// in\n    tag_60:\n      stop\n        /* \"contracts/4_Twitter.sol\":947:1144  function _sendMessage(address _from,address _to,string memory _content) public {... */\n    tag_12:\n      tag_63\n      0x04\n      dup1\n      calldatasize\n      sub\n      dup2\n      add\n      swap1\n      tag_64\n      swap2\n      swap1\n      tag_58\n      jump\t// in\n    tag_64:\n      tag_65\n      jump\t// in\n    tag_63:\n      stop\n        /* \"contracts/4_Twitter.sol\":1247:1347  function tweet(address _from,string memory _content) public {... */\n    tag_13:\n      tag_66\n      0x04\n      dup1\n      calldatasize\n      sub\n      dup2\n      add\n      swap1\n      tag_67\n      swap2\n      swap1\n      tag_44\n      jump\t// in\n    tag_67:\n      tag_68\n      jump\t// in\n    tag_66:\n      stop\n        /* \"contracts/4_Twitter.sol\":494:556  mapping (address => mapping (address => bool)) public operator */\n    tag_14:\n      tag_69\n      0x04\n      dup1\n      calldatasize\n      sub\n      dup2\n      add\n      swap1\n      tag_70\n      swap2\n      swap1\n      tag_71\n      jump\t// in\n    tag_70:\n      tag_72\n      jump\t// in\n    tag_69:\n      mload(0x40)\n      tag_73\n      swap2\n      swap1\n      tag_74\n      jump\t// in\n    tag_73:\n      mload(0x40)\n      dup1\n      swap2\n      sub\n      swap1\n      return\n        /* \"contracts/4_Twitter.sol\":1353:1473  function sendMessage(address _to,string memory _content) public {... */\n    tag_15:\n      tag_75\n      0x04\n      dup1\n      calldatasize\n      sub\n      dup2\n      add\n      swap1\n      tag_76\n      swap2\n      swap1\n      tag_44\n      jump\t// in\n    tag_76:\n      tag_77\n      jump\t// in\n    tag_75:\n      stop\n        /* \"contracts/4_Twitter.sol\":342:379  mapping (uint => Tweet) public tweets */\n    tag_16:\n      tag_78\n      0x04\n      dup1\n      calldatasize\n      sub\n      dup2\n      add\n      swap1\n      tag_79\n      swap2\n      swap1\n      tag_39\n      jump\t// in\n    tag_79:\n      tag_80\n      jump\t// in\n    tag_78:\n      mload(0x40)\n      tag_81\n      swap5\n      swap4\n      swap3\n      swap2\n      swap1\n      tag_82\n      jump\t// in\n    tag_81:\n      mload(0x40)\n      dup1\n      swap2\n      sub\n      swap1\n      return\n        /* \"contracts/4_Twitter.sol\":1150:1241  function tweet(string memory _content) public {... */\n    tag_17:\n      tag_83\n      0x04\n      dup1\n      calldatasize\n      sub\n      dup2\n      add\n      swap1\n      tag_84\n      swap2\n      swap1\n      tag_85\n      jump\t// in\n    tag_84:\n      tag_86\n      jump\t// in\n    tag_83:\n      stop\n        /* \"contracts/4_Twitter.sol\":1717:1808  function allow(address _opretor)public {... */\n    tag_18:\n      tag_87\n      0x04\n      dup1\n      calldatasize\n      sub\n      dup2\n      add\n      swap1\n      tag_88\n      swap2\n      swap1\n      tag_35\n      jump\t// in\n    tag_88:\n      tag_89\n      jump\t// in\n    tag_87:\n      stop\n        /* \"contracts/4_Twitter.sol\":435:488  mapping (address => message []) public  conversations */\n    tag_25:\n      mstore(0x20, 0x02)\n      dup2\n      0x00\n      mstore\n      keccak256(0x00, 0x40)\n      dup2\n      dup2\n      sload\n      dup2\n      lt\n      tag_90\n      jumpi\n      0x00\n      dup1\n      revert\n    tag_90:\n      swap1\n      0x00\n      mstore\n      keccak256(0x00, 0x20)\n      swap1\n      0x05\n      mul\n      add\n      0x00\n      swap2\n      pop\n      swap2\n      pop\n      pop\n      dup1\n      0x00\n      add\n      sload\n      swap1\n      dup1\n      0x01\n      add\n      dup1\n      sload\n      tag_92\n      swap1\n      tag_93\n      jump\t// in\n    tag_92:\n      dup1\n      0x1f\n      add\n      0x20\n      dup1\n      swap2\n      div\n      mul\n      0x20\n      add\n      mload(0x40)\n      swap1\n      dup2\n      add\n      0x40\n      mstore\n      dup1\n      swap3\n      swap2\n      swap1\n      dup2\n      dup2\n      mstore\n      0x20\n      add\n      dup3\n      dup1\n      sload\n      tag_94\n      swap1\n      tag_93\n      jump\t// in\n    tag_94:\n      dup1\n      iszero\n      tag_95\n      jumpi\n      dup1\n      0x1f\n      lt\n      tag_96\n      jumpi\n      0x0100\n      dup1\n      dup4\n      sload\n      div\n      mul\n      dup4\n      mstore\n      swap2\n      0x20\n      add\n      swap2\n      jump(tag_95)\n    tag_96:\n      dup3\n      add\n      swap2\n      swap1\n      0x00\n      mstore\n      keccak256(0x00, 0x20)\n      swap1\n    tag_97:\n      dup2\n      sload\n      dup2\n      mstore\n      swap1\n      0x01\n      add\n      swap1\n      0x20\n      add\n      dup1\n      dup4\n      gt\n      tag_97\n      jumpi\n      dup3\n      swap1\n      sub\n      0x1f\n      and\n      dup3\n      add\n      swap2\n    tag_95:\n      pop\n      pop\n      pop\n      pop\n      pop\n      swap1\n      dup1\n      0x02\n      add\n      0x00\n      swap1\n      sload\n      swap1\n      0x0100\n      exp\n      swap1\n      div\n      0xffffffffffffffffffffffffffffffffffffffff\n      and\n      swap1\n      dup1\n      0x03\n      add\n      0x00\n      swap1\n      sload\n      swap1\n      0x0100\n      exp\n      swap1\n      div\n      0xffffffffffffffffffffffffffffffffffffffff\n      and\n      swap1\n      dup1\n      0x04\n      add\n      sload\n      swap1\n      pop\n      dup6\n      jump\t// out\n        /* \"contracts/4_Twitter.sol\":2383:2972  function getLatestOfUser(address _user,uint count) public view returns(Tweet [] memory) {... */\n    tag_30:\n        /* \"contracts/4_Twitter.sol\":2454:2469  Tweet [] memory */\n      0x60\n        /* \"contracts/4_Twitter.sol\":2495:2496  0 */\n      0x00\n        /* \"contracts/4_Twitter.sol\":2489:2494  count */\n      dup3\n        /* \"contracts/4_Twitter.sol\":2489:2496  count>0 */\n      gt\n        /* \"contracts/4_Twitter.sol\":2489:2513  count>0 && count <nextId */\n      dup1\n      iszero\n      tag_99\n      jumpi\n      pop\n        /* \"contracts/4_Twitter.sol\":2507:2513  nextId */\n      sload(0x05)\n        /* \"contracts/4_Twitter.sol\":2500:2505  count */\n      dup3\n        /* \"contracts/4_Twitter.sol\":2500:2513  count <nextId */\n      lt\n        /* \"contracts/4_Twitter.sol\":2489:2513  count>0 && count <nextId */\n    tag_99:\n        /* \"contracts/4_Twitter.sol\":2481:2555  require(count>0 && count <nextId, \"user with this address dont have post\") */\n      tag_100\n      jumpi\n      mload(0x40)\n      0x08c379a000000000000000000000000000000000000000000000000000000000\n      dup2\n      mstore\n      0x04\n      add\n      tag_101\n      swap1\n      tag_102\n      jump\t// in\n    tag_101:\n      mload(0x40)\n      dup1\n      swap2\n      sub\n      swap1\n      revert\n    tag_100:\n        /* \"contracts/4_Twitter.sol\":2565:2587  Tweet[] memory _tweets */\n      0x00\n        /* \"contracts/4_Twitter.sol\":2602:2607  count */\n      dup3\n        /* \"contracts/4_Twitter.sol\":2590:2608  new Tweet[](count) */\n      0xffffffffffffffff\n      dup2\n      gt\n      iszero\n      tag_103\n      jumpi\n      tag_104\n      tag_105\n      jump\t// in\n    tag_104:\n    tag_103:\n      mload(0x40)\n      swap1\n      dup1\n      dup3\n      mstore\n      dup1\n      0x20\n      mul\n      0x20\n      add\n      dup3\n      add\n      0x40\n      mstore\n      dup1\n      iszero\n      tag_106\n      jumpi\n      dup2\n      0x20\n      add\n    tag_107:\n      tag_108\n      tag_109\n      jump\t// in\n    tag_108:\n      dup2\n      mstore\n      0x20\n      add\n      swap1\n      0x01\n      swap1\n      sub\n      swap1\n      dup2\n      tag_107\n      jumpi\n      swap1\n      pop\n    tag_106:\n      pop\n        /* \"contracts/4_Twitter.sol\":2565:2608  Tweet[] memory _tweets = new Tweet[](count) */\n      swap1\n      pop\n        /* \"contracts/4_Twitter.sol\":2618:2626  uint len */\n      0x00\n        /* \"contracts/4_Twitter.sol\":2629:2637  tweetsOf */\n      0x01\n        /* \"contracts/4_Twitter.sol\":2629:2644  tweetsOf[_user] */\n      0x00\n        /* \"contracts/4_Twitter.sol\":2638:2643  _user */\n      dup7\n        /* \"contracts/4_Twitter.sol\":2629:2644  tweetsOf[_user] */\n      0xffffffffffffffffffffffffffffffffffffffff\n      and\n      0xffffffffffffffffffffffffffffffffffffffff\n      and\n      dup2\n      mstore\n      0x20\n      add\n      swap1\n      dup2\n      mstore\n      0x20\n      add\n      0x00\n      keccak256\n        /* \"contracts/4_Twitter.sol\":2629:2651  tweetsOf[_user].length */\n      dup1\n      sload\n      swap1\n      pop\n        /* \"contracts/4_Twitter.sol\":2618:2651  uint len = tweetsOf[_user].length */\n      swap1\n      pop\n        /* \"contracts/4_Twitter.sol\":2661:2685  uint[] storage idsOfUser */\n      0x00\n        /* \"contracts/4_Twitter.sol\":2688:2696  tweetsOf */\n      0x01\n        /* \"contracts/4_Twitter.sol\":2688:2703  tweetsOf[_user] */\n      0x00\n        /* \"contracts/4_Twitter.sol\":2697:2702  _user */\n      dup8\n        /* \"contracts/4_Twitter.sol\":2688:2703  tweetsOf[_user] */\n      0xffffffffffffffffffffffffffffffffffffffff\n      and\n      0xffffffffffffffffffffffffffffffffffffffff\n      and\n      dup2\n      mstore\n      0x20\n      add\n      swap1\n      dup2\n      mstore\n      0x20\n      add\n      0x00\n      keccak256\n        /* \"contracts/4_Twitter.sol\":2661:2703  uint[] storage idsOfUser = tweetsOf[_user] */\n      swap1\n      pop\n        /* \"contracts/4_Twitter.sol\":2714:2720  uint j */\n      0x00\n        /* \"contracts/4_Twitter.sol\":2734:2740  uint i */\n      dup1\n        /* \"contracts/4_Twitter.sol\":2745:2750  count */\n      dup7\n        /* \"contracts/4_Twitter.sol\":2741:2744  len */\n      dup5\n        /* \"contracts/4_Twitter.sol\":2741:2750  len-count */\n      tag_113\n      swap2\n      swap1\n      tag_114\n      jump\t// in\n    tag_113:\n        /* \"contracts/4_Twitter.sol\":2734:2750  uint i=len-count */\n      swap1\n      pop\n        /* \"contracts/4_Twitter.sol\":2730:2941  for(uint i=len-count;i<len;i++){... */\n    tag_110:\n        /* \"contracts/4_Twitter.sol\":2753:2756  len */\n      dup4\n        /* \"contracts/4_Twitter.sol\":2751:2752  i */\n      dup2\n        /* \"contracts/4_Twitter.sol\":2751:2756  i<len */\n      lt\n        /* \"contracts/4_Twitter.sol\":2730:2941  for(uint i=len-count;i<len;i++){... */\n      iszero\n      tag_111\n      jumpi\n        /* \"contracts/4_Twitter.sol\":2775:2799  Tweet storage _structure */\n      0x00\n        /* \"contracts/4_Twitter.sol\":2802:2808  tweets */\n      dup1\n        /* \"contracts/4_Twitter.sol\":2802:2822  tweets[idsOfUser[i]] */\n      0x00\n        /* \"contracts/4_Twitter.sol\":2809:2818  idsOfUser */\n      dup6\n        /* \"contracts/4_Twitter.sol\":2819:2820  i */\n      dup5\n        /* \"contracts/4_Twitter.sol\":2809:2821  idsOfUser[i] */\n      dup2\n      sload\n      dup2\n      lt\n      tag_115\n      jumpi\n      tag_116\n      tag_117\n      jump\t// in\n    tag_116:\n    tag_115:\n      swap1\n      0x00\n      mstore\n      keccak256(0x00, 0x20)\n      add\n      sload\n        /* \"contracts/4_Twitter.sol\":2802:2822  tweets[idsOfUser[i]] */\n      dup2\n      mstore\n      0x20\n      add\n      swap1\n      dup2\n      mstore\n      0x20\n      add\n      0x00\n      keccak256\n        /* \"contracts/4_Twitter.sol\":2775:2822  Tweet storage _structure = tweets[idsOfUser[i]] */\n      swap1\n      pop\n        /* \"contracts/4_Twitter.sol\":2851:2930  Tweet(_structure.id,_structure.authore,_structure.content,_structure.createdAt) */\n      mload(0x40)\n      dup1\n      0x80\n      add\n      0x40\n      mstore\n      dup1\n        /* \"contracts/4_Twitter.sol\":2857:2867  _structure */\n      dup3\n        /* \"contracts/4_Twitter.sol\":2857:2870  _structure.id */\n      0x00\n      add\n      sload\n        /* \"contracts/4_Twitter.sol\":2851:2930  Tweet(_structure.id,_structure.authore,_structure.content,_structure.createdAt) */\n      dup2\n      mstore\n      0x20\n      add\n        /* \"contracts/4_Twitter.sol\":2871:2881  _structure */\n      dup3\n        /* \"contracts/4_Twitter.sol\":2871:2889  _structure.authore */\n      0x01\n      add\n      0x00\n      swap1\n      sload\n      swap1\n      0x0100\n      exp\n      swap1\n      div\n      0xffffffffffffffffffffffffffffffffffffffff\n      and\n        /* \"contracts/4_Twitter.sol\":2851:2930  Tweet(_structure.id,_structure.authore,_structure.content,_structure.createdAt) */\n      0xffffffffffffffffffffffffffffffffffffffff\n      and\n      dup2\n      mstore\n      0x20\n      add\n        /* \"contracts/4_Twitter.sol\":2890:2900  _structure */\n      dup3\n        /* \"contracts/4_Twitter.sol\":2890:2908  _structure.content */\n      0x02\n      add\n        /* \"contracts/4_Twitter.sol\":2851:2930  Tweet(_structure.id,_structure.authore,_structure.content,_structure.createdAt) */\n      dup1\n      sload\n      tag_119\n      swap1\n      tag_93\n      jump\t// in\n    tag_119:\n      dup1\n      0x1f\n      add\n      0x20\n      dup1\n      swap2\n      div\n      mul\n      0x20\n      add\n      mload(0x40)\n      swap1\n      dup2\n      add\n      0x40\n      mstore\n      dup1\n      swap3\n      swap2\n      swap1\n      dup2\n      dup2\n      mstore\n      0x20\n      add\n      dup3\n      dup1\n      sload\n      tag_120\n      swap1\n      tag_93\n      jump\t// in\n    tag_120:\n      dup1\n      iszero\n      tag_121\n      jumpi\n      dup1\n      0x1f\n      lt\n      tag_122\n      jumpi\n      0x0100\n      dup1\n      dup4\n      sload\n      div\n      mul\n      dup4\n      mstore\n      swap2\n      0x20\n      add\n      swap2\n      jump(tag_121)\n    tag_122:\n      dup3\n      add\n      swap2\n      swap1\n      0x00\n      mstore\n      keccak256(0x00, 0x20)\n      swap1\n    tag_123:\n      dup2\n      sload\n      dup2\n      mstore\n      swap1\n      0x01\n      add\n      swap1\n      0x20\n      add\n      dup1\n      dup4\n      gt\n      tag_123\n      jumpi\n      dup3\n      swap1\n      sub\n      0x1f\n      and\n      dup3\n      add\n      swap2\n    tag_121:\n      pop\n      pop\n      pop\n      pop\n      pop\n      dup2\n      mstore\n      0x20\n      add\n        /* \"contracts/4_Twitter.sol\":2909:2919  _structure */\n      dup3\n        /* \"contracts/4_Twitter.sol\":2909:2929  _structure.createdAt */\n      0x03\n      add\n      sload\n        /* \"contracts/4_Twitter.sol\":2851:2930  Tweet(_structure.id,_structure.authore,_structure.content,_structure.createdAt) */\n      dup2\n      mstore\n      pop\n        /* \"contracts/4_Twitter.sol\":2836:2843  _tweets */\n      dup7\n        /* \"contracts/4_Twitter.sol\":2844:2847  j++ */\n      dup5\n      dup1\n      tag_124\n      swap1\n      tag_125\n      jump\t// in\n    tag_124:\n      swap6\n      pop\n        /* \"contracts/4_Twitter.sol\":2836:2848  _tweets[j++] */\n      dup2\n      mload\n      dup2\n      lt\n      tag_126\n      jumpi\n      tag_127\n      tag_117\n      jump\t// in\n    tag_127:\n    tag_126:\n      0x20\n      mul\n      0x20\n      add\n      add\n        /* \"contracts/4_Twitter.sol\":2836:2930  _tweets[j++] = Tweet(_structure.id,_structure.authore,_structure.content,_structure.createdAt) */\n      dup2\n      swap1\n      mstore\n      pop\n        /* \"contracts/4_Twitter.sol\":2761:2941  {... */\n      pop\n        /* \"contracts/4_Twitter.sol\":2757:2760  i++ */\n      dup1\n      dup1\n      0x01\n      add\n      swap2\n      pop\n      pop\n        /* \"contracts/4_Twitter.sol\":2730:2941  for(uint i=len-count;i<len;i++){... */\n      jump(tag_110)\n    tag_111:\n      pop\n        /* \"contracts/4_Twitter.sol\":2958:2965  _tweets */\n      dup4\n        /* \"contracts/4_Twitter.sol\":2951:2965  return _tweets */\n      swap5\n      pop\n      pop\n      pop\n      pop\n      pop\n        /* \"contracts/4_Twitter.sol\":2383:2972  function getLatestOfUser(address _user,uint count) public view returns(Tweet [] memory) {... */\n      swap3\n      swap2\n      pop\n      pop\n      jump\t// out\n        /* \"contracts/4_Twitter.sol\":1614:1711  function follow(address _followed) public  {... */\n    tag_36:\n        /* \"contracts/4_Twitter.sol\":1667:1676  following */\n      0x04\n        /* \"contracts/4_Twitter.sol\":1667:1688  following[msg.sender] */\n      0x00\n        /* \"contracts/4_Twitter.sol\":1677:1687  msg.sender */\n      caller\n        /* \"contracts/4_Twitter.sol\":1667:1688  following[msg.sender] */\n      0xffffffffffffffffffffffffffffffffffffffff\n      and\n      0xffffffffffffffffffffffffffffffffffffffff\n      and\n      dup2\n      mstore\n      0x20\n      add\n      swap1\n      dup2\n      mstore\n      0x20\n      add\n      0x00\n      keccak256\n        /* \"contracts/4_Twitter.sol\":1694:1703  _followed */\n      dup2\n        /* \"contracts/4_Twitter.sol\":1667:1704  following[msg.sender].push(_followed) */\n      swap1\n      dup1\n      0x01\n      dup2\n      sload\n      add\n      dup1\n      dup3\n      sstore\n      dup1\n      swap2\n      pop\n      pop\n      0x01\n      swap1\n      sub\n      swap1\n      0x00\n      mstore\n      keccak256(0x00, 0x20)\n      add\n      0x00\n      swap1\n      swap2\n      swap1\n      swap2\n      swap1\n      swap2\n      0x0100\n      exp\n      dup2\n      sload\n      dup2\n      0xffffffffffffffffffffffffffffffffffffffff\n      mul\n      not\n      and\n      swap1\n      dup4\n      0xffffffffffffffffffffffffffffffffffffffff\n      and\n      mul\n      or\n      swap1\n      sstore\n      pop\n        /* \"contracts/4_Twitter.sol\":1614:1711  function follow(address _followed) public  {... */\n      pop\n      jump\t// out\n        /* \"contracts/4_Twitter.sol\":1915:2377  function getLatestTweet(uint count) public view returns (Tweet[] memory) {... */\n    tag_40:\n        /* \"contracts/4_Twitter.sol\":1972:1986  Tweet[] memory */\n      0x60\n        /* \"contracts/4_Twitter.sol\":2014:2015  0 */\n      0x00\n        /* \"contracts/4_Twitter.sol\":2006:2011  count */\n      dup3\n        /* \"contracts/4_Twitter.sol\":2006:2015  count > 0 */\n      gt\n        /* \"contracts/4_Twitter.sol\":2006:2033  count > 0 && count < nextId */\n      dup1\n      iszero\n      tag_131\n      jumpi\n      pop\n        /* \"contracts/4_Twitter.sol\":2027:2033  nextId */\n      sload(0x05)\n        /* \"contracts/4_Twitter.sol\":2019:2024  count */\n      dup3\n        /* \"contracts/4_Twitter.sol\":2019:2033  count < nextId */\n      lt\n        /* \"contracts/4_Twitter.sol\":2006:2033  count > 0 && count < nextId */\n    tag_131:\n        /* \"contracts/4_Twitter.sol\":1998:2058  require(count > 0 && count < nextId,\"Count is not in limit\") */\n      tag_132\n      jumpi\n      mload(0x40)\n      0x08c379a000000000000000000000000000000000000000000000000000000000\n      dup2\n      mstore\n      0x04\n      add\n      tag_133\n      swap1\n      tag_134\n      jump\t// in\n    tag_133:\n      mload(0x40)\n      dup1\n      swap2\n      sub\n      swap1\n      revert\n    tag_132:\n        /* \"contracts/4_Twitter.sol\":2068:2090  Tweet[] memory _tweets */\n      0x00\n        /* \"contracts/4_Twitter.sol\":2105:2110  count */\n      dup3\n        /* \"contracts/4_Twitter.sol\":2093:2111  new Tweet[](count) */\n      0xffffffffffffffff\n      dup2\n      gt\n      iszero\n      tag_135\n      jumpi\n      tag_136\n      tag_105\n      jump\t// in\n    tag_136:\n    tag_135:\n      mload(0x40)\n      swap1\n      dup1\n      dup3\n      mstore\n      dup1\n      0x20\n      mul\n      0x20\n      add\n      dup3\n      add\n      0x40\n      mstore\n      dup1\n      iszero\n      tag_137\n      jumpi\n      dup2\n      0x20\n      add\n    tag_138:\n      tag_139\n      tag_109\n      jump\t// in\n    tag_139:\n      dup2\n      mstore\n      0x20\n      add\n      swap1\n      0x01\n      swap1\n      sub\n      swap1\n      dup2\n      tag_138\n      jumpi\n      swap1\n      pop\n    tag_137:\n      pop\n        /* \"contracts/4_Twitter.sol\":2068:2111  Tweet[] memory _tweets = new Tweet[](count) */\n      swap1\n      pop\n        /* \"contracts/4_Twitter.sol\":2122:2128  uint j */\n      0x00\n        /* \"contracts/4_Twitter.sol\":2142:2148  uint i */\n      dup1\n        /* \"contracts/4_Twitter.sol\":2158:2163  count */\n      dup5\n        /* \"contracts/4_Twitter.sol\":2151:2157  nextId */\n      sload(0x05)\n        /* \"contracts/4_Twitter.sol\":2151:2163  nextId-count */\n      tag_143\n      swap2\n      swap1\n      tag_114\n      jump\t// in\n    tag_143:\n        /* \"contracts/4_Twitter.sol\":2142:2163  uint i = nextId-count */\n      swap1\n      pop\n        /* \"contracts/4_Twitter.sol\":2138:2346  for(uint i = nextId-count;i<nextId;i++){... */\n    tag_140:\n        /* \"contracts/4_Twitter.sol\":2166:2172  nextId */\n      sload(0x05)\n        /* \"contracts/4_Twitter.sol\":2164:2165  i */\n      dup2\n        /* \"contracts/4_Twitter.sol\":2164:2172  i<nextId */\n      lt\n        /* \"contracts/4_Twitter.sol\":2138:2346  for(uint i = nextId-count;i<nextId;i++){... */\n      iszero\n      tag_141\n      jumpi\n        /* \"contracts/4_Twitter.sol\":2191:2215  Tweet storage _structure */\n      0x00\n        /* \"contracts/4_Twitter.sol\":2218:2224  tweets */\n      dup1\n        /* \"contracts/4_Twitter.sol\":2218:2227  tweets[i] */\n      0x00\n        /* \"contracts/4_Twitter.sol\":2225:2226  i */\n      dup4\n        /* \"contracts/4_Twitter.sol\":2218:2227  tweets[i] */\n      dup2\n      mstore\n      0x20\n      add\n      swap1\n      dup2\n      mstore\n      0x20\n      add\n      0x00\n      keccak256\n        /* \"contracts/4_Twitter.sol\":2191:2227  Tweet storage _structure = tweets[i] */\n      swap1\n      pop\n        /* \"contracts/4_Twitter.sol\":2256:2335  Tweet(_structure.id,_structure.authore,_structure.content,_structure.createdAt) */\n      mload(0x40)\n      dup1\n      0x80\n      add\n      0x40\n      mstore\n      dup1\n        /* \"contracts/4_Twitter.sol\":2262:2272  _structure */\n      dup3\n        /* \"contracts/4_Twitter.sol\":2262:2275  _structure.id */\n      0x00\n      add\n      sload\n        /* \"contracts/4_Twitter.sol\":2256:2335  Tweet(_structure.id,_structure.authore,_structure.content,_structure.createdAt) */\n      dup2\n      mstore\n      0x20\n      add\n        /* \"contracts/4_Twitter.sol\":2276:2286  _structure */\n      dup3\n        /* \"contracts/4_Twitter.sol\":2276:2294  _structure.authore */\n      0x01\n      add\n      0x00\n      swap1\n      sload\n      swap1\n      0x0100\n      exp\n      swap1\n      div\n      0xffffffffffffffffffffffffffffffffffffffff\n      and\n        /* \"contracts/4_Twitter.sol\":2256:2335  Tweet(_structure.id,_structure.authore,_structure.content,_structure.createdAt) */\n      0xffffffffffffffffffffffffffffffffffffffff\n      and\n      dup2\n      mstore\n      0x20\n      add\n        /* \"contracts/4_Twitter.sol\":2295:2305  _structure */\n      dup3\n        /* \"contracts/4_Twitter.sol\":2295:2313  _structure.content */\n      0x02\n      add\n        /* \"contracts/4_Twitter.sol\":2256:2335  Tweet(_structure.id,_structure.authore,_structure.content,_structure.createdAt) */\n      dup1\n      sload\n      tag_144\n      swap1\n      tag_93\n      jump\t// in\n    tag_144:\n      dup1\n      0x1f\n      add\n      0x20\n      dup1\n      swap2\n      div\n      mul\n      0x20\n      add\n      mload(0x40)\n      swap1\n      dup2\n      add\n      0x40\n      mstore\n      dup1\n      swap3\n      swap2\n      swap1\n      dup2\n      dup2\n      mstore\n      0x20\n      add\n      dup3\n      dup1\n      sload\n      tag_145\n      swap1\n      tag_93\n      jump\t// in\n    tag_145:\n      dup1\n      iszero\n      tag_146\n      jumpi\n      dup1\n      0x1f\n      lt\n      tag_147\n      jumpi\n      0x0100\n      dup1\n      dup4\n      sload\n      div\n      mul\n      dup4\n      mstore\n      swap2\n      0x20\n      add\n      swap2\n      jump(tag_146)\n    tag_147:\n      dup3\n      add\n      swap2\n      swap1\n      0x00\n      mstore\n      keccak256(0x00, 0x20)\n      swap1\n    tag_148:\n      dup2\n      sload\n      dup2\n      mstore\n      swap1\n      0x01\n      add\n      swap1\n      0x20\n      add\n      dup1\n      dup4\n      gt\n      tag_148\n      jumpi\n      dup3\n      swap1\n      sub\n      0x1f\n      and\n      dup3\n      add\n      swap2\n    tag_146:\n      pop\n      pop\n      pop\n      pop\n      pop\n      dup2\n      mstore\n      0x20\n      add\n        /* \"contracts/4_Twitter.sol\":2314:2324  _structure */\n      dup3\n        /* \"contracts/4_Twitter.sol\":2314:2334  _structure.createdAt */\n      0x03\n      add\n      sload\n        /* \"contracts/4_Twitter.sol\":2256:2335  Tweet(_structure.id,_structure.authore,_structure.content,_structure.createdAt) */\n      dup2\n      mstore\n      pop\n        /* \"contracts/4_Twitter.sol\":2241:2248  _tweets */\n      dup5\n        /* \"contracts/4_Twitter.sol\":2249:2252  j++ */\n      dup5\n      dup1\n      tag_149\n      swap1\n      tag_125\n      jump\t// in\n    tag_149:\n      swap6\n      pop\n        /* \"contracts/4_Twitter.sol\":2241:2253  _tweets[j++] */\n      dup2\n      mload\n      dup2\n      lt\n      tag_150\n      jumpi\n      tag_151\n      tag_117\n      jump\t// in\n    tag_151:\n    tag_150:\n      0x20\n      mul\n      0x20\n      add\n      add\n        /* \"contracts/4_Twitter.sol\":2241:2335  _tweets[j++] = Tweet(_structure.id,_structure.authore,_structure.content,_structure.createdAt) */\n      dup2\n      swap1\n      mstore\n      pop\n        /* \"contracts/4_Twitter.sol\":2177:2346  {... */\n      pop\n        /* \"contracts/4_Twitter.sol\":2173:2176  i++ */\n      dup1\n      dup1\n      0x01\n      add\n      swap2\n      pop\n      pop\n        /* \"contracts/4_Twitter.sol\":2138:2346  for(uint i = nextId-count;i<nextId;i++){... */\n      jump(tag_140)\n    tag_141:\n      pop\n        /* \"contracts/4_Twitter.sol\":2363:2370  _tweets */\n      dup2\n        /* \"contracts/4_Twitter.sol\":2356:2370  return _tweets */\n      swap3\n      pop\n      pop\n      pop\n        /* \"contracts/4_Twitter.sol\":1915:2377  function getLatestTweet(uint count) public view returns (Tweet[] memory) {... */\n      swap2\n      swap1\n      pop\n      jump\t// out\n        /* \"contracts/4_Twitter.sol\":655:941  function _tweet(address _from,string memory _content) public {... */\n    tag_45:\n        /* \"contracts/4_Twitter.sol\":741:751  msg.sender */\n      caller\n        /* \"contracts/4_Twitter.sol\":734:751  _from==msg.sender */\n      0xffffffffffffffffffffffffffffffffffffffff\n      and\n        /* \"contracts/4_Twitter.sol\":734:739  _from */\n      dup3\n        /* \"contracts/4_Twitter.sol\":734:751  _from==msg.sender */\n      0xffffffffffffffffffffffffffffffffffffffff\n      and\n      eq\n        /* \"contracts/4_Twitter.sol\":734:782  _from==msg.sender || operator[_from][msg.sender] */\n      dup1\n      tag_153\n      jumpi\n      pop\n        /* \"contracts/4_Twitter.sol\":755:763  operator */\n      0x03\n        /* \"contracts/4_Twitter.sol\":755:770  operator[_from] */\n      0x00\n        /* \"contracts/4_Twitter.sol\":764:769  _from */\n      dup4\n        /* \"contracts/4_Twitter.sol\":755:770  operator[_from] */\n      0xffffffffffffffffffffffffffffffffffffffff\n      and\n      0xffffffffffffffffffffffffffffffffffffffff\n      and\n      dup2\n      mstore\n      0x20\n      add\n      swap1\n      dup2\n      mstore\n      0x20\n      add\n      0x00\n      keccak256\n        /* \"contracts/4_Twitter.sol\":755:782  operator[_from][msg.sender] */\n      0x00\n        /* \"contracts/4_Twitter.sol\":771:781  msg.sender */\n      caller\n        /* \"contracts/4_Twitter.sol\":755:782  operator[_from][msg.sender] */\n      0xffffffffffffffffffffffffffffffffffffffff\n      and\n      0xffffffffffffffffffffffffffffffffffffffff\n      and\n      dup2\n      mstore\n      0x20\n      add\n      swap1\n      dup2\n      mstore\n      0x20\n      add\n      0x00\n      keccak256\n      0x00\n      swap1\n      sload\n      swap1\n      0x0100\n      exp\n      swap1\n      div\n      0xff\n      and\n        /* \"contracts/4_Twitter.sol\":734:782  _from==msg.sender || operator[_from][msg.sender] */\n    tag_153:\n        /* \"contracts/4_Twitter.sol\":726:807  require(_from==msg.sender || operator[_from][msg.sender],\"You don't have access\") */\n      tag_154\n      jumpi\n      mload(0x40)\n      0x08c379a000000000000000000000000000000000000000000000000000000000\n      dup2\n      mstore\n      0x04\n      add\n      tag_155\n      swap1\n      tag_156\n      jump\t// in\n    tag_155:\n      mload(0x40)\n      dup1\n      swap2\n      sub\n      swap1\n      revert\n    tag_154:\n        /* \"contracts/4_Twitter.sol\":834:878  Tweet(nextId,_from,_content,block.timestamp) */\n      mload(0x40)\n      dup1\n      0x80\n      add\n      0x40\n      mstore\n      dup1\n        /* \"contracts/4_Twitter.sol\":840:846  nextId */\n      sload(0x05)\n        /* \"contracts/4_Twitter.sol\":834:878  Tweet(nextId,_from,_content,block.timestamp) */\n      dup2\n      mstore\n      0x20\n      add\n        /* \"contracts/4_Twitter.sol\":847:852  _from */\n      dup4\n        /* \"contracts/4_Twitter.sol\":834:878  Tweet(nextId,_from,_content,block.timestamp) */\n      0xffffffffffffffffffffffffffffffffffffffff\n      and\n      dup2\n      mstore\n      0x20\n      add\n        /* \"contracts/4_Twitter.sol\":853:861  _content */\n      dup3\n        /* \"contracts/4_Twitter.sol\":834:878  Tweet(nextId,_from,_content,block.timestamp) */\n      dup2\n      mstore\n      0x20\n      add\n        /* \"contracts/4_Twitter.sol\":862:877  block.timestamp */\n      timestamp\n        /* \"contracts/4_Twitter.sol\":834:878  Tweet(nextId,_from,_content,block.timestamp) */\n      dup2\n      mstore\n      pop\n        /* \"contracts/4_Twitter.sol\":817:823  tweets */\n      0x00\n        /* \"contracts/4_Twitter.sol\":817:831  tweets[nextId] */\n      dup1\n        /* \"contracts/4_Twitter.sol\":824:830  nextId */\n      sload(0x05)\n        /* \"contracts/4_Twitter.sol\":817:831  tweets[nextId] */\n      dup2\n      mstore\n      0x20\n      add\n      swap1\n      dup2\n      mstore\n      0x20\n      add\n      0x00\n      keccak256\n        /* \"contracts/4_Twitter.sol\":817:878  tweets[nextId] = Tweet(nextId,_from,_content,block.timestamp) */\n      0x00\n      dup3\n      add\n      mload\n      dup2\n      0x00\n      add\n      sstore\n      0x20\n      dup3\n      add\n      mload\n      dup2\n      0x01\n      add\n      exp(0x0100, 0x00)\n      dup2\n      sload\n      dup2\n      0xffffffffffffffffffffffffffffffffffffffff\n      mul\n      not\n      and\n      swap1\n      dup4\n      0xffffffffffffffffffffffffffffffffffffffff\n      and\n      mul\n      or\n      swap1\n      sstore\n      pop\n      0x40\n      dup3\n      add\n      mload\n      dup2\n      0x02\n      add\n      swap1\n      dup2\n      tag_157\n      swap2\n      swap1\n      tag_158\n      jump\t// in\n    tag_157:\n      pop\n      0x60\n      dup3\n      add\n      mload\n      dup2\n      0x03\n      add\n      sstore\n      swap1\n      pop\n      pop\n        /* \"contracts/4_Twitter.sol\":888:896  tweetsOf */\n      0x01\n        /* \"contracts/4_Twitter.sol\":888:903  tweetsOf[_from] */\n      0x00\n        /* \"contracts/4_Twitter.sol\":897:902  _from */\n      dup4\n        /* \"contracts/4_Twitter.sol\":888:903  tweetsOf[_from] */\n      0xffffffffffffffffffffffffffffffffffffffff\n      and\n      0xffffffffffffffffffffffffffffffffffffffff\n      and\n      dup2\n      mstore\n      0x20\n      add\n      swap1\n      dup2\n      mstore\n      0x20\n      add\n      0x00\n      keccak256\n        /* \"contracts/4_Twitter.sol\":909:915  nextId */\n      sload(0x05)\n        /* \"contracts/4_Twitter.sol\":888:916  tweetsOf[_from].push(nextId) */\n      swap1\n      dup1\n      0x01\n      dup2\n      sload\n      add\n      dup1\n      dup3\n      sstore\n      dup1\n      swap2\n      pop\n      pop\n      0x01\n      swap1\n      sub\n      swap1\n      0x00\n      mstore\n      keccak256(0x00, 0x20)\n      add\n      0x00\n      swap1\n      swap2\n      swap1\n      swap2\n      swap1\n      swap2\n      pop\n      sstore\n        /* \"contracts/4_Twitter.sol\":926:932  nextId */\n      0x05\n      0x00\n        /* \"contracts/4_Twitter.sol\":926:934  nextId++ */\n      dup2\n      sload\n      dup1\n      swap3\n      swap2\n      swap1\n      tag_160\n      swap1\n      tag_125\n      jump\t// in\n    tag_160:\n      swap2\n      swap1\n      pop\n      sstore\n      pop\n        /* \"contracts/4_Twitter.sol\":655:941  function _tweet(address _from,string memory _content) public {... */\n      pop\n      pop\n      jump\t// out\n        /* \"contracts/4_Twitter.sol\":562:610  mapping (address => address []) public following */\n    tag_48:\n      mstore(0x20, 0x04)\n      dup2\n      0x00\n      mstore\n      keccak256(0x00, 0x40)\n      dup2\n      dup2\n      sload\n      dup2\n      lt\n      tag_161\n      jumpi\n      0x00\n      dup1\n      revert\n    tag_161:\n      swap1\n      0x00\n      mstore\n      keccak256(0x00, 0x20)\n      add\n      0x00\n      swap2\n      pop\n      swap2\n      pop\n      swap1\n      sload\n      swap1\n      0x0100\n      exp\n      swap1\n      div\n      0xffffffffffffffffffffffffffffffffffffffff\n      and\n      dup2\n      jump\t// out\n        /* \"contracts/4_Twitter.sol\":385:429  mapping (address => uint []) public tweetsOf */\n    tag_53:\n      mstore(0x20, 0x01)\n      dup2\n      0x00\n      mstore\n      keccak256(0x00, 0x40)\n      dup2\n      dup2\n      sload\n      dup2\n      lt\n      tag_163\n      jumpi\n      0x00\n      dup1\n      revert\n    tag_163:\n      swap1\n      0x00\n      mstore\n      keccak256(0x00, 0x20)\n      add\n      0x00\n      swap2\n      pop\n      swap2\n      pop\n      pop\n      sload\n      dup2\n      jump\t// out\n        /* \"contracts/4_Twitter.sol\":1479:1608  function sendMessage(address _from,address _to,string memory _content) public {... */\n    tag_59:\n        /* \"contracts/4_Twitter.sol\":1567:1601  _sendMessage(_from, _to, _content) */\n      tag_166\n        /* \"contracts/4_Twitter.sol\":1580:1585  _from */\n      dup4\n        /* \"contracts/4_Twitter.sol\":1587:1590  _to */\n      dup4\n        /* \"contracts/4_Twitter.sol\":1592:1600  _content */\n      dup4\n        /* \"contracts/4_Twitter.sol\":1567:1579  _sendMessage */\n      tag_65\n        /* \"contracts/4_Twitter.sol\":1567:1601  _sendMessage(_from, _to, _content) */\n      jump\t// in\n    tag_166:\n        /* \"contracts/4_Twitter.sol\":1479:1608  function sendMessage(address _from,address _to,string memory _content) public {... */\n      pop\n      pop\n      pop\n      jump\t// out\n        /* \"contracts/4_Twitter.sol\":1814:1909  function disAllow(address _opretor)public {... */\n    tag_62:\n        /* \"contracts/4_Twitter.sol\":1897:1902  false */\n      0x00\n        /* \"contracts/4_Twitter.sol\":1866:1874  operator */\n      0x03\n        /* \"contracts/4_Twitter.sol\":1866:1886  operator[msg.sender] */\n      0x00\n        /* \"contracts/4_Twitter.sol\":1875:1885  msg.sender */\n      caller\n        /* \"contracts/4_Twitter.sol\":1866:1886  operator[msg.sender] */\n      0xffffffffffffffffffffffffffffffffffffffff\n      and\n      0xffffffffffffffffffffffffffffffffffffffff\n      and\n      dup2\n      mstore\n      0x20\n      add\n      swap1\n      dup2\n      mstore\n      0x20\n      add\n      0x00\n      keccak256\n        /* \"contracts/4_Twitter.sol\":1866:1896  operator[msg.sender][_opretor] */\n      0x00\n        /* \"contracts/4_Twitter.sol\":1887:1895  _opretor */\n      dup4\n        /* \"contracts/4_Twitter.sol\":1866:1896  operator[msg.sender][_opretor] */\n      0xffffffffffffffffffffffffffffffffffffffff\n      and\n      0xffffffffffffffffffffffffffffffffffffffff\n      and\n      dup2\n      mstore\n      0x20\n      add\n      swap1\n      dup2\n      mstore\n      0x20\n      add\n      0x00\n      keccak256\n      0x00\n        /* \"contracts/4_Twitter.sol\":1866:1902  operator[msg.sender][_opretor]=false */\n      0x0100\n      exp\n      dup2\n      sload\n      dup2\n      0xff\n      mul\n      not\n      and\n      swap1\n      dup4\n      iszero\n      iszero\n      mul\n      or\n      swap1\n      sstore\n      pop\n        /* \"contracts/4_Twitter.sol\":1814:1909  function disAllow(address _opretor)public {... */\n      pop\n      jump\t// out\n        /* \"contracts/4_Twitter.sol\":947:1144  function _sendMessage(address _from,address _to,string memory _content) public {... */\n    tag_65:\n        /* \"contracts/4_Twitter.sol\":1036:1049  conversations */\n      0x02\n        /* \"contracts/4_Twitter.sol\":1036:1056  conversations[_from] */\n      0x00\n        /* \"contracts/4_Twitter.sol\":1050:1055  _from */\n      dup5\n        /* \"contracts/4_Twitter.sol\":1036:1056  conversations[_from] */\n      0xffffffffffffffffffffffffffffffffffffffff\n      and\n      0xffffffffffffffffffffffffffffffffffffffff\n      and\n      dup2\n      mstore\n      0x20\n      add\n      swap1\n      dup2\n      mstore\n      0x20\n      add\n      0x00\n      keccak256\n        /* \"contracts/4_Twitter.sol\":1062:1115  message(messageId,_content,_from,_to,block.timestamp) */\n      mload(0x40)\n      dup1\n      0xa0\n      add\n      0x40\n      mstore\n      dup1\n        /* \"contracts/4_Twitter.sol\":1070:1079  messageId */\n      sload(0x06)\n        /* \"contracts/4_Twitter.sol\":1062:1115  message(messageId,_content,_from,_to,block.timestamp) */\n      dup2\n      mstore\n      0x20\n      add\n        /* \"contracts/4_Twitter.sol\":1080:1088  _content */\n      dup4\n        /* \"contracts/4_Twitter.sol\":1062:1115  message(messageId,_content,_from,_to,block.timestamp) */\n      dup2\n      mstore\n      0x20\n      add\n        /* \"contracts/4_Twitter.sol\":1089:1094  _from */\n      dup6\n        /* \"contracts/4_Twitter.sol\":1062:1115  message(messageId,_content,_from,_to,block.timestamp) */\n      0xffffffffffffffffffffffffffffffffffffffff\n      and\n      dup2\n      mstore\n      0x20\n      add\n        /* \"contracts/4_Twitter.sol\":1095:1098  _to */\n      dup5\n        /* \"contracts/4_Twitter.sol\":1062:1115  message(messageId,_content,_from,_to,block.timestamp) */\n      0xffffffffffffffffffffffffffffffffffffffff\n      and\n      dup2\n      mstore\n      0x20\n      add\n        /* \"contracts/4_Twitter.sol\":1099:1114  block.timestamp */\n      timestamp\n        /* \"contracts/4_Twitter.sol\":1062:1115  message(messageId,_content,_from,_to,block.timestamp) */\n      dup2\n      mstore\n      pop\n        /* \"contracts/4_Twitter.sol\":1036:1116  conversations[_from].push(message(messageId,_content,_from,_to,block.timestamp)) */\n      swap1\n      dup1\n      0x01\n      dup2\n      sload\n      add\n      dup1\n      dup3\n      sstore\n      dup1\n      swap2\n      pop\n      pop\n      0x01\n      swap1\n      sub\n      swap1\n      0x00\n      mstore\n      keccak256(0x00, 0x20)\n      swap1\n      0x05\n      mul\n      add\n      0x00\n      swap1\n      swap2\n      swap1\n      swap2\n      swap1\n      swap2\n      pop\n      0x00\n      dup3\n      add\n      mload\n      dup2\n      0x00\n      add\n      sstore\n      0x20\n      dup3\n      add\n      mload\n      dup2\n      0x01\n      add\n      swap1\n      dup2\n      tag_170\n      swap2\n      swap1\n      tag_158\n      jump\t// in\n    tag_170:\n      pop\n      0x40\n      dup3\n      add\n      mload\n      dup2\n      0x02\n      add\n      exp(0x0100, 0x00)\n      dup2\n      sload\n      dup2\n      0xffffffffffffffffffffffffffffffffffffffff\n      mul\n      not\n      and\n      swap1\n      dup4\n      0xffffffffffffffffffffffffffffffffffffffff\n      and\n      mul\n      or\n      swap1\n      sstore\n      pop\n      0x60\n      dup3\n      add\n      mload\n      dup2\n      0x03\n      add\n      exp(0x0100, 0x00)\n      dup2\n      sload\n      dup2\n      0xffffffffffffffffffffffffffffffffffffffff\n      mul\n      not\n      and\n      swap1\n      dup4\n      0xffffffffffffffffffffffffffffffffffffffff\n      and\n      mul\n      or\n      swap1\n      sstore\n      pop\n      0x80\n      dup3\n      add\n      mload\n      dup2\n      0x04\n      add\n      sstore\n      pop\n      pop\n        /* \"contracts/4_Twitter.sol\":1126:1135  messageId */\n      0x06\n      0x00\n        /* \"contracts/4_Twitter.sol\":1126:1137  messageId++ */\n      dup2\n      sload\n      dup1\n      swap3\n      swap2\n      swap1\n      tag_171\n      swap1\n      tag_125\n      jump\t// in\n    tag_171:\n      swap2\n      swap1\n      pop\n      sstore\n      pop\n        /* \"contracts/4_Twitter.sol\":947:1144  function _sendMessage(address _from,address _to,string memory _content) public {... */\n      pop\n      pop\n      pop\n      jump\t// out\n        /* \"contracts/4_Twitter.sol\":1247:1347  function tweet(address _from,string memory _content) public {... */\n    tag_68:\n        /* \"contracts/4_Twitter.sol\":1317:1340  _tweet(_from, _content) */\n      tag_173\n        /* \"contracts/4_Twitter.sol\":1324:1329  _from */\n      dup3\n        /* \"contracts/4_Twitter.sol\":1331:1339  _content */\n      dup3\n        /* \"contracts/4_Twitter.sol\":1317:1323  _tweet */\n      tag_45\n        /* \"contracts/4_Twitter.sol\":1317:1340  _tweet(_from, _content) */\n      jump\t// in\n    tag_173:\n        /* \"contracts/4_Twitter.sol\":1247:1347  function tweet(address _from,string memory _content) public {... */\n      pop\n      pop\n      jump\t// out\n        /* \"contracts/4_Twitter.sol\":494:556  mapping (address => mapping (address => bool)) public operator */\n    tag_72:\n      mstore(0x20, 0x03)\n      dup2\n      0x00\n      mstore\n      mstore(0x20, keccak256(0x00, 0x40))\n      dup1\n      0x00\n      mstore\n      keccak256(0x00, 0x40)\n      0x00\n      swap2\n      pop\n      swap2\n      pop\n      swap1\n      sload\n      swap1\n      0x0100\n      exp\n      swap1\n      div\n      0xff\n      and\n      dup2\n      jump\t// out\n        /* \"contracts/4_Twitter.sol\":1353:1473  function sendMessage(address _to,string memory _content) public {... */\n    tag_77:\n        /* \"contracts/4_Twitter.sol\":1427:1466  _sendMessage(msg.sender, _to, _content) */\n      tag_175\n        /* \"contracts/4_Twitter.sol\":1440:1450  msg.sender */\n      caller\n        /* \"contracts/4_Twitter.sol\":1452:1455  _to */\n      dup4\n        /* \"contracts/4_Twitter.sol\":1457:1465  _content */\n      dup4\n        /* \"contracts/4_Twitter.sol\":1427:1439  _sendMessage */\n      tag_65\n        /* \"contracts/4_Twitter.sol\":1427:1466  _sendMessage(msg.sender, _to, _content) */\n      jump\t// in\n    tag_175:\n        /* \"contracts/4_Twitter.sol\":1353:1473  function sendMessage(address _to,string memory _content) public {... */\n      pop\n      pop\n      jump\t// out\n        /* \"contracts/4_Twitter.sol\":342:379  mapping (uint => Tweet) public tweets */\n    tag_80:\n      mstore(0x20, 0x00)\n      dup1\n      0x00\n      mstore\n      keccak256(0x00, 0x40)\n      0x00\n      swap2\n      pop\n      swap1\n      pop\n      dup1\n      0x00\n      add\n      sload\n      swap1\n      dup1\n      0x01\n      add\n      0x00\n      swap1\n      sload\n      swap1\n      0x0100\n      exp\n      swap1\n      div\n      0xffffffffffffffffffffffffffffffffffffffff\n      and\n      swap1\n      dup1\n      0x02\n      add\n      dup1\n      sload\n      tag_176\n      swap1\n      tag_93\n      jump\t// in\n    tag_176:\n      dup1\n      0x1f\n      add\n      0x20\n      dup1\n      swap2\n      div\n      mul\n      0x20\n      add\n      mload(0x40)\n      swap1\n      dup2\n      add\n      0x40\n      mstore\n      dup1\n      swap3\n      swap2\n      swap1\n      dup2\n      dup2\n      mstore\n      0x20\n      add\n      dup3\n      dup1\n      sload\n      tag_177\n      swap1\n      tag_93\n      jump\t// in\n    tag_177:\n      dup1\n      iszero\n      tag_178\n      jumpi\n      dup1\n      0x1f\n      lt\n      tag_179\n      jumpi\n      0x0100\n      dup1\n      dup4\n      sload\n      div\n      mul\n      dup4\n      mstore\n      swap2\n      0x20\n      add\n      swap2\n      jump(tag_178)\n    tag_179:\n      dup3\n      add\n      swap2\n      swap1\n      0x00\n      mstore\n      keccak256(0x00, 0x20)\n      swap1\n    tag_180:\n      dup2\n      sload\n      dup2\n      mstore\n      swap1\n      0x01\n      add\n      swap1\n      0x20\n      add\n      dup1\n      dup4\n      gt\n      tag_180\n      jumpi\n      dup3\n      swap1\n      sub\n      0x1f\n      and\n      dup3\n      add\n      swap2\n    tag_178:\n      pop\n      pop\n      pop\n      pop\n      pop\n      swap1\n      dup1\n      0x03\n      add\n      sload\n      swap1\n      pop\n      dup5\n      jump\t// out\n        /* \"contracts/4_Twitter.sol\":1150:1241  function tweet(string memory _content) public {... */\n    tag_86:\n        /* \"contracts/4_Twitter.sol\":1206:1234  _tweet(msg.sender, _content) */\n      tag_182\n        /* \"contracts/4_Twitter.sol\":1213:1223  msg.sender */\n      caller\n        /* \"contracts/4_Twitter.sol\":1225:1233  _content */\n      dup3\n        /* \"contracts/4_Twitter.sol\":1206:1212  _tweet */\n      tag_45\n        /* \"contracts/4_Twitter.sol\":1206:1234  _tweet(msg.sender, _content) */\n      jump\t// in\n    tag_182:\n        /* \"contracts/4_Twitter.sol\":1150:1241  function tweet(string memory _content) public {... */\n      pop\n      jump\t// out\n        /* \"contracts/4_Twitter.sol\":1717:1808  function allow(address _opretor)public {... */\n    tag_89:\n        /* \"contracts/4_Twitter.sol\":1797:1801  true */\n      0x01\n        /* \"contracts/4_Twitter.sol\":1766:1774  operator */\n      0x03\n        /* \"contracts/4_Twitter.sol\":1766:1786  operator[msg.sender] */\n      0x00\n        /* \"contracts/4_Twitter.sol\":1775:1785  msg.sender */\n      caller\n        /* \"contracts/4_Twitter.sol\":1766:1786  operator[msg.sender] */\n      0xffffffffffffffffffffffffffffffffffffffff\n      and\n      0xffffffffffffffffffffffffffffffffffffffff\n      and\n      dup2\n      mstore\n      0x20\n      add\n      swap1\n      dup2\n      mstore\n      0x20\n      add\n      0x00\n      keccak256\n        /* \"contracts/4_Twitter.sol\":1766:1796  operator[msg.sender][_opretor] */\n      0x00\n        /* \"contracts/4_Twitter.sol\":1787:1795  _opretor */\n      dup4\n        /* \"contracts/4_Twitter.sol\":1766:1796  operator[msg.sender][_opretor] */\n      0xffffffffffffffffffffffffffffffffffffffff\n      and\n      0xffffffffffffffffffffffffffffffffffffffff\n      and\n      dup2\n      mstore\n      0x20\n      add\n      swap1\n      dup2\n      mstore\n      0x20\n      add\n      0x00\n      keccak256\n      0x00\n        /* \"contracts/4_Twitter.sol\":1766:1801  operator[msg.sender][_opretor]=true */\n      0x0100\n      exp\n      dup2\n      sload\n      dup2\n      0xff\n      mul\n      not\n      and\n      swap1\n      dup4\n      iszero\n      iszero\n      mul\n      or\n      swap1\n      sstore\n      pop\n        /* \"contracts/4_Twitter.sol\":1717:1808  function allow(address _opretor)public {... */\n      pop\n      jump\t// out\n    tag_109:\n      mload(0x40)\n      dup1\n      0x80\n      add\n      0x40\n      mstore\n      dup1\n      0x00\n      dup2\n      mstore\n      0x20\n      add\n      and(0xffffffffffffffffffffffffffffffffffffffff, 0x00)\n      dup2\n      mstore\n      0x20\n      add\n      0x60\n      dup2\n      mstore\n      0x20\n      add\n      0x00\n      dup2\n      mstore\n      pop\n      swap1\n      jump\t// out\n        /* \"#utility.yul\":7:82   */\n    tag_184:\n        /* \"#utility.yul\":40:46   */\n      0x00\n        /* \"#utility.yul\":73:75   */\n      0x40\n        /* \"#utility.yul\":67:76   */\n      mload\n        /* \"#utility.yul\":57:76   */\n      swap1\n      pop\n        /* \"#utility.yul\":7:82   */\n      swap1\n      jump\t// out\n        /* \"#utility.yul\":88:205   */\n    tag_185:\n        /* \"#utility.yul\":197:198   */\n      0x00\n        /* \"#utility.yul\":194:195   */\n      dup1\n        /* \"#utility.yul\":187:199   */\n      revert\n        /* \"#utility.yul\":211:328   */\n    tag_186:\n        /* \"#utility.yul\":320:321   */\n      0x00\n        /* \"#utility.yul\":317:318   */\n      dup1\n        /* \"#utility.yul\":310:322   */\n      revert\n        /* \"#utility.yul\":334:460   */\n    tag_187:\n        /* \"#utility.yul\":371:378   */\n      0x00\n        /* \"#utility.yul\":411:453   */\n      0xffffffffffffffffffffffffffffffffffffffff\n        /* \"#utility.yul\":404:409   */\n      dup3\n        /* \"#utility.yul\":400:454   */\n      and\n        /* \"#utility.yul\":389:454   */\n      swap1\n      pop\n        /* \"#utility.yul\":334:460   */\n      swap2\n      swap1\n      pop\n      jump\t// out\n        /* \"#utility.yul\":466:562   */\n    tag_188:\n        /* \"#utility.yul\":503:510   */\n      0x00\n        /* \"#utility.yul\":532:556   */\n      tag_251\n        /* \"#utility.yul\":550:555   */\n      dup3\n        /* \"#utility.yul\":532:556   */\n      tag_187\n      jump\t// in\n    tag_251:\n        /* \"#utility.yul\":521:556   */\n      swap1\n      pop\n        /* \"#utility.yul\":466:562   */\n      swap2\n      swap1\n      pop\n      jump\t// out\n        /* \"#utility.yul\":568:690   */\n    tag_189:\n        /* \"#utility.yul\":641:665   */\n      tag_253\n        /* \"#utility.yul\":659:664   */\n      dup2\n        /* \"#utility.yul\":641:665   */\n      tag_188\n      jump\t// in\n    tag_253:\n        /* \"#utility.yul\":634:639   */\n      dup2\n        /* \"#utility.yul\":631:666   */\n      eq\n        /* \"#utility.yul\":621:684   */\n      tag_254\n      jumpi\n        /* \"#utility.yul\":680:681   */\n      0x00\n        /* \"#utility.yul\":677:678   */\n      dup1\n        /* \"#utility.yul\":670:682   */\n      revert\n        /* \"#utility.yul\":621:684   */\n    tag_254:\n        /* \"#utility.yul\":568:690   */\n      pop\n      jump\t// out\n        /* \"#utility.yul\":696:835   */\n    tag_190:\n        /* \"#utility.yul\":742:747   */\n      0x00\n        /* \"#utility.yul\":780:786   */\n      dup2\n        /* \"#utility.yul\":767:787   */\n      calldataload\n        /* \"#utility.yul\":758:787   */\n      swap1\n      pop\n        /* \"#utility.yul\":796:829   */\n      tag_256\n        /* \"#utility.yul\":823:828   */\n      dup2\n        /* \"#utility.yul\":796:829   */\n      tag_189\n      jump\t// in\n    tag_256:\n        /* \"#utility.yul\":696:835   */\n      swap3\n      swap2\n      pop\n      pop\n      jump\t// out\n        /* \"#utility.yul\":841:918   */\n    tag_191:\n        /* \"#utility.yul\":878:885   */\n      0x00\n        /* \"#utility.yul\":907:912   */\n      dup2\n        /* \"#utility.yul\":896:912   */\n      swap1\n      pop\n        /* \"#utility.yul\":841:918   */\n      swap2\n      swap1\n      pop\n      jump\t// out\n        /* \"#utility.yul\":924:1046   */\n    tag_192:\n        /* \"#utility.yul\":997:1021   */\n      tag_259\n        /* \"#utility.yul\":1015:1020   */\n      dup2\n        /* \"#utility.yul\":997:1021   */\n      tag_191\n      jump\t// in\n    tag_259:\n        /* \"#utility.yul\":990:995   */\n      dup2\n        /* \"#utility.yul\":987:1022   */\n      eq\n        /* \"#utility.yul\":977:1040   */\n      tag_260\n      jumpi\n        /* \"#utility.yul\":1036:1037   */\n      0x00\n        /* \"#utility.yul\":1033:1034   */\n      dup1\n        /* \"#utility.yul\":1026:1038   */\n      revert\n        /* \"#utility.yul\":977:1040   */\n    tag_260:\n        /* \"#utility.yul\":924:1046   */\n      pop\n      jump\t// out\n        /* \"#utility.yul\":1052:1191   */\n    tag_193:\n        /* \"#utility.yul\":1098:1103   */\n      0x00\n        /* \"#utility.yul\":1136:1142   */\n      dup2\n        /* \"#utility.yul\":1123:1143   */\n      calldataload\n        /* \"#utility.yul\":1114:1143   */\n      swap1\n      pop\n        /* \"#utility.yul\":1152:1185   */\n      tag_262\n        /* \"#utility.yul\":1179:1184   */\n      dup2\n        /* \"#utility.yul\":1152:1185   */\n      tag_192\n      jump\t// in\n    tag_262:\n        /* \"#utility.yul\":1052:1191   */\n      swap3\n      swap2\n      pop\n      pop\n      jump\t// out\n        /* \"#utility.yul\":1197:1671   */\n    tag_24:\n        /* \"#utility.yul\":1265:1271   */\n      0x00\n        /* \"#utility.yul\":1273:1279   */\n      dup1\n        /* \"#utility.yul\":1322:1324   */\n      0x40\n        /* \"#utility.yul\":1310:1319   */\n      dup4\n        /* \"#utility.yul\":1301:1308   */\n      dup6\n        /* \"#utility.yul\":1297:1320   */\n      sub\n        /* \"#utility.yul\":1293:1325   */\n      slt\n        /* \"#utility.yul\":1290:1409   */\n      iszero\n      tag_264\n      jumpi\n        /* \"#utility.yul\":1328:1407   */\n      tag_265\n      tag_185\n      jump\t// in\n    tag_265:\n        /* \"#utility.yul\":1290:1409   */\n    tag_264:\n        /* \"#utility.yul\":1448:1449   */\n      0x00\n        /* \"#utility.yul\":1473:1526   */\n      tag_266\n        /* \"#utility.yul\":1518:1525   */\n      dup6\n        /* \"#utility.yul\":1509:1515   */\n      dup3\n        /* \"#utility.yul\":1498:1507   */\n      dup7\n        /* \"#utility.yul\":1494:1516   */\n      add\n        /* \"#utility.yul\":1473:1526   */\n      tag_190\n      jump\t// in\n    tag_266:\n        /* \"#utility.yul\":1463:1526   */\n      swap3\n      pop\n        /* \"#utility.yul\":1419:1536   */\n      pop\n        /* \"#utility.yul\":1575:1577   */\n      0x20\n        /* \"#utility.yul\":1601:1654   */\n      tag_267\n        /* \"#utility.yul\":1646:1653   */\n      dup6\n        /* \"#utility.yul\":1637:1643   */\n      dup3\n        /* \"#utility.yul\":1626:1635   */\n      dup7\n        /* \"#utility.yul\":1622:1644   */\n      add\n        /* \"#utility.yul\":1601:1654   */\n      tag_193\n      jump\t// in\n    tag_267:\n        /* \"#utility.yul\":1591:1654   */\n      swap2\n      pop\n        /* \"#utility.yul\":1546:1664   */\n      pop\n        /* \"#utility.yul\":1197:1671   */\n      swap3\n      pop\n      swap3\n      swap1\n      pop\n      jump\t// out\n        /* \"#utility.yul\":1677:1795   */\n    tag_194:\n        /* \"#utility.yul\":1764:1788   */\n      tag_269\n        /* \"#utility.yul\":1782:1787   */\n      dup2\n        /* \"#utility.yul\":1764:1788   */\n      tag_191\n      jump\t// in\n    tag_269:\n        /* \"#utility.yul\":1759:1762   */\n      dup3\n        /* \"#utility.yul\":1752:1789   */\n      mstore\n        /* \"#utility.yul\":1677:1795   */\n      pop\n      pop\n      jump\t// out\n        /* \"#utility.yul\":1801:1900   */\n    tag_195:\n        /* \"#utility.yul\":1853:1859   */\n      0x00\n        /* \"#utility.yul\":1887:1892   */\n      dup2\n        /* \"#utility.yul\":1881:1893   */\n      mload\n        /* \"#utility.yul\":1871:1893   */\n      swap1\n      pop\n        /* \"#utility.yul\":1801:1900   */\n      swap2\n      swap1\n      pop\n      jump\t// out\n        /* \"#utility.yul\":1906:2075   */\n    tag_196:\n        /* \"#utility.yul\":1990:2001   */\n      0x00\n        /* \"#utility.yul\":2024:2030   */\n      dup3\n        /* \"#utility.yul\":2019:2022   */\n      dup3\n        /* \"#utility.yul\":2012:2031   */\n      mstore\n        /* \"#utility.yul\":2064:2068   */\n      0x20\n        /* \"#utility.yul\":2059:2062   */\n      dup3\n        /* \"#utility.yul\":2055:2069   */\n      add\n        /* \"#utility.yul\":2040:2069   */\n      swap1\n      pop\n        /* \"#utility.yul\":1906:2075   */\n      swap3\n      swap2\n      pop\n      pop\n      jump\t// out\n        /* \"#utility.yul\":2081:2220   */\n    tag_197:\n        /* \"#utility.yul\":2170:2176   */\n      dup3\n        /* \"#utility.yul\":2165:2168   */\n      dup2\n        /* \"#utility.yul\":2160:2163   */\n      dup4\n        /* \"#utility.yul\":2154:2177   */\n      mcopy\n        /* \"#utility.yul\":2211:2212   */\n      0x00\n        /* \"#utility.yul\":2202:2208   */\n      dup4\n        /* \"#utility.yul\":2197:2200   */\n      dup4\n        /* \"#utility.yul\":2193:2209   */\n      add\n        /* \"#utility.yul\":2186:2213   */\n      mstore\n        /* \"#utility.yul\":2081:2220   */\n      pop\n      pop\n      pop\n      jump\t// out\n        /* \"#utility.yul\":2226:2328   */\n    tag_198:\n        /* \"#utility.yul\":2267:2273   */\n      0x00\n        /* \"#utility.yul\":2318:2320   */\n      0x1f\n        /* \"#utility.yul\":2314:2321   */\n      not\n        /* \"#utility.yul\":2309:2311   */\n      0x1f\n        /* \"#utility.yul\":2302:2307   */\n      dup4\n        /* \"#utility.yul\":2298:2312   */\n      add\n        /* \"#utility.yul\":2294:2322   */\n      and\n        /* \"#utility.yul\":2284:2322   */\n      swap1\n      pop\n        /* \"#utility.yul\":2226:2328   */\n      swap2\n      swap1\n      pop\n      jump\t// out\n        /* \"#utility.yul\":2334:2711   */\n    tag_199:\n        /* \"#utility.yul\":2422:2425   */\n      0x00\n        /* \"#utility.yul\":2450:2489   */\n      tag_275\n        /* \"#utility.yul\":2483:2488   */\n      dup3\n        /* \"#utility.yul\":2450:2489   */\n      tag_195\n      jump\t// in\n    tag_275:\n        /* \"#utility.yul\":2505:2576   */\n      tag_276\n        /* \"#utility.yul\":2569:2575   */\n      dup2\n        /* \"#utility.yul\":2564:2567   */\n      dup6\n        /* \"#utility.yul\":2505:2576   */\n      tag_196\n      jump\t// in\n    tag_276:\n        /* \"#utility.yul\":2498:2576   */\n      swap4\n      pop\n        /* \"#utility.yul\":2585:2650   */\n      tag_277\n        /* \"#utility.yul\":2643:2649   */\n      dup2\n        /* \"#utility.yul\":2638:2641   */\n      dup6\n        /* \"#utility.yul\":2631:2635   */\n      0x20\n        /* \"#utility.yul\":2624:2629   */\n      dup7\n        /* \"#utility.yul\":2620:2636   */\n      add\n        /* \"#utility.yul\":2585:2650   */\n      tag_197\n      jump\t// in\n    tag_277:\n        /* \"#utility.yul\":2675:2704   */\n      tag_278\n        /* \"#utility.yul\":2697:2703   */\n      dup2\n        /* \"#utility.yul\":2675:2704   */\n      tag_198\n      jump\t// in\n    tag_278:\n        /* \"#utility.yul\":2670:2673   */\n      dup5\n        /* \"#utility.yul\":2666:2705   */\n      add\n        /* \"#utility.yul\":2659:2705   */\n      swap2\n      pop\n        /* \"#utility.yul\":2426:2711   */\n      pop\n        /* \"#utility.yul\":2334:2711   */\n      swap3\n      swap2\n      pop\n      pop\n      jump\t// out\n        /* \"#utility.yul\":2717:2835   */\n    tag_200:\n        /* \"#utility.yul\":2804:2828   */\n      tag_280\n        /* \"#utility.yul\":2822:2827   */\n      dup2\n        /* \"#utility.yul\":2804:2828   */\n      tag_188\n      jump\t// in\n    tag_280:\n        /* \"#utility.yul\":2799:2802   */\n      dup3\n        /* \"#utility.yul\":2792:2829   */\n      mstore\n        /* \"#utility.yul\":2717:2835   */\n      pop\n      pop\n      jump\t// out\n        /* \"#utility.yul\":2841:3596   */\n    tag_27:\n        /* \"#utility.yul\":3066:3070   */\n      0x00\n        /* \"#utility.yul\":3104:3107   */\n      0xa0\n        /* \"#utility.yul\":3093:3102   */\n      dup3\n        /* \"#utility.yul\":3089:3108   */\n      add\n        /* \"#utility.yul\":3081:3108   */\n      swap1\n      pop\n        /* \"#utility.yul\":3118:3189   */\n      tag_282\n        /* \"#utility.yul\":3186:3187   */\n      0x00\n        /* \"#utility.yul\":3175:3184   */\n      dup4\n        /* \"#utility.yul\":3171:3188   */\n      add\n        /* \"#utility.yul\":3162:3168   */\n      dup9\n        /* \"#utility.yul\":3118:3189   */\n      tag_194\n      jump\t// in\n    tag_282:\n        /* \"#utility.yul\":3236:3245   */\n      dup2\n        /* \"#utility.yul\":3230:3234   */\n      dup2\n        /* \"#utility.yul\":3226:3246   */\n      sub\n        /* \"#utility.yul\":3221:3223   */\n      0x20\n        /* \"#utility.yul\":3210:3219   */\n      dup4\n        /* \"#utility.yul\":3206:3224   */\n      add\n        /* \"#utility.yul\":3199:3247   */\n      mstore\n        /* \"#utility.yul\":3264:3342   */\n      tag_283\n        /* \"#utility.yul\":3337:3341   */\n      dup2\n        /* \"#utility.yul\":3328:3334   */\n      dup8\n        /* \"#utility.yul\":3264:3342   */\n      tag_199\n      jump\t// in\n    tag_283:\n        /* \"#utility.yul\":3256:3342   */\n      swap1\n      pop\n        /* \"#utility.yul\":3352:3424   */\n      tag_284\n        /* \"#utility.yul\":3420:3422   */\n      0x40\n        /* \"#utility.yul\":3409:3418   */\n      dup4\n        /* \"#utility.yul\":3405:3423   */\n      add\n        /* \"#utility.yul\":3396:3402   */\n      dup7\n        /* \"#utility.yul\":3352:3424   */\n      tag_200\n      jump\t// in\n    tag_284:\n        /* \"#utility.yul\":3434:3506   */\n      tag_285\n        /* \"#utility.yul\":3502:3504   */\n      0x60\n        /* \"#utility.yul\":3491:3500   */\n      dup4\n        /* \"#utility.yul\":3487:3505   */\n      add\n        /* \"#utility.yul\":3478:3484   */\n      dup6\n        /* \"#utility.yul\":3434:3506   */\n      tag_200\n      jump\t// in\n    tag_285:\n        /* \"#utility.yul\":3516:3589   */\n      tag_286\n        /* \"#utility.yul\":3584:3587   */\n      0x80\n        /* \"#utility.yul\":3573:3582   */\n      dup4\n        /* \"#utility.yul\":3569:3588   */\n      add\n        /* \"#utility.yul\":3560:3566   */\n      dup5\n        /* \"#utility.yul\":3516:3589   */\n      tag_194\n      jump\t// in\n    tag_286:\n        /* \"#utility.yul\":2841:3596   */\n      swap7\n      swap6\n      pop\n      pop\n      pop\n      pop\n      pop\n      pop\n      jump\t// out\n        /* \"#utility.yul\":3602:3737   */\n    tag_201:\n        /* \"#utility.yul\":3690:3696   */\n      0x00\n        /* \"#utility.yul\":3724:3729   */\n      dup2\n        /* \"#utility.yul\":3718:3730   */\n      mload\n        /* \"#utility.yul\":3708:3730   */\n      swap1\n      pop\n        /* \"#utility.yul\":3602:3737   */\n      swap2\n      swap1\n      pop\n      jump\t// out\n        /* \"#utility.yul\":3743:3948   */\n    tag_202:\n        /* \"#utility.yul\":3863:3874   */\n      0x00\n        /* \"#utility.yul\":3897:3903   */\n      dup3\n        /* \"#utility.yul\":3892:3895   */\n      dup3\n        /* \"#utility.yul\":3885:3904   */\n      mstore\n        /* \"#utility.yul\":3937:3941   */\n      0x20\n        /* \"#utility.yul\":3932:3935   */\n      dup3\n        /* \"#utility.yul\":3928:3942   */\n      add\n        /* \"#utility.yul\":3913:3942   */\n      swap1\n      pop\n        /* \"#utility.yul\":3743:3948   */\n      swap3\n      swap2\n      pop\n      pop\n      jump\t// out\n        /* \"#utility.yul\":3954:4107   */\n    tag_203:\n        /* \"#utility.yul\":4042:4046   */\n      0x00\n        /* \"#utility.yul\":4065:4068   */\n      dup2\n        /* \"#utility.yul\":4057:4068   */\n      swap1\n      pop\n        /* \"#utility.yul\":4095:4099   */\n      0x20\n        /* \"#utility.yul\":4090:4093   */\n      dup3\n        /* \"#utility.yul\":4086:4100   */\n      add\n        /* \"#utility.yul\":4078:4100   */\n      swap1\n      pop\n        /* \"#utility.yul\":3954:4107   */\n      swap2\n      swap1\n      pop\n      jump\t// out\n        /* \"#utility.yul\":4113:4221   */\n    tag_204:\n        /* \"#utility.yul\":4190:4214   */\n      tag_291\n        /* \"#utility.yul\":4208:4213   */\n      dup2\n        /* \"#utility.yul\":4190:4214   */\n      tag_191\n      jump\t// in\n    tag_291:\n        /* \"#utility.yul\":4185:4188   */\n      dup3\n        /* \"#utility.yul\":4178:4215   */\n      mstore\n        /* \"#utility.yul\":4113:4221   */\n      pop\n      pop\n      jump\t// out\n        /* \"#utility.yul\":4227:4335   */\n    tag_205:\n        /* \"#utility.yul\":4304:4328   */\n      tag_293\n        /* \"#utility.yul\":4322:4327   */\n      dup2\n        /* \"#utility.yul\":4304:4328   */\n      tag_188\n      jump\t// in\n    tag_293:\n        /* \"#utility.yul\":4299:4302   */\n      dup3\n        /* \"#utility.yul\":4292:4329   */\n      mstore\n        /* \"#utility.yul\":4227:4335   */\n      pop\n      pop\n      jump\t// out\n        /* \"#utility.yul\":4341:4500   */\n    tag_206:\n        /* \"#utility.yul\":4415:4426   */\n      0x00\n        /* \"#utility.yul\":4449:4455   */\n      dup3\n        /* \"#utility.yul\":4444:4447   */\n      dup3\n        /* \"#utility.yul\":4437:4456   */\n      mstore\n        /* \"#utility.yul\":4489:4493   */\n      0x20\n        /* \"#utility.yul\":4484:4487   */\n      dup3\n        /* \"#utility.yul\":4480:4494   */\n      add\n        /* \"#utility.yul\":4465:4494   */\n      swap1\n      pop\n        /* \"#utility.yul\":4341:4500   */\n      swap3\n      swap2\n      pop\n      pop\n      jump\t// out\n        /* \"#utility.yul\":4506:4863   */\n    tag_207:\n        /* \"#utility.yul\":4584:4587   */\n      0x00\n        /* \"#utility.yul\":4612:4651   */\n      tag_296\n        /* \"#utility.yul\":4645:4650   */\n      dup3\n        /* \"#utility.yul\":4612:4651   */\n      tag_195\n      jump\t// in\n    tag_296:\n        /* \"#utility.yul\":4667:4728   */\n      tag_297\n        /* \"#utility.yul\":4721:4727   */\n      dup2\n        /* \"#utility.yul\":4716:4719   */\n      dup6\n        /* \"#utility.yul\":4667:4728   */\n      tag_206\n      jump\t// in\n    tag_297:\n        /* \"#utility.yul\":4660:4728   */\n      swap4\n      pop\n        /* \"#utility.yul\":4737:4802   */\n      tag_298\n        /* \"#utility.yul\":4795:4801   */\n      dup2\n        /* \"#utility.yul\":4790:4793   */\n      dup6\n        /* \"#utility.yul\":4783:4787   */\n      0x20\n        /* \"#utility.yul\":4776:4781   */\n      dup7\n        /* \"#utility.yul\":4772:4788   */\n      add\n        /* \"#utility.yul\":4737:4802   */\n      tag_197\n      jump\t// in\n    tag_298:\n        /* \"#utility.yul\":4827:4856   */\n      tag_299\n        /* \"#utility.yul\":4849:4855   */\n      dup2\n        /* \"#utility.yul\":4827:4856   */\n      tag_198\n      jump\t// in\n    tag_299:\n        /* \"#utility.yul\":4822:4825   */\n      dup5\n        /* \"#utility.yul\":4818:4857   */\n      add\n        /* \"#utility.yul\":4811:4857   */\n      swap2\n      pop\n        /* \"#utility.yul\":4588:4863   */\n      pop\n        /* \"#utility.yul\":4506:4863   */\n      swap3\n      swap2\n      pop\n      pop\n      jump\t// out\n        /* \"#utility.yul\":4921:5866   */\n    tag_208:\n        /* \"#utility.yul\":5022:5025   */\n      0x00\n        /* \"#utility.yul\":5058:5062   */\n      0x80\n        /* \"#utility.yul\":5053:5056   */\n      dup4\n        /* \"#utility.yul\":5049:5063   */\n      add\n        /* \"#utility.yul\":5143:5147   */\n      0x00\n        /* \"#utility.yul\":5136:5141   */\n      dup4\n        /* \"#utility.yul\":5132:5148   */\n      add\n        /* \"#utility.yul\":5126:5149   */\n      mload\n        /* \"#utility.yul\":5162:5225   */\n      tag_301\n        /* \"#utility.yul\":5219:5223   */\n      0x00\n        /* \"#utility.yul\":5214:5217   */\n      dup7\n        /* \"#utility.yul\":5210:5224   */\n      add\n        /* \"#utility.yul\":5196:5208   */\n      dup3\n        /* \"#utility.yul\":5162:5225   */\n      tag_204\n      jump\t// in\n    tag_301:\n        /* \"#utility.yul\":5073:5235   */\n      pop\n        /* \"#utility.yul\":5320:5324   */\n      0x20\n        /* \"#utility.yul\":5313:5318   */\n      dup4\n        /* \"#utility.yul\":5309:5325   */\n      add\n        /* \"#utility.yul\":5303:5326   */\n      mload\n        /* \"#utility.yul\":5339:5402   */\n      tag_302\n        /* \"#utility.yul\":5396:5400   */\n      0x20\n        /* \"#utility.yul\":5391:5394   */\n      dup7\n        /* \"#utility.yul\":5387:5401   */\n      add\n        /* \"#utility.yul\":5373:5385   */\n      dup3\n        /* \"#utility.yul\":5339:5402   */\n      tag_205\n      jump\t// in\n    tag_302:\n        /* \"#utility.yul\":5245:5412   */\n      pop\n        /* \"#utility.yul\":5497:5501   */\n      0x40\n        /* \"#utility.yul\":5490:5495   */\n      dup4\n        /* \"#utility.yul\":5486:5502   */\n      add\n        /* \"#utility.yul\":5480:5503   */\n      mload\n        /* \"#utility.yul\":5550:5553   */\n      dup5\n        /* \"#utility.yul\":5544:5548   */\n      dup3\n        /* \"#utility.yul\":5540:5554   */\n      sub\n        /* \"#utility.yul\":5533:5537   */\n      0x40\n        /* \"#utility.yul\":5528:5531   */\n      dup7\n        /* \"#utility.yul\":5524:5538   */\n      add\n        /* \"#utility.yul\":5517:5555   */\n      mstore\n        /* \"#utility.yul\":5576:5649   */\n      tag_303\n        /* \"#utility.yul\":5644:5648   */\n      dup3\n        /* \"#utility.yul\":5630:5642   */\n      dup3\n        /* \"#utility.yul\":5576:5649   */\n      tag_207\n      jump\t// in\n    tag_303:\n        /* \"#utility.yul\":5568:5649   */\n      swap2\n      pop\n        /* \"#utility.yul\":5422:5660   */\n      pop\n        /* \"#utility.yul\":5747:5751   */\n      0x60\n        /* \"#utility.yul\":5740:5745   */\n      dup4\n        /* \"#utility.yul\":5736:5752   */\n      add\n        /* \"#utility.yul\":5730:5753   */\n      mload\n        /* \"#utility.yul\":5766:5829   */\n      tag_304\n        /* \"#utility.yul\":5823:5827   */\n      0x60\n        /* \"#utility.yul\":5818:5821   */\n      dup7\n        /* \"#utility.yul\":5814:5828   */\n      add\n        /* \"#utility.yul\":5800:5812   */\n      dup3\n        /* \"#utility.yul\":5766:5829   */\n      tag_204\n      jump\t// in\n    tag_304:\n        /* \"#utility.yul\":5670:5839   */\n      pop\n        /* \"#utility.yul\":5856:5860   */\n      dup1\n        /* \"#utility.yul\":5849:5860   */\n      swap2\n      pop\n        /* \"#utility.yul\":5027:5866   */\n      pop\n        /* \"#utility.yul\":4921:5866   */\n      swap3\n      swap2\n      pop\n      pop\n      jump\t// out\n        /* \"#utility.yul\":5872:6112   */\n    tag_209:\n        /* \"#utility.yul\":5983:5993   */\n      0x00\n        /* \"#utility.yul\":6018:6106   */\n      tag_306\n        /* \"#utility.yul\":6102:6105   */\n      dup4\n        /* \"#utility.yul\":6094:6100   */\n      dup4\n        /* \"#utility.yul\":6018:6106   */\n      tag_208\n      jump\t// in\n    tag_306:\n        /* \"#utility.yul\":6004:6106   */\n      swap1\n      pop\n        /* \"#utility.yul\":5872:6112   */\n      swap3\n      swap2\n      pop\n      pop\n      jump\t// out\n        /* \"#utility.yul\":6118:6252   */\n    tag_210:\n        /* \"#utility.yul\":6209:6213   */\n      0x00\n        /* \"#utility.yul\":6241:6245   */\n      0x20\n        /* \"#utility.yul\":6236:6239   */\n      dup3\n        /* \"#utility.yul\":6232:6246   */\n      add\n        /* \"#utility.yul\":6224:6246   */\n      swap1\n      pop\n        /* \"#utility.yul\":6118:6252   */\n      swap2\n      swap1\n      pop\n      jump\t// out\n        /* \"#utility.yul\":6314:7393   */\n    tag_211:\n        /* \"#utility.yul\":6475:6478   */\n      0x00\n        /* \"#utility.yul\":6504:6579   */\n      tag_309\n        /* \"#utility.yul\":6573:6578   */\n      dup3\n        /* \"#utility.yul\":6504:6579   */\n      tag_201\n      jump\t// in\n    tag_309:\n        /* \"#utility.yul\":6595:6702   */\n      tag_310\n        /* \"#utility.yul\":6695:6701   */\n      dup2\n        /* \"#utility.yul\":6690:6693   */\n      dup6\n        /* \"#utility.yul\":6595:6702   */\n      tag_202\n      jump\t// in\n    tag_310:\n        /* \"#utility.yul\":6588:6702   */\n      swap4\n      pop\n        /* \"#utility.yul\":6728:6731   */\n      dup4\n        /* \"#utility.yul\":6773:6777   */\n      0x20\n        /* \"#utility.yul\":6765:6771   */\n      dup3\n        /* \"#utility.yul\":6761:6778   */\n      mul\n        /* \"#utility.yul\":6756:6759   */\n      dup6\n        /* \"#utility.yul\":6752:6779   */\n      add\n        /* \"#utility.yul\":6803:6880   */\n      tag_311\n        /* \"#utility.yul\":6874:6879   */\n      dup6\n        /* \"#utility.yul\":6803:6880   */\n      tag_203\n      jump\t// in\n    tag_311:\n        /* \"#utility.yul\":6903:6910   */\n      dup1\n        /* \"#utility.yul\":6934:6935   */\n      0x00\n        /* \"#utility.yul\":6919:7348   */\n    tag_312:\n        /* \"#utility.yul\":6944:6950   */\n      dup6\n        /* \"#utility.yul\":6941:6942   */\n      dup2\n        /* \"#utility.yul\":6938:6951   */\n      lt\n        /* \"#utility.yul\":6919:7348   */\n      iszero\n      tag_314\n      jumpi\n        /* \"#utility.yul\":7015:7024   */\n      dup5\n        /* \"#utility.yul\":7009:7013   */\n      dup5\n        /* \"#utility.yul\":7005:7025   */\n      sub\n        /* \"#utility.yul\":7000:7003   */\n      dup10\n        /* \"#utility.yul\":6993:7026   */\n      mstore\n        /* \"#utility.yul\":7066:7072   */\n      dup2\n        /* \"#utility.yul\":7060:7073   */\n      mload\n        /* \"#utility.yul\":7094:7200   */\n      tag_315\n        /* \"#utility.yul\":7195:7199   */\n      dup6\n        /* \"#utility.yul\":7180:7193   */\n      dup3\n        /* \"#utility.yul\":7094:7200   */\n      tag_209\n      jump\t// in\n    tag_315:\n        /* \"#utility.yul\":7086:7200   */\n      swap5\n      pop\n        /* \"#utility.yul\":7223:7304   */\n      tag_316\n        /* \"#utility.yul\":7297:7303   */\n      dup4\n        /* \"#utility.yul\":7223:7304   */\n      tag_210\n      jump\t// in\n    tag_316:\n        /* \"#utility.yul\":7213:7304   */\n      swap3\n      pop\n        /* \"#utility.yul\":7333:7337   */\n      0x20\n        /* \"#utility.yul\":7328:7331   */\n      dup11\n        /* \"#utility.yul\":7324:7338   */\n      add\n        /* \"#utility.yul\":7317:7338   */\n      swap10\n      pop\n        /* \"#utility.yul\":6979:7348   */\n      pop\n        /* \"#utility.yul\":6966:6967   */\n      0x01\n        /* \"#utility.yul\":6963:6964   */\n      dup2\n        /* \"#utility.yul\":6959:6968   */\n      add\n        /* \"#utility.yul\":6954:6968   */\n      swap1\n      pop\n        /* \"#utility.yul\":6919:7348   */\n      jump(tag_312)\n    tag_314:\n        /* \"#utility.yul\":6923:6937   */\n      pop\n        /* \"#utility.yul\":7364:7368   */\n      dup3\n        /* \"#utility.yul\":7357:7368   */\n      swap8\n      pop\n        /* \"#utility.yul\":7384:7387   */\n      dup8\n        /* \"#utility.yul\":7377:7387   */\n      swap6\n      pop\n        /* \"#utility.yul\":6480:7393   */\n      pop\n      pop\n      pop\n      pop\n      pop\n        /* \"#utility.yul\":6314:7393   */\n      swap3\n      swap2\n      pop\n      pop\n      jump\t// out\n        /* \"#utility.yul\":7399:7856   */\n    tag_32:\n        /* \"#utility.yul\":7584:7588   */\n      0x00\n        /* \"#utility.yul\":7622:7624   */\n      0x20\n        /* \"#utility.yul\":7611:7620   */\n      dup3\n        /* \"#utility.yul\":7607:7625   */\n      add\n        /* \"#utility.yul\":7599:7625   */\n      swap1\n      pop\n        /* \"#utility.yul\":7671:7680   */\n      dup2\n        /* \"#utility.yul\":7665:7669   */\n      dup2\n        /* \"#utility.yul\":7661:7681   */\n      sub\n        /* \"#utility.yul\":7657:7658   */\n      0x00\n        /* \"#utility.yul\":7646:7655   */\n      dup4\n        /* \"#utility.yul\":7642:7659   */\n      add\n        /* \"#utility.yul\":7635:7682   */\n      mstore\n        /* \"#utility.yul\":7699:7849   */\n      tag_318\n        /* \"#utility.yul\":7844:7848   */\n      dup2\n        /* \"#utility.yul\":7835:7841   */\n      dup5\n        /* \"#utility.yul\":7699:7849   */\n      tag_211\n      jump\t// in\n    tag_318:\n        /* \"#utility.yul\":7691:7849   */\n      swap1\n      pop\n        /* \"#utility.yul\":7399:7856   */\n      swap3\n      swap2\n      pop\n      pop\n      jump\t// out\n        /* \"#utility.yul\":7862:8191   */\n    tag_35:\n        /* \"#utility.yul\":7921:7927   */\n      0x00\n        /* \"#utility.yul\":7970:7972   */\n      0x20\n        /* \"#utility.yul\":7958:7967   */\n      dup3\n        /* \"#utility.yul\":7949:7956   */\n      dup5\n        /* \"#utility.yul\":7945:7968   */\n      sub\n        /* \"#utility.yul\":7941:7973   */\n      slt\n        /* \"#utility.yul\":7938:8057   */\n      iszero\n      tag_320\n      jumpi\n        /* \"#utility.yul\":7976:8055   */\n      tag_321\n      tag_185\n      jump\t// in\n    tag_321:\n        /* \"#utility.yul\":7938:8057   */\n    tag_320:\n        /* \"#utility.yul\":8096:8097   */\n      0x00\n        /* \"#utility.yul\":8121:8174   */\n      tag_322\n        /* \"#utility.yul\":8166:8173   */\n      dup5\n        /* \"#utility.yul\":8157:8163   */\n      dup3\n        /* \"#utility.yul\":8146:8155   */\n      dup6\n        /* \"#utility.yul\":8142:8164   */\n      add\n        /* \"#utility.yul\":8121:8174   */\n      tag_190\n      jump\t// in\n    tag_322:\n        /* \"#utility.yul\":8111:8174   */\n      swap2\n      pop\n        /* \"#utility.yul\":8067:8184   */\n      pop\n        /* \"#utility.yul\":7862:8191   */\n      swap3\n      swap2\n      pop\n      pop\n      jump\t// out\n        /* \"#utility.yul\":8197:8526   */\n    tag_39:\n        /* \"#utility.yul\":8256:8262   */\n      0x00\n        /* \"#utility.yul\":8305:8307   */\n      0x20\n        /* \"#utility.yul\":8293:8302   */\n      dup3\n        /* \"#utility.yul\":8284:8291   */\n      dup5\n        /* \"#utility.yul\":8280:8303   */\n      sub\n        /* \"#utility.yul\":8276:8308   */\n      slt\n        /* \"#utility.yul\":8273:8392   */\n      iszero\n      tag_324\n      jumpi\n        /* \"#utility.yul\":8311:8390   */\n      tag_325\n      tag_185\n      jump\t// in\n    tag_325:\n        /* \"#utility.yul\":8273:8392   */\n    tag_324:\n        /* \"#utility.yul\":8431:8432   */\n      0x00\n        /* \"#utility.yul\":8456:8509   */\n      tag_326\n        /* \"#utility.yul\":8501:8508   */\n      dup5\n        /* \"#utility.yul\":8492:8498   */\n      dup3\n        /* \"#utility.yul\":8481:8490   */\n      dup6\n        /* \"#utility.yul\":8477:8499   */\n      add\n        /* \"#utility.yul\":8456:8509   */\n      tag_193\n      jump\t// in\n    tag_326:\n        /* \"#utility.yul\":8446:8509   */\n      swap2\n      pop\n        /* \"#utility.yul\":8402:8519   */\n      pop\n        /* \"#utility.yul\":8197:8526   */\n      swap3\n      swap2\n      pop\n      pop\n      jump\t// out\n        /* \"#utility.yul\":8532:8649   */\n    tag_212:\n        /* \"#utility.yul\":8641:8642   */\n      0x00\n        /* \"#utility.yul\":8638:8639   */\n      dup1\n        /* \"#utility.yul\":8631:8643   */\n      revert\n        /* \"#utility.yul\":8655:8772   */\n    tag_213:\n        /* \"#utility.yul\":8764:8765   */\n      0x00\n        /* \"#utility.yul\":8761:8762   */\n      dup1\n        /* \"#utility.yul\":8754:8766   */\n      revert\n        /* \"#utility.yul\":8778:8958   */\n    tag_105:\n        /* \"#utility.yul\":8826:8903   */\n      0x4e487b7100000000000000000000000000000000000000000000000000000000\n        /* \"#utility.yul\":8823:8824   */\n      0x00\n        /* \"#utility.yul\":8816:8904   */\n      mstore\n        /* \"#utility.yul\":8923:8927   */\n      0x41\n        /* \"#utility.yul\":8920:8921   */\n      0x04\n        /* \"#utility.yul\":8913:8928   */\n      mstore\n        /* \"#utility.yul\":8947:8951   */\n      0x24\n        /* \"#utility.yul\":8944:8945   */\n      0x00\n        /* \"#utility.yul\":8937:8952   */\n      revert\n        /* \"#utility.yul\":8964:9245   */\n    tag_214:\n        /* \"#utility.yul\":9047:9074   */\n      tag_331\n        /* \"#utility.yul\":9069:9073   */\n      dup3\n        /* \"#utility.yul\":9047:9074   */\n      tag_198\n      jump\t// in\n    tag_331:\n        /* \"#utility.yul\":9039:9045   */\n      dup2\n        /* \"#utility.yul\":9035:9075   */\n      add\n        /* \"#utility.yul\":9177:9183   */\n      dup2\n        /* \"#utility.yul\":9165:9175   */\n      dup2\n        /* \"#utility.yul\":9162:9184   */\n      lt\n        /* \"#utility.yul\":9141:9159   */\n      0xffffffffffffffff\n        /* \"#utility.yul\":9129:9139   */\n      dup3\n        /* \"#utility.yul\":9126:9160   */\n      gt\n        /* \"#utility.yul\":9123:9185   */\n      or\n        /* \"#utility.yul\":9120:9208   */\n      iszero\n      tag_332\n      jumpi\n        /* \"#utility.yul\":9188:9206   */\n      tag_333\n      tag_105\n      jump\t// in\n    tag_333:\n        /* \"#utility.yul\":9120:9208   */\n    tag_332:\n        /* \"#utility.yul\":9228:9238   */\n      dup1\n        /* \"#utility.yul\":9224:9226   */\n      0x40\n        /* \"#utility.yul\":9217:9239   */\n      mstore\n        /* \"#utility.yul\":9007:9245   */\n      pop\n        /* \"#utility.yul\":8964:9245   */\n      pop\n      pop\n      jump\t// out\n        /* \"#utility.yul\":9251:9380   */\n    tag_215:\n        /* \"#utility.yul\":9285:9291   */\n      0x00\n        /* \"#utility.yul\":9312:9332   */\n      tag_335\n      tag_184\n      jump\t// in\n    tag_335:\n        /* \"#utility.yul\":9302:9332   */\n      swap1\n      pop\n        /* \"#utility.yul\":9341:9374   */\n      tag_336\n        /* \"#utility.yul\":9369:9373   */\n      dup3\n        /* \"#utility.yul\":9361:9367   */\n      dup3\n        /* \"#utility.yul\":9341:9374   */\n      tag_214\n      jump\t// in\n    tag_336:\n        /* \"#utility.yul\":9251:9380   */\n      swap2\n      swap1\n      pop\n      jump\t// out\n        /* \"#utility.yul\":9386:9694   */\n    tag_216:\n        /* \"#utility.yul\":9448:9452   */\n      0x00\n        /* \"#utility.yul\":9538:9556   */\n      0xffffffffffffffff\n        /* \"#utility.yul\":9530:9536   */\n      dup3\n        /* \"#utility.yul\":9527:9557   */\n      gt\n        /* \"#utility.yul\":9524:9580   */\n      iszero\n      tag_338\n      jumpi\n        /* \"#utility.yul\":9560:9578   */\n      tag_339\n      tag_105\n      jump\t// in\n    tag_339:\n        /* \"#utility.yul\":9524:9580   */\n    tag_338:\n        /* \"#utility.yul\":9598:9627   */\n      tag_340\n        /* \"#utility.yul\":9620:9626   */\n      dup3\n        /* \"#utility.yul\":9598:9627   */\n      tag_198\n      jump\t// in\n    tag_340:\n        /* \"#utility.yul\":9590:9627   */\n      swap1\n      pop\n        /* \"#utility.yul\":9682:9686   */\n      0x20\n        /* \"#utility.yul\":9676:9680   */\n      dup2\n        /* \"#utility.yul\":9672:9687   */\n      add\n        /* \"#utility.yul\":9664:9687   */\n      swap1\n      pop\n        /* \"#utility.yul\":9386:9694   */\n      swap2\n      swap1\n      pop\n      jump\t// out\n        /* \"#utility.yul\":9700:9848   */\n    tag_217:\n        /* \"#utility.yul\":9798:9804   */\n      dup3\n        /* \"#utility.yul\":9793:9796   */\n      dup2\n        /* \"#utility.yul\":9788:9791   */\n      dup4\n        /* \"#utility.yul\":9775:9805   */\n      calldatacopy\n        /* \"#utility.yul\":9839:9840   */\n      0x00\n        /* \"#utility.yul\":9830:9836   */\n      dup4\n        /* \"#utility.yul\":9825:9828   */\n      dup4\n        /* \"#utility.yul\":9821:9837   */\n      add\n        /* \"#utility.yul\":9814:9841   */\n      mstore\n        /* \"#utility.yul\":9700:9848   */\n      pop\n      pop\n      pop\n      jump\t// out\n        /* \"#utility.yul\":9854:10279   */\n    tag_218:\n        /* \"#utility.yul\":9932:9937   */\n      0x00\n        /* \"#utility.yul\":9957:10023   */\n      tag_343\n        /* \"#utility.yul\":9973:10022   */\n      tag_344\n        /* \"#utility.yul\":10015:10021   */\n      dup5\n        /* \"#utility.yul\":9973:10022   */\n      tag_216\n      jump\t// in\n    tag_344:\n        /* \"#utility.yul\":9957:10023   */\n      tag_215\n      jump\t// in\n    tag_343:\n        /* \"#utility.yul\":9948:10023   */\n      swap1\n      pop\n        /* \"#utility.yul\":10046:10052   */\n      dup3\n        /* \"#utility.yul\":10039:10044   */\n      dup2\n        /* \"#utility.yul\":10032:10053   */\n      mstore\n        /* \"#utility.yul\":10084:10088   */\n      0x20\n        /* \"#utility.yul\":10077:10082   */\n      dup2\n        /* \"#utility.yul\":10073:10089   */\n      add\n        /* \"#utility.yul\":10122:10125   */\n      dup5\n        /* \"#utility.yul\":10113:10119   */\n      dup5\n        /* \"#utility.yul\":10108:10111   */\n      dup5\n        /* \"#utility.yul\":10104:10120   */\n      add\n        /* \"#utility.yul\":10101:10126   */\n      gt\n        /* \"#utility.yul\":10098:10210   */\n      iszero\n      tag_345\n      jumpi\n        /* \"#utility.yul\":10129:10208   */\n      tag_346\n      tag_213\n      jump\t// in\n    tag_346:\n        /* \"#utility.yul\":10098:10210   */\n    tag_345:\n        /* \"#utility.yul\":10219:10273   */\n      tag_347\n        /* \"#utility.yul\":10266:10272   */\n      dup5\n        /* \"#utility.yul\":10261:10264   */\n      dup3\n        /* \"#utility.yul\":10256:10259   */\n      dup6\n        /* \"#utility.yul\":10219:10273   */\n      tag_217\n      jump\t// in\n    tag_347:\n        /* \"#utility.yul\":9938:10279   */\n      pop\n        /* \"#utility.yul\":9854:10279   */\n      swap4\n      swap3\n      pop\n      pop\n      pop\n      jump\t// out\n        /* \"#utility.yul\":10299:10639   */\n    tag_219:\n        /* \"#utility.yul\":10355:10360   */\n      0x00\n        /* \"#utility.yul\":10404:10407   */\n      dup3\n        /* \"#utility.yul\":10397:10401   */\n      0x1f\n        /* \"#utility.yul\":10389:10395   */\n      dup4\n        /* \"#utility.yul\":10385:10402   */\n      add\n        /* \"#utility.yul\":10381:10408   */\n      slt\n        /* \"#utility.yul\":10371:10493   */\n      tag_349\n      jumpi\n        /* \"#utility.yul\":10412:10491   */\n      tag_350\n      tag_212\n      jump\t// in\n    tag_350:\n        /* \"#utility.yul\":10371:10493   */\n    tag_349:\n        /* \"#utility.yul\":10529:10535   */\n      dup2\n        /* \"#utility.yul\":10516:10536   */\n      calldataload\n        /* \"#utility.yul\":10554:10633   */\n      tag_351\n        /* \"#utility.yul\":10629:10632   */\n      dup5\n        /* \"#utility.yul\":10621:10627   */\n      dup3\n        /* \"#utility.yul\":10614:10618   */\n      0x20\n        /* \"#utility.yul\":10606:10612   */\n      dup7\n        /* \"#utility.yul\":10602:10619   */\n      add\n        /* \"#utility.yul\":10554:10633   */\n      tag_218\n      jump\t// in\n    tag_351:\n        /* \"#utility.yul\":10545:10633   */\n      swap2\n      pop\n        /* \"#utility.yul\":10361:10639   */\n      pop\n        /* \"#utility.yul\":10299:10639   */\n      swap3\n      swap2\n      pop\n      pop\n      jump\t// out\n        /* \"#utility.yul\":10645:11299   */\n    tag_44:\n        /* \"#utility.yul\":10723:10729   */\n      0x00\n        /* \"#utility.yul\":10731:10737   */\n      dup1\n        /* \"#utility.yul\":10780:10782   */\n      0x40\n        /* \"#utility.yul\":10768:10777   */\n      dup4\n        /* \"#utility.yul\":10759:10766   */\n      dup6\n        /* \"#utility.yul\":10755:10778   */\n      sub\n        /* \"#utility.yul\":10751:10783   */\n      slt\n        /* \"#utility.yul\":10748:10867   */\n      iszero\n      tag_353\n      jumpi\n        /* \"#utility.yul\":10786:10865   */\n      tag_354\n      tag_185\n      jump\t// in\n    tag_354:\n        /* \"#utility.yul\":10748:10867   */\n    tag_353:\n        /* \"#utility.yul\":10906:10907   */\n      0x00\n        /* \"#utility.yul\":10931:10984   */\n      tag_355\n        /* \"#utility.yul\":10976:10983   */\n      dup6\n        /* \"#utility.yul\":10967:10973   */\n      dup3\n        /* \"#utility.yul\":10956:10965   */\n      dup7\n        /* \"#utility.yul\":10952:10974   */\n      add\n        /* \"#utility.yul\":10931:10984   */\n      tag_190\n      jump\t// in\n    tag_355:\n        /* \"#utility.yul\":10921:10984   */\n      swap3\n      pop\n        /* \"#utility.yul\":10877:10994   */\n      pop\n        /* \"#utility.yul\":11061:11063   */\n      0x20\n        /* \"#utility.yul\":11050:11059   */\n      dup4\n        /* \"#utility.yul\":11046:11064   */\n      add\n        /* \"#utility.yul\":11033:11065   */\n      calldataload\n        /* \"#utility.yul\":11092:11110   */\n      0xffffffffffffffff\n        /* \"#utility.yul\":11084:11090   */\n      dup2\n        /* \"#utility.yul\":11081:11111   */\n      gt\n        /* \"#utility.yul\":11078:11195   */\n      iszero\n      tag_356\n      jumpi\n        /* \"#utility.yul\":11114:11193   */\n      tag_357\n      tag_186\n      jump\t// in\n    tag_357:\n        /* \"#utility.yul\":11078:11195   */\n    tag_356:\n        /* \"#utility.yul\":11219:11282   */\n      tag_358\n        /* \"#utility.yul\":11274:11281   */\n      dup6\n        /* \"#utility.yul\":11265:11271   */\n      dup3\n        /* \"#utility.yul\":11254:11263   */\n      dup7\n        /* \"#utility.yul\":11250:11272   */\n      add\n        /* \"#utility.yul\":11219:11282   */\n      tag_219\n      jump\t// in\n    tag_358:\n        /* \"#utility.yul\":11209:11282   */\n      swap2\n      pop\n        /* \"#utility.yul\":11004:11292   */\n      pop\n        /* \"#utility.yul\":10645:11299   */\n      swap3\n      pop\n      swap3\n      swap1\n      pop\n      jump\t// out\n        /* \"#utility.yul\":11305:11527   */\n    tag_50:\n        /* \"#utility.yul\":11398:11402   */\n      0x00\n        /* \"#utility.yul\":11436:11438   */\n      0x20\n        /* \"#utility.yul\":11425:11434   */\n      dup3\n        /* \"#utility.yul\":11421:11439   */\n      add\n        /* \"#utility.yul\":11413:11439   */\n      swap1\n      pop\n        /* \"#utility.yul\":11449:11520   */\n      tag_360\n        /* \"#utility.yul\":11517:11518   */\n      0x00\n        /* \"#utility.yul\":11506:11515   */\n      dup4\n        /* \"#utility.yul\":11502:11519   */\n      add\n        /* \"#utility.yul\":11493:11499   */\n      dup5\n        /* \"#utility.yul\":11449:11520   */\n      tag_200\n      jump\t// in\n    tag_360:\n        /* \"#utility.yul\":11305:11527   */\n      swap3\n      swap2\n      pop\n      pop\n      jump\t// out\n        /* \"#utility.yul\":11533:11755   */\n    tag_55:\n        /* \"#utility.yul\":11626:11630   */\n      0x00\n        /* \"#utility.yul\":11664:11666   */\n      0x20\n        /* \"#utility.yul\":11653:11662   */\n      dup3\n        /* \"#utility.yul\":11649:11667   */\n      add\n        /* \"#utility.yul\":11641:11667   */\n      swap1\n      pop\n        /* \"#utility.yul\":11677:11748   */\n      tag_362\n        /* \"#utility.yul\":11745:11746   */\n      0x00\n        /* \"#utility.yul\":11734:11743   */\n      dup4\n        /* \"#utility.yul\":11730:11747   */\n      add\n        /* \"#utility.yul\":11721:11727   */\n      dup5\n        /* \"#utility.yul\":11677:11748   */\n      tag_194\n      jump\t// in\n    tag_362:\n        /* \"#utility.yul\":11533:11755   */\n      swap3\n      swap2\n      pop\n      pop\n      jump\t// out\n        /* \"#utility.yul\":11761:12560   */\n    tag_58:\n        /* \"#utility.yul\":11848:11854   */\n      0x00\n        /* \"#utility.yul\":11856:11862   */\n      dup1\n        /* \"#utility.yul\":11864:11870   */\n      0x00\n        /* \"#utility.yul\":11913:11915   */\n      0x60\n        /* \"#utility.yul\":11901:11910   */\n      dup5\n        /* \"#utility.yul\":11892:11899   */\n      dup7\n        /* \"#utility.yul\":11888:11911   */\n      sub\n        /* \"#utility.yul\":11884:11916   */\n      slt\n        /* \"#utility.yul\":11881:12000   */\n      iszero\n      tag_364\n      jumpi\n        /* \"#utility.yul\":11919:11998   */\n      tag_365\n      tag_185\n      jump\t// in\n    tag_365:\n        /* \"#utility.yul\":11881:12000   */\n    tag_364:\n        /* \"#utility.yul\":12039:12040   */\n      0x00\n        /* \"#utility.yul\":12064:12117   */\n      tag_366\n        /* \"#utility.yul\":12109:12116   */\n      dup7\n        /* \"#utility.yul\":12100:12106   */\n      dup3\n        /* \"#utility.yul\":12089:12098   */\n      dup8\n        /* \"#utility.yul\":12085:12107   */\n      add\n        /* \"#utility.yul\":12064:12117   */\n      tag_190\n      jump\t// in\n    tag_366:\n        /* \"#utility.yul\":12054:12117   */\n      swap4\n      pop\n        /* \"#utility.yul\":12010:12127   */\n      pop\n        /* \"#utility.yul\":12166:12168   */\n      0x20\n        /* \"#utility.yul\":12192:12245   */\n      tag_367\n        /* \"#utility.yul\":12237:12244   */\n      dup7\n        /* \"#utility.yul\":12228:12234   */\n      dup3\n        /* \"#utility.yul\":12217:12226   */\n      dup8\n        /* \"#utility.yul\":12213:12235   */\n      add\n        /* \"#utility.yul\":12192:12245   */\n      tag_190\n      jump\t// in\n    tag_367:\n        /* \"#utility.yul\":12182:12245   */\n      swap3\n      pop\n        /* \"#utility.yul\":12137:12255   */\n      pop\n        /* \"#utility.yul\":12322:12324   */\n      0x40\n        /* \"#utility.yul\":12311:12320   */\n      dup5\n        /* \"#utility.yul\":12307:12325   */\n      add\n        /* \"#utility.yul\":12294:12326   */\n      calldataload\n        /* \"#utility.yul\":12353:12371   */\n      0xffffffffffffffff\n        /* \"#utility.yul\":12345:12351   */\n      dup2\n        /* \"#utility.yul\":12342:12372   */\n      gt\n        /* \"#utility.yul\":12339:12456   */\n      iszero\n      tag_368\n      jumpi\n        /* \"#utility.yul\":12375:12454   */\n      tag_369\n      tag_186\n      jump\t// in\n    tag_369:\n        /* \"#utility.yul\":12339:12456   */\n    tag_368:\n        /* \"#utility.yul\":12480:12543   */\n      tag_370\n        /* \"#utility.yul\":12535:12542   */\n      dup7\n        /* \"#utility.yul\":12526:12532   */\n      dup3\n        /* \"#utility.yul\":12515:12524   */\n      dup8\n        /* \"#utility.yul\":12511:12533   */\n      add\n        /* \"#utility.yul\":12480:12543   */\n      tag_219\n      jump\t// in\n    tag_370:\n        /* \"#utility.yul\":12470:12543   */\n      swap2\n      pop\n        /* \"#utility.yul\":12265:12553   */\n      pop\n        /* \"#utility.yul\":11761:12560   */\n      swap3\n      pop\n      swap3\n      pop\n      swap3\n      jump\t// out\n        /* \"#utility.yul\":12566:13040   */\n    tag_71:\n        /* \"#utility.yul\":12634:12640   */\n      0x00\n        /* \"#utility.yul\":12642:12648   */\n      dup1\n        /* \"#utility.yul\":12691:12693   */\n      0x40\n        /* \"#utility.yul\":12679:12688   */\n      dup4\n        /* \"#utility.yul\":12670:12677   */\n      dup6\n        /* \"#utility.yul\":12666:12689   */\n      sub\n        /* \"#utility.yul\":12662:12694   */\n      slt\n        /* \"#utility.yul\":12659:12778   */\n      iszero\n      tag_372\n      jumpi\n        /* \"#utility.yul\":12697:12776   */\n      tag_373\n      tag_185\n      jump\t// in\n    tag_373:\n        /* \"#utility.yul\":12659:12778   */\n    tag_372:\n        /* \"#utility.yul\":12817:12818   */\n      0x00\n        /* \"#utility.yul\":12842:12895   */\n      tag_374\n        /* \"#utility.yul\":12887:12894   */\n      dup6\n        /* \"#utility.yul\":12878:12884   */\n      dup3\n        /* \"#utility.yul\":12867:12876   */\n      dup7\n        /* \"#utility.yul\":12863:12885   */\n      add\n        /* \"#utility.yul\":12842:12895   */\n      tag_190\n      jump\t// in\n    tag_374:\n        /* \"#utility.yul\":12832:12895   */\n      swap3\n      pop\n        /* \"#utility.yul\":12788:12905   */\n      pop\n        /* \"#utility.yul\":12944:12946   */\n      0x20\n        /* \"#utility.yul\":12970:13023   */\n      tag_375\n        /* \"#utility.yul\":13015:13022   */\n      dup6\n        /* \"#utility.yul\":13006:13012   */\n      dup3\n        /* \"#utility.yul\":12995:13004   */\n      dup7\n        /* \"#utility.yul\":12991:13013   */\n      add\n        /* \"#utility.yul\":12970:13023   */\n      tag_190\n      jump\t// in\n    tag_375:\n        /* \"#utility.yul\":12960:13023   */\n      swap2\n      pop\n        /* \"#utility.yul\":12915:13033   */\n      pop\n        /* \"#utility.yul\":12566:13040   */\n      swap3\n      pop\n      swap3\n      swap1\n      pop\n      jump\t// out\n        /* \"#utility.yul\":13046:13136   */\n    tag_220:\n        /* \"#utility.yul\":13080:13087   */\n      0x00\n        /* \"#utility.yul\":13123:13128   */\n      dup2\n        /* \"#utility.yul\":13116:13129   */\n      iszero\n        /* \"#utility.yul\":13109:13130   */\n      iszero\n        /* \"#utility.yul\":13098:13130   */\n      swap1\n      pop\n        /* \"#utility.yul\":13046:13136   */\n      swap2\n      swap1\n      pop\n      jump\t// out\n        /* \"#utility.yul\":13142:13251   */\n    tag_221:\n        /* \"#utility.yul\":13223:13244   */\n      tag_378\n        /* \"#utility.yul\":13238:13243   */\n      dup2\n        /* \"#utility.yul\":13223:13244   */\n      tag_220\n      jump\t// in\n    tag_378:\n        /* \"#utility.yul\":13218:13221   */\n      dup3\n        /* \"#utility.yul\":13211:13245   */\n      mstore\n        /* \"#utility.yul\":13142:13251   */\n      pop\n      pop\n      jump\t// out\n        /* \"#utility.yul\":13257:13467   */\n    tag_74:\n        /* \"#utility.yul\":13344:13348   */\n      0x00\n        /* \"#utility.yul\":13382:13384   */\n      0x20\n        /* \"#utility.yul\":13371:13380   */\n      dup3\n        /* \"#utility.yul\":13367:13385   */\n      add\n        /* \"#utility.yul\":13359:13385   */\n      swap1\n      pop\n        /* \"#utility.yul\":13395:13460   */\n      tag_380\n        /* \"#utility.yul\":13457:13458   */\n      0x00\n        /* \"#utility.yul\":13446:13455   */\n      dup4\n        /* \"#utility.yul\":13442:13459   */\n      add\n        /* \"#utility.yul\":13433:13439   */\n      dup5\n        /* \"#utility.yul\":13395:13460   */\n      tag_221\n      jump\t// in\n    tag_380:\n        /* \"#utility.yul\":13257:13467   */\n      swap3\n      swap2\n      pop\n      pop\n      jump\t// out\n        /* \"#utility.yul\":13473:14117   */\n    tag_82:\n        /* \"#utility.yul\":13670:13674   */\n      0x00\n        /* \"#utility.yul\":13708:13711   */\n      0x80\n        /* \"#utility.yul\":13697:13706   */\n      dup3\n        /* \"#utility.yul\":13693:13712   */\n      add\n        /* \"#utility.yul\":13685:13712   */\n      swap1\n      pop\n        /* \"#utility.yul\":13722:13793   */\n      tag_382\n        /* \"#utility.yul\":13790:13791   */\n      0x00\n        /* \"#utility.yul\":13779:13788   */\n      dup4\n        /* \"#utility.yul\":13775:13792   */\n      add\n        /* \"#utility.yul\":13766:13772   */\n      dup8\n        /* \"#utility.yul\":13722:13793   */\n      tag_194\n      jump\t// in\n    tag_382:\n        /* \"#utility.yul\":13803:13875   */\n      tag_383\n        /* \"#utility.yul\":13871:13873   */\n      0x20\n        /* \"#utility.yul\":13860:13869   */\n      dup4\n        /* \"#utility.yul\":13856:13874   */\n      add\n        /* \"#utility.yul\":13847:13853   */\n      dup7\n        /* \"#utility.yul\":13803:13875   */\n      tag_200\n      jump\t// in\n    tag_383:\n        /* \"#utility.yul\":13922:13931   */\n      dup2\n        /* \"#utility.yul\":13916:13920   */\n      dup2\n        /* \"#utility.yul\":13912:13932   */\n      sub\n        /* \"#utility.yul\":13907:13909   */\n      0x40\n        /* \"#utility.yul\":13896:13905   */\n      dup4\n        /* \"#utility.yul\":13892:13910   */\n      add\n        /* \"#utility.yul\":13885:13933   */\n      mstore\n        /* \"#utility.yul\":13950:14028   */\n      tag_384\n        /* \"#utility.yul\":14023:14027   */\n      dup2\n        /* \"#utility.yul\":14014:14020   */\n      dup6\n        /* \"#utility.yul\":13950:14028   */\n      tag_199\n      jump\t// in\n    tag_384:\n        /* \"#utility.yul\":13942:14028   */\n      swap1\n      pop\n        /* \"#utility.yul\":14038:14110   */\n      tag_385\n        /* \"#utility.yul\":14106:14108   */\n      0x60\n        /* \"#utility.yul\":14095:14104   */\n      dup4\n        /* \"#utility.yul\":14091:14109   */\n      add\n        /* \"#utility.yul\":14082:14088   */\n      dup5\n        /* \"#utility.yul\":14038:14110   */\n      tag_194\n      jump\t// in\n    tag_385:\n        /* \"#utility.yul\":13473:14117   */\n      swap6\n      swap5\n      pop\n      pop\n      pop\n      pop\n      pop\n      jump\t// out\n        /* \"#utility.yul\":14123:14632   */\n    tag_85:\n        /* \"#utility.yul\":14192:14198   */\n      0x00\n        /* \"#utility.yul\":14241:14243   */\n      0x20\n        /* \"#utility.yul\":14229:14238   */\n      dup3\n        /* \"#utility.yul\":14220:14227   */\n      dup5\n        /* \"#utility.yul\":14216:14239   */\n      sub\n        /* \"#utility.yul\":14212:14244   */\n      slt\n        /* \"#utility.yul\":14209:14328   */\n      iszero\n      tag_387\n      jumpi\n        /* \"#utility.yul\":14247:14326   */\n      tag_388\n      tag_185\n      jump\t// in\n    tag_388:\n        /* \"#utility.yul\":14209:14328   */\n    tag_387:\n        /* \"#utility.yul\":14395:14396   */\n      0x00\n        /* \"#utility.yul\":14384:14393   */\n      dup3\n        /* \"#utility.yul\":14380:14397   */\n      add\n        /* \"#utility.yul\":14367:14398   */\n      calldataload\n        /* \"#utility.yul\":14425:14443   */\n      0xffffffffffffffff\n        /* \"#utility.yul\":14417:14423   */\n      dup2\n        /* \"#utility.yul\":14414:14444   */\n      gt\n        /* \"#utility.yul\":14411:14528   */\n      iszero\n      tag_389\n      jumpi\n        /* \"#utility.yul\":14447:14526   */\n      tag_390\n      tag_186\n      jump\t// in\n    tag_390:\n        /* \"#utility.yul\":14411:14528   */\n    tag_389:\n        /* \"#utility.yul\":14552:14615   */\n      tag_391\n        /* \"#utility.yul\":14607:14614   */\n      dup5\n        /* \"#utility.yul\":14598:14604   */\n      dup3\n        /* \"#utility.yul\":14587:14596   */\n      dup6\n        /* \"#utility.yul\":14583:14605   */\n      add\n        /* \"#utility.yul\":14552:14615   */\n      tag_219\n      jump\t// in\n    tag_391:\n        /* \"#utility.yul\":14542:14615   */\n      swap2\n      pop\n        /* \"#utility.yul\":14338:14625   */\n      pop\n        /* \"#utility.yul\":14123:14632   */\n      swap3\n      swap2\n      pop\n      pop\n      jump\t// out\n        /* \"#utility.yul\":14638:14818   */\n    tag_222:\n        /* \"#utility.yul\":14686:14763   */\n      0x4e487b7100000000000000000000000000000000000000000000000000000000\n        /* \"#utility.yul\":14683:14684   */\n      0x00\n        /* \"#utility.yul\":14676:14764   */\n      mstore\n        /* \"#utility.yul\":14783:14787   */\n      0x22\n        /* \"#utility.yul\":14780:14781   */\n      0x04\n        /* \"#utility.yul\":14773:14788   */\n      mstore\n        /* \"#utility.yul\":14807:14811   */\n      0x24\n        /* \"#utility.yul\":14804:14805   */\n      0x00\n        /* \"#utility.yul\":14797:14812   */\n      revert\n        /* \"#utility.yul\":14824:15144   */\n    tag_93:\n        /* \"#utility.yul\":14868:14874   */\n      0x00\n        /* \"#utility.yul\":14905:14906   */\n      0x02\n        /* \"#utility.yul\":14899:14903   */\n      dup3\n        /* \"#utility.yul\":14895:14907   */\n      div\n        /* \"#utility.yul\":14885:14907   */\n      swap1\n      pop\n        /* \"#utility.yul\":14952:14953   */\n      0x01\n        /* \"#utility.yul\":14946:14950   */\n      dup3\n        /* \"#utility.yul\":14942:14954   */\n      and\n        /* \"#utility.yul\":14973:14991   */\n      dup1\n        /* \"#utility.yul\":14963:15044   */\n      tag_394\n      jumpi\n        /* \"#utility.yul\":15029:15033   */\n      0x7f\n        /* \"#utility.yul\":15021:15027   */\n      dup3\n        /* \"#utility.yul\":15017:15034   */\n      and\n        /* \"#utility.yul\":15007:15034   */\n      swap2\n      pop\n        /* \"#utility.yul\":14963:15044   */\n    tag_394:\n        /* \"#utility.yul\":15091:15093   */\n      0x20\n        /* \"#utility.yul\":15083:15089   */\n      dup3\n        /* \"#utility.yul\":15080:15094   */\n      lt\n        /* \"#utility.yul\":15060:15078   */\n      dup2\n        /* \"#utility.yul\":15057:15095   */\n      sub\n        /* \"#utility.yul\":15054:15138   */\n      tag_395\n      jumpi\n        /* \"#utility.yul\":15110:15128   */\n      tag_396\n      tag_222\n      jump\t// in\n    tag_396:\n        /* \"#utility.yul\":15054:15138   */\n    tag_395:\n        /* \"#utility.yul\":14875:15144   */\n      pop\n        /* \"#utility.yul\":14824:15144   */\n      swap2\n      swap1\n      pop\n      jump\t// out\n        /* \"#utility.yul\":15150:15374   */\n    tag_223:\n        /* \"#utility.yul\":15290:15324   */\n      0x7573657220776974682074686973206164647265737320646f6e742068617665\n        /* \"#utility.yul\":15286:15287   */\n      0x00\n        /* \"#utility.yul\":15278:15284   */\n      dup3\n        /* \"#utility.yul\":15274:15288   */\n      add\n        /* \"#utility.yul\":15267:15325   */\n      mstore\n        /* \"#utility.yul\":15359:15366   */\n      0x20706f7374000000000000000000000000000000000000000000000000000000\n        /* \"#utility.yul\":15354:15356   */\n      0x20\n        /* \"#utility.yul\":15346:15352   */\n      dup3\n        /* \"#utility.yul\":15342:15357   */\n      add\n        /* \"#utility.yul\":15335:15367   */\n      mstore\n        /* \"#utility.yul\":15150:15374   */\n      pop\n      jump\t// out\n        /* \"#utility.yul\":15380:15746   */\n    tag_224:\n        /* \"#utility.yul\":15522:15525   */\n      0x00\n        /* \"#utility.yul\":15543:15610   */\n      tag_399\n        /* \"#utility.yul\":15607:15609   */\n      0x25\n        /* \"#utility.yul\":15602:15605   */\n      dup4\n        /* \"#utility.yul\":15543:15610   */\n      tag_196\n      jump\t// in\n    tag_399:\n        /* \"#utility.yul\":15536:15610   */\n      swap2\n      pop\n        /* \"#utility.yul\":15619:15712   */\n      tag_400\n        /* \"#utility.yul\":15708:15711   */\n      dup3\n        /* \"#utility.yul\":15619:15712   */\n      tag_223\n      jump\t// in\n    tag_400:\n        /* \"#utility.yul\":15737:15739   */\n      0x40\n        /* \"#utility.yul\":15732:15735   */\n      dup3\n        /* \"#utility.yul\":15728:15740   */\n      add\n        /* \"#utility.yul\":15721:15740   */\n      swap1\n      pop\n        /* \"#utility.yul\":15380:15746   */\n      swap2\n      swap1\n      pop\n      jump\t// out\n        /* \"#utility.yul\":15752:16171   */\n    tag_102:\n        /* \"#utility.yul\":15918:15922   */\n      0x00\n        /* \"#utility.yul\":15956:15958   */\n      0x20\n        /* \"#utility.yul\":15945:15954   */\n      dup3\n        /* \"#utility.yul\":15941:15959   */\n      add\n        /* \"#utility.yul\":15933:15959   */\n      swap1\n      pop\n        /* \"#utility.yul\":16005:16014   */\n      dup2\n        /* \"#utility.yul\":15999:16003   */\n      dup2\n        /* \"#utility.yul\":15995:16015   */\n      sub\n        /* \"#utility.yul\":15991:15992   */\n      0x00\n        /* \"#utility.yul\":15980:15989   */\n      dup4\n        /* \"#utility.yul\":15976:15993   */\n      add\n        /* \"#utility.yul\":15969:16016   */\n      mstore\n        /* \"#utility.yul\":16033:16164   */\n      tag_402\n        /* \"#utility.yul\":16159:16163   */\n      dup2\n        /* \"#utility.yul\":16033:16164   */\n      tag_224\n      jump\t// in\n    tag_402:\n        /* \"#utility.yul\":16025:16164   */\n      swap1\n      pop\n        /* \"#utility.yul\":15752:16171   */\n      swap2\n      swap1\n      pop\n      jump\t// out\n        /* \"#utility.yul\":16177:16357   */\n    tag_225:\n        /* \"#utility.yul\":16225:16302   */\n      0x4e487b7100000000000000000000000000000000000000000000000000000000\n        /* \"#utility.yul\":16222:16223   */\n      0x00\n        /* \"#utility.yul\":16215:16303   */\n      mstore\n        /* \"#utility.yul\":16322:16326   */\n      0x11\n        /* \"#utility.yul\":16319:16320   */\n      0x04\n        /* \"#utility.yul\":16312:16327   */\n      mstore\n        /* \"#utility.yul\":16346:16350   */\n      0x24\n        /* \"#utility.yul\":16343:16344   */\n      0x00\n        /* \"#utility.yul\":16336:16351   */\n      revert\n        /* \"#utility.yul\":16363:16557   */\n    tag_114:\n        /* \"#utility.yul\":16403:16407   */\n      0x00\n        /* \"#utility.yul\":16423:16443   */\n      tag_405\n        /* \"#utility.yul\":16441:16442   */\n      dup3\n        /* \"#utility.yul\":16423:16443   */\n      tag_191\n      jump\t// in\n    tag_405:\n        /* \"#utility.yul\":16418:16443   */\n      swap2\n      pop\n        /* \"#utility.yul\":16457:16477   */\n      tag_406\n        /* \"#utility.yul\":16475:16476   */\n      dup4\n        /* \"#utility.yul\":16457:16477   */\n      tag_191\n      jump\t// in\n    tag_406:\n        /* \"#utility.yul\":16452:16477   */\n      swap3\n      pop\n        /* \"#utility.yul\":16501:16502   */\n      dup3\n        /* \"#utility.yul\":16498:16499   */\n      dup3\n        /* \"#utility.yul\":16494:16503   */\n      sub\n        /* \"#utility.yul\":16486:16503   */\n      swap1\n      pop\n        /* \"#utility.yul\":16525:16526   */\n      dup2\n        /* \"#utility.yul\":16519:16523   */\n      dup2\n        /* \"#utility.yul\":16516:16527   */\n      gt\n        /* \"#utility.yul\":16513:16550   */\n      iszero\n      tag_407\n      jumpi\n        /* \"#utility.yul\":16530:16548   */\n      tag_408\n      tag_225\n      jump\t// in\n    tag_408:\n        /* \"#utility.yul\":16513:16550   */\n    tag_407:\n        /* \"#utility.yul\":16363:16557   */\n      swap3\n      swap2\n      pop\n      pop\n      jump\t// out\n        /* \"#utility.yul\":16563:16743   */\n    tag_117:\n        /* \"#utility.yul\":16611:16688   */\n      0x4e487b7100000000000000000000000000000000000000000000000000000000\n        /* \"#utility.yul\":16608:16609   */\n      0x00\n        /* \"#utility.yul\":16601:16689   */\n      mstore\n        /* \"#utility.yul\":16708:16712   */\n      0x32\n        /* \"#utility.yul\":16705:16706   */\n      0x04\n        /* \"#utility.yul\":16698:16713   */\n      mstore\n        /* \"#utility.yul\":16732:16736   */\n      0x24\n        /* \"#utility.yul\":16729:16730   */\n      0x00\n        /* \"#utility.yul\":16722:16737   */\n      revert\n        /* \"#utility.yul\":16749:16982   */\n    tag_125:\n        /* \"#utility.yul\":16788:16791   */\n      0x00\n        /* \"#utility.yul\":16811:16835   */\n      tag_411\n        /* \"#utility.yul\":16829:16834   */\n      dup3\n        /* \"#utility.yul\":16811:16835   */\n      tag_191\n      jump\t// in\n    tag_411:\n        /* \"#utility.yul\":16802:16835   */\n      swap2\n      pop\n        /* \"#utility.yul\":16857:16923   */\n      0xffffffffffffffffffffffffffffffffffffffffffffffffffffffffffffffff\n        /* \"#utility.yul\":16850:16855   */\n      dup3\n        /* \"#utility.yul\":16847:16924   */\n      sub\n        /* \"#utility.yul\":16844:16947   */\n      tag_412\n      jumpi\n        /* \"#utility.yul\":16927:16945   */\n      tag_413\n      tag_225\n      jump\t// in\n    tag_413:\n        /* \"#utility.yul\":16844:16947   */\n    tag_412:\n        /* \"#utility.yul\":16974:16975   */\n      0x01\n        /* \"#utility.yul\":16967:16972   */\n      dup3\n        /* \"#utility.yul\":16963:16976   */\n      add\n        /* \"#utility.yul\":16956:16976   */\n      swap1\n      pop\n        /* \"#utility.yul\":16749:16982   */\n      swap2\n      swap1\n      pop\n      jump\t// out\n        /* \"#utility.yul\":16988:17159   */\n    tag_226:\n        /* \"#utility.yul\":17128:17151   */\n      0x436f756e74206973206e6f7420696e206c696d69740000000000000000000000\n        /* \"#utility.yul\":17124:17125   */\n      0x00\n        /* \"#utility.yul\":17116:17122   */\n      dup3\n        /* \"#utility.yul\":17112:17126   */\n      add\n        /* \"#utility.yul\":17105:17152   */\n      mstore\n        /* \"#utility.yul\":16988:17159   */\n      pop\n      jump\t// out\n        /* \"#utility.yul\":17165:17531   */\n    tag_227:\n        /* \"#utility.yul\":17307:17310   */\n      0x00\n        /* \"#utility.yul\":17328:17395   */\n      tag_416\n        /* \"#utility.yul\":17392:17394   */\n      0x15\n        /* \"#utility.yul\":17387:17390   */\n      dup4\n        /* \"#utility.yul\":17328:17395   */\n      tag_196\n      jump\t// in\n    tag_416:\n        /* \"#utility.yul\":17321:17395   */\n      swap2\n      pop\n        /* \"#utility.yul\":17404:17497   */\n      tag_417\n        /* \"#utility.yul\":17493:17496   */\n      dup3\n        /* \"#utility.yul\":17404:17497   */\n      tag_226\n      jump\t// in\n    tag_417:\n        /* \"#utility.yul\":17522:17524   */\n      0x20\n        /* \"#utility.yul\":17517:17520   */\n      dup3\n        /* \"#utility.yul\":17513:17525   */\n      add\n        /* \"#utility.yul\":17506:17525   */\n      swap1\n      pop\n        /* \"#utility.yul\":17165:17531   */\n      swap2\n      swap1\n      pop\n      jump\t// out\n        /* \"#utility.yul\":17537:17956   */\n    tag_134:\n        /* \"#utility.yul\":17703:17707   */\n      0x00\n        /* \"#utility.yul\":17741:17743   */\n      0x20\n        /* \"#utility.yul\":17730:17739   */\n      dup3\n        /* \"#utility.yul\":17726:17744   */\n      add\n        /* \"#utility.yul\":17718:17744   */\n      swap1\n      pop\n        /* \"#utility.yul\":17790:17799   */\n      dup2\n        /* \"#utility.yul\":17784:17788   */\n      dup2\n        /* \"#utility.yul\":17780:17800   */\n      sub\n        /* \"#utility.yul\":17776:17777   */\n      0x00\n        /* \"#utility.yul\":17765:17774   */\n      dup4\n        /* \"#utility.yul\":17761:17778   */\n      add\n        /* \"#utility.yul\":17754:17801   */\n      mstore\n        /* \"#utility.yul\":17818:17949   */\n      tag_419\n        /* \"#utility.yul\":17944:17948   */\n      dup2\n        /* \"#utility.yul\":17818:17949   */\n      tag_227\n      jump\t// in\n    tag_419:\n        /* \"#utility.yul\":17810:17949   */\n      swap1\n      pop\n        /* \"#utility.yul\":17537:17956   */\n      swap2\n      swap1\n      pop\n      jump\t// out\n        /* \"#utility.yul\":17962:18133   */\n    tag_228:\n        /* \"#utility.yul\":18102:18125   */\n      0x596f7520646f6e27742068617665206163636573730000000000000000000000\n        /* \"#utility.yul\":18098:18099   */\n      0x00\n        /* \"#utility.yul\":18090:18096   */\n      dup3\n        /* \"#utility.yul\":18086:18100   */\n      add\n        /* \"#utility.yul\":18079:18126   */\n      mstore\n        /* \"#utility.yul\":17962:18133   */\n      pop\n      jump\t// out\n        /* \"#utility.yul\":18139:18505   */\n    tag_229:\n        /* \"#utility.yul\":18281:18284   */\n      0x00\n        /* \"#utility.yul\":18302:18369   */\n      tag_422\n        /* \"#utility.yul\":18366:18368   */\n      0x15\n        /* \"#utility.yul\":18361:18364   */\n      dup4\n        /* \"#utility.yul\":18302:18369   */\n      tag_196\n      jump\t// in\n    tag_422:\n        /* \"#utility.yul\":18295:18369   */\n      swap2\n      pop\n        /* \"#utility.yul\":18378:18471   */\n      tag_423\n        /* \"#utility.yul\":18467:18470   */\n      dup3\n        /* \"#utility.yul\":18378:18471   */\n      tag_228\n      jump\t// in\n    tag_423:\n        /* \"#utility.yul\":18496:18498   */\n      0x20\n        /* \"#utility.yul\":18491:18494   */\n      dup3\n        /* \"#utility.yul\":18487:18499   */\n      add\n        /* \"#utility.yul\":18480:18499   */\n      swap1\n      pop\n        /* \"#utility.yul\":18139:18505   */\n      swap2\n      swap1\n      pop\n      jump\t// out\n        /* \"#utility.yul\":18511:18930   */\n    tag_156:\n        /* \"#utility.yul\":18677:18681   */\n      0x00\n        /* \"#utility.yul\":18715:18717   */\n      0x20\n        /* \"#utility.yul\":18704:18713   */\n      dup3\n        /* \"#utility.yul\":18700:18718   */\n      add\n        /* \"#utility.yul\":18692:18718   */\n      swap1\n      pop\n        /* \"#utility.yul\":18764:18773   */\n      dup2\n        /* \"#utility.yul\":18758:18762   */\n      dup2\n        /* \"#utility.yul\":18754:18774   */\n      sub\n        /* \"#utility.yul\":18750:18751   */\n      0x00\n        /* \"#utility.yul\":18739:18748   */\n      dup4\n        /* \"#utility.yul\":18735:18752   */\n      add\n        /* \"#utility.yul\":18728:18775   */\n      mstore\n        /* \"#utility.yul\":18792:18923   */\n      tag_425\n        /* \"#utility.yul\":18918:18922   */\n      dup2\n        /* \"#utility.yul\":18792:18923   */\n      tag_229\n      jump\t// in\n    tag_425:\n        /* \"#utility.yul\":18784:18923   */\n      swap1\n      pop\n        /* \"#utility.yul\":18511:18930   */\n      swap2\n      swap1\n      pop\n      jump\t// out\n        /* \"#utility.yul\":18936:19077   */\n    tag_230:\n        /* \"#utility.yul\":18985:18989   */\n      0x00\n        /* \"#utility.yul\":19008:19011   */\n      dup2\n        /* \"#utility.yul\":19000:19011   */\n      swap1\n      pop\n        /* \"#utility.yul\":19031:19034   */\n      dup2\n        /* \"#utility.yul\":19028:19029   */\n      0x00\n        /* \"#utility.yul\":19021:19035   */\n      mstore\n        /* \"#utility.yul\":19065:19069   */\n      0x20\n        /* \"#utility.yul\":19062:19063   */\n      0x00\n        /* \"#utility.yul\":19052:19070   */\n      keccak256\n        /* \"#utility.yul\":19044:19070   */\n      swap1\n      pop\n        /* \"#utility.yul\":18936:19077   */\n      swap2\n      swap1\n      pop\n      jump\t// out\n        /* \"#utility.yul\":19083:19176   */\n    tag_231:\n        /* \"#utility.yul\":19120:19126   */\n      0x00\n        /* \"#utility.yul\":19167:19169   */\n      0x20\n        /* \"#utility.yul\":19162:19164   */\n      0x1f\n        /* \"#utility.yul\":19155:19160   */\n      dup4\n        /* \"#utility.yul\":19151:19165   */\n      add\n        /* \"#utility.yul\":19147:19170   */\n      div\n        /* \"#utility.yul\":19137:19170   */\n      swap1\n      pop\n        /* \"#utility.yul\":19083:19176   */\n      swap2\n      swap1\n      pop\n      jump\t// out\n        /* \"#utility.yul\":19182:19289   */\n    tag_232:\n        /* \"#utility.yul\":19226:19234   */\n      0x00\n        /* \"#utility.yul\":19276:19281   */\n      dup3\n        /* \"#utility.yul\":19270:19274   */\n      dup3\n        /* \"#utility.yul\":19266:19282   */\n      shl\n        /* \"#utility.yul\":19245:19282   */\n      swap1\n      pop\n        /* \"#utility.yul\":19182:19289   */\n      swap3\n      swap2\n      pop\n      pop\n      jump\t// out\n        /* \"#utility.yul\":19295:19688   */\n    tag_233:\n        /* \"#utility.yul\":19364:19370   */\n      0x00\n        /* \"#utility.yul\":19414:19415   */\n      0x08\n        /* \"#utility.yul\":19402:19412   */\n      dup4\n        /* \"#utility.yul\":19398:19416   */\n      mul\n        /* \"#utility.yul\":19437:19534   */\n      tag_430\n        /* \"#utility.yul\":19467:19533   */\n      0xffffffffffffffffffffffffffffffffffffffffffffffffffffffffffffffff\n        /* \"#utility.yul\":19456:19465   */\n      dup3\n        /* \"#utility.yul\":19437:19534   */\n      tag_232\n      jump\t// in\n    tag_430:\n        /* \"#utility.yul\":19555:19594   */\n      tag_431\n        /* \"#utility.yul\":19585:19593   */\n      dup7\n        /* \"#utility.yul\":19574:19583   */\n      dup4\n        /* \"#utility.yul\":19555:19594   */\n      tag_232\n      jump\t// in\n    tag_431:\n        /* \"#utility.yul\":19543:19594   */\n      swap6\n      pop\n        /* \"#utility.yul\":19627:19631   */\n      dup1\n        /* \"#utility.yul\":19623:19632   */\n      not\n        /* \"#utility.yul\":19616:19621   */\n      dup5\n        /* \"#utility.yul\":19612:19633   */\n      and\n        /* \"#utility.yul\":19603:19633   */\n      swap4\n      pop\n        /* \"#utility.yul\":19676:19680   */\n      dup1\n        /* \"#utility.yul\":19666:19674   */\n      dup7\n        /* \"#utility.yul\":19662:19681   */\n      and\n        /* \"#utility.yul\":19655:19660   */\n      dup5\n        /* \"#utility.yul\":19652:19682   */\n      or\n        /* \"#utility.yul\":19642:19682   */\n      swap3\n      pop\n        /* \"#utility.yul\":19371:19688   */\n      pop\n      pop\n        /* \"#utility.yul\":19295:19688   */\n      swap4\n      swap3\n      pop\n      pop\n      pop\n      jump\t// out\n        /* \"#utility.yul\":19694:19754   */\n    tag_234:\n        /* \"#utility.yul\":19722:19725   */\n      0x00\n        /* \"#utility.yul\":19743:19748   */\n      dup2\n        /* \"#utility.yul\":19736:19748   */\n      swap1\n      pop\n        /* \"#utility.yul\":19694:19754   */\n      swap2\n      swap1\n      pop\n      jump\t// out\n        /* \"#utility.yul\":19760:19902   */\n    tag_235:\n        /* \"#utility.yul\":19810:19819   */\n      0x00\n        /* \"#utility.yul\":19843:19896   */\n      tag_434\n        /* \"#utility.yul\":19861:19895   */\n      tag_435\n        /* \"#utility.yul\":19870:19894   */\n      tag_436\n        /* \"#utility.yul\":19888:19893   */\n      dup5\n        /* \"#utility.yul\":19870:19894   */\n      tag_191\n      jump\t// in\n    tag_436:\n        /* \"#utility.yul\":19861:19895   */\n      tag_234\n      jump\t// in\n    tag_435:\n        /* \"#utility.yul\":19843:19896   */\n      tag_191\n      jump\t// in\n    tag_434:\n        /* \"#utility.yul\":19830:19896   */\n      swap1\n      pop\n        /* \"#utility.yul\":19760:19902   */\n      swap2\n      swap1\n      pop\n      jump\t// out\n        /* \"#utility.yul\":19908:19983   */\n    tag_236:\n        /* \"#utility.yul\":19951:19954   */\n      0x00\n        /* \"#utility.yul\":19972:19977   */\n      dup2\n        /* \"#utility.yul\":19965:19977   */\n      swap1\n      pop\n        /* \"#utility.yul\":19908:19983   */\n      swap2\n      swap1\n      pop\n      jump\t// out\n        /* \"#utility.yul\":19989:20258   */\n    tag_237:\n        /* \"#utility.yul\":20099:20138   */\n      tag_439\n        /* \"#utility.yul\":20130:20137   */\n      dup4\n        /* \"#utility.yul\":20099:20138   */\n      tag_235\n      jump\t// in\n    tag_439:\n        /* \"#utility.yul\":20160:20251   */\n      tag_440\n        /* \"#utility.yul\":20209:20250   */\n      tag_441\n        /* \"#utility.yul\":20233:20249   */\n      dup3\n        /* \"#utility.yul\":20209:20250   */\n      tag_236\n      jump\t// in\n    tag_441:\n        /* \"#utility.yul\":20201:20207   */\n      dup5\n        /* \"#utility.yul\":20194:20198   */\n      dup5\n        /* \"#utility.yul\":20188:20199   */\n      sload\n        /* \"#utility.yul\":20160:20251   */\n      tag_233\n      jump\t// in\n    tag_440:\n        /* \"#utility.yul\":20154:20158   */\n      dup3\n        /* \"#utility.yul\":20147:20252   */\n      sstore\n        /* \"#utility.yul\":20065:20258   */\n      pop\n        /* \"#utility.yul\":19989:20258   */\n      pop\n      pop\n      pop\n      jump\t// out\n        /* \"#utility.yul\":20264:20337   */\n    tag_238:\n        /* \"#utility.yul\":20309:20312   */\n      0x00\n        /* \"#utility.yul\":20264:20337   */\n      swap1\n      jump\t// out\n        /* \"#utility.yul\":20343:20532   */\n    tag_239:\n        /* \"#utility.yul\":20420:20452   */\n      tag_444\n      tag_238\n      jump\t// in\n    tag_444:\n        /* \"#utility.yul\":20461:20526   */\n      tag_445\n        /* \"#utility.yul\":20519:20525   */\n      dup2\n        /* \"#utility.yul\":20511:20517   */\n      dup5\n        /* \"#utility.yul\":20505:20509   */\n      dup5\n        /* \"#utility.yul\":20461:20526   */\n      tag_237\n      jump\t// in\n    tag_445:\n        /* \"#utility.yul\":20396:20532   */\n      pop\n        /* \"#utility.yul\":20343:20532   */\n      pop\n      pop\n      jump\t// out\n        /* \"#utility.yul\":20538:20724   */\n    tag_240:\n        /* \"#utility.yul\":20598:20718   */\n    tag_447:\n        /* \"#utility.yul\":20615:20618   */\n      dup2\n        /* \"#utility.yul\":20608:20613   */\n      dup2\n        /* \"#utility.yul\":20605:20619   */\n      lt\n        /* \"#utility.yul\":20598:20718   */\n      iszero\n      tag_449\n      jumpi\n        /* \"#utility.yul\":20669:20708   */\n      tag_450\n        /* \"#utility.yul\":20706:20707   */\n      0x00\n        /* \"#utility.yul\":20699:20704   */\n      dup3\n        /* \"#utility.yul\":20669:20708   */\n      tag_239\n      jump\t// in\n    tag_450:\n        /* \"#utility.yul\":20642:20643   */\n      0x01\n        /* \"#utility.yul\":20635:20640   */\n      dup2\n        /* \"#utility.yul\":20631:20644   */\n      add\n        /* \"#utility.yul\":20622:20644   */\n      swap1\n      pop\n        /* \"#utility.yul\":20598:20718   */\n      jump(tag_447)\n    tag_449:\n        /* \"#utility.yul\":20538:20724   */\n      pop\n      pop\n      jump\t// out\n        /* \"#utility.yul\":20730:21273   */\n    tag_241:\n        /* \"#utility.yul\":20831:20833   */\n      0x1f\n        /* \"#utility.yul\":20826:20829   */\n      dup3\n        /* \"#utility.yul\":20823:20834   */\n      gt\n        /* \"#utility.yul\":20820:21266   */\n      iszero\n      tag_452\n      jumpi\n        /* \"#utility.yul\":20865:20903   */\n      tag_453\n        /* \"#utility.yul\":20897:20902   */\n      dup2\n        /* \"#utility.yul\":20865:20903   */\n      tag_230\n      jump\t// in\n    tag_453:\n        /* \"#utility.yul\":20949:20978   */\n      tag_454\n        /* \"#utility.yul\":20967:20977   */\n      dup5\n        /* \"#utility.yul\":20949:20978   */\n      tag_231\n      jump\t// in\n    tag_454:\n        /* \"#utility.yul\":20939:20947   */\n      dup2\n        /* \"#utility.yul\":20935:20979   */\n      add\n        /* \"#utility.yul\":21132:21134   */\n      0x20\n        /* \"#utility.yul\":21120:21130   */\n      dup6\n        /* \"#utility.yul\":21117:21135   */\n      lt\n        /* \"#utility.yul\":21114:21163   */\n      iszero\n      tag_455\n      jumpi\n        /* \"#utility.yul\":21153:21161   */\n      dup2\n        /* \"#utility.yul\":21138:21161   */\n      swap1\n      pop\n        /* \"#utility.yul\":21114:21163   */\n    tag_455:\n        /* \"#utility.yul\":21176:21256   */\n      tag_456\n        /* \"#utility.yul\":21232:21254   */\n      tag_457\n        /* \"#utility.yul\":21250:21253   */\n      dup6\n        /* \"#utility.yul\":21232:21254   */\n      tag_231\n      jump\t// in\n    tag_457:\n        /* \"#utility.yul\":21222:21230   */\n      dup4\n        /* \"#utility.yul\":21218:21255   */\n      add\n        /* \"#utility.yul\":21205:21216   */\n      dup3\n        /* \"#utility.yul\":21176:21256   */\n      tag_240\n      jump\t// in\n    tag_456:\n        /* \"#utility.yul\":20835:21266   */\n      pop\n      pop\n        /* \"#utility.yul\":20820:21266   */\n    tag_452:\n        /* \"#utility.yul\":20730:21273   */\n      pop\n      pop\n      pop\n      jump\t// out\n        /* \"#utility.yul\":21279:21396   */\n    tag_242:\n        /* \"#utility.yul\":21333:21341   */\n      0x00\n        /* \"#utility.yul\":21383:21388   */\n      dup3\n        /* \"#utility.yul\":21377:21381   */\n      dup3\n        /* \"#utility.yul\":21373:21389   */\n      shr\n        /* \"#utility.yul\":21352:21389   */\n      swap1\n      pop\n        /* \"#utility.yul\":21279:21396   */\n      swap3\n      swap2\n      pop\n      pop\n      jump\t// out\n        /* \"#utility.yul\":21402:21571   */\n    tag_243:\n        /* \"#utility.yul\":21446:21452   */\n      0x00\n        /* \"#utility.yul\":21479:21530   */\n      tag_460\n        /* \"#utility.yul\":21527:21528   */\n      0x00\n        /* \"#utility.yul\":21523:21529   */\n      not\n        /* \"#utility.yul\":21515:21520   */\n      dup5\n        /* \"#utility.yul\":21512:21513   */\n      0x08\n        /* \"#utility.yul\":21508:21521   */\n      mul\n        /* \"#utility.yul\":21479:21530   */\n      tag_242\n      jump\t// in\n    tag_460:\n        /* \"#utility.yul\":21475:21531   */\n      not\n        /* \"#utility.yul\":21560:21564   */\n      dup1\n        /* \"#utility.yul\":21554:21558   */\n      dup4\n        /* \"#utility.yul\":21550:21565   */\n      and\n        /* \"#utility.yul\":21540:21565   */\n      swap2\n      pop\n        /* \"#utility.yul\":21453:21571   */\n      pop\n        /* \"#utility.yul\":21402:21571   */\n      swap3\n      swap2\n      pop\n      pop\n      jump\t// out\n        /* \"#utility.yul\":21576:21871   */\n    tag_244:\n        /* \"#utility.yul\":21652:21656   */\n      0x00\n        /* \"#utility.yul\":21798:21827   */\n      tag_462\n        /* \"#utility.yul\":21823:21826   */\n      dup4\n        /* \"#utility.yul\":21817:21821   */\n      dup4\n        /* \"#utility.yul\":21798:21827   */\n      tag_243\n      jump\t// in\n    tag_462:\n        /* \"#utility.yul\":21790:21827   */\n      swap2\n      pop\n        /* \"#utility.yul\":21860:21863   */\n      dup3\n        /* \"#utility.yul\":21857:21858   */\n      0x02\n        /* \"#utility.yul\":21853:21864   */\n      mul\n        /* \"#utility.yul\":21847:21851   */\n      dup3\n        /* \"#utility.yul\":21844:21865   */\n      or\n        /* \"#utility.yul\":21836:21865   */\n      swap1\n      pop\n        /* \"#utility.yul\":21576:21871   */\n      swap3\n      swap2\n      pop\n      pop\n      jump\t// out\n        /* \"#utility.yul\":21876:23271   */\n    tag_158:\n        /* \"#utility.yul\":21993:22030   */\n      tag_464\n        /* \"#utility.yul\":22026:22029   */\n      dup3\n        /* \"#utility.yul\":21993:22030   */\n      tag_195\n      jump\t// in\n    tag_464:\n        /* \"#utility.yul\":22095:22113   */\n      0xffffffffffffffff\n        /* \"#utility.yul\":22087:22093   */\n      dup2\n        /* \"#utility.yul\":22084:22114   */\n      gt\n        /* \"#utility.yul\":22081:22137   */\n      iszero\n      tag_465\n      jumpi\n        /* \"#utility.yul\":22117:22135   */\n      tag_466\n      tag_105\n      jump\t// in\n    tag_466:\n        /* \"#utility.yul\":22081:22137   */\n    tag_465:\n        /* \"#utility.yul\":22161:22199   */\n      tag_467\n        /* \"#utility.yul\":22193:22197   */\n      dup3\n        /* \"#utility.yul\":22187:22198   */\n      sload\n        /* \"#utility.yul\":22161:22199   */\n      tag_93\n      jump\t// in\n    tag_467:\n        /* \"#utility.yul\":22246:22313   */\n      tag_468\n        /* \"#utility.yul\":22306:22312   */\n      dup3\n        /* \"#utility.yul\":22298:22304   */\n      dup3\n        /* \"#utility.yul\":22292:22296   */\n      dup6\n        /* \"#utility.yul\":22246:22313   */\n      tag_241\n      jump\t// in\n    tag_468:\n        /* \"#utility.yul\":22340:22341   */\n      0x00\n        /* \"#utility.yul\":22364:22368   */\n      0x20\n        /* \"#utility.yul\":22351:22368   */\n      swap1\n      pop\n        /* \"#utility.yul\":22396:22398   */\n      0x1f\n        /* \"#utility.yul\":22388:22394   */\n      dup4\n        /* \"#utility.yul\":22385:22399   */\n      gt\n        /* \"#utility.yul\":22413:22414   */\n      0x01\n        /* \"#utility.yul\":22408:23026   */\n      dup2\n      eq\n      tag_470\n      jumpi\n        /* \"#utility.yul\":23070:23071   */\n      0x00\n        /* \"#utility.yul\":23087:23093   */\n      dup5\n        /* \"#utility.yul\":23084:23161   */\n      iszero\n      tag_471\n      jumpi\n        /* \"#utility.yul\":23136:23145   */\n      dup3\n        /* \"#utility.yul\":23131:23134   */\n      dup8\n        /* \"#utility.yul\":23127:23146   */\n      add\n        /* \"#utility.yul\":23121:23147   */\n      mload\n        /* \"#utility.yul\":23112:23147   */\n      swap1\n      pop\n        /* \"#utility.yul\":23084:23161   */\n    tag_471:\n        /* \"#utility.yul\":23187:23254   */\n      tag_472\n        /* \"#utility.yul\":23247:23253   */\n      dup6\n        /* \"#utility.yul\":23240:23245   */\n      dup3\n        /* \"#utility.yul\":23187:23254   */\n      tag_244\n      jump\t// in\n    tag_472:\n        /* \"#utility.yul\":23181:23185   */\n      dup7\n        /* \"#utility.yul\":23174:23255   */\n      sstore\n        /* \"#utility.yul\":23043:23265   */\n      pop\n        /* \"#utility.yul\":22378:23265   */\n      jump(tag_469)\n        /* \"#utility.yul\":22408:23026   */\n    tag_470:\n        /* \"#utility.yul\":22460:22464   */\n      0x1f\n        /* \"#utility.yul\":22456:22465   */\n      not\n        /* \"#utility.yul\":22448:22454   */\n      dup5\n        /* \"#utility.yul\":22444:22466   */\n      and\n        /* \"#utility.yul\":22494:22531   */\n      tag_473\n        /* \"#utility.yul\":22526:22530   */\n      dup7\n        /* \"#utility.yul\":22494:22531   */\n      tag_230\n      jump\t// in\n    tag_473:\n        /* \"#utility.yul\":22553:22554   */\n      0x00\n        /* \"#utility.yul\":22567:22775   */\n    tag_474:\n        /* \"#utility.yul\":22581:22588   */\n      dup3\n        /* \"#utility.yul\":22578:22579   */\n      dup2\n        /* \"#utility.yul\":22575:22589   */\n      lt\n        /* \"#utility.yul\":22567:22775   */\n      iszero\n      tag_476\n      jumpi\n        /* \"#utility.yul\":22660:22669   */\n      dup5\n        /* \"#utility.yul\":22655:22658   */\n      dup10\n        /* \"#utility.yul\":22651:22670   */\n      add\n        /* \"#utility.yul\":22645:22671   */\n      mload\n        /* \"#utility.yul\":22637:22643   */\n      dup3\n        /* \"#utility.yul\":22630:22672   */\n      sstore\n        /* \"#utility.yul\":22711:22712   */\n      0x01\n        /* \"#utility.yul\":22703:22709   */\n      dup3\n        /* \"#utility.yul\":22699:22713   */\n      add\n        /* \"#utility.yul\":22689:22713   */\n      swap2\n      pop\n        /* \"#utility.yul\":22758:22760   */\n      0x20\n        /* \"#utility.yul\":22747:22756   */\n      dup6\n        /* \"#utility.yul\":22743:22761   */\n      add\n        /* \"#utility.yul\":22730:22761   */\n      swap5\n      pop\n        /* \"#utility.yul\":22604:22608   */\n      0x20\n        /* \"#utility.yul\":22601:22602   */\n      dup2\n        /* \"#utility.yul\":22597:22609   */\n      add\n        /* \"#utility.yul\":22592:22609   */\n      swap1\n      pop\n        /* \"#utility.yul\":22567:22775   */\n      jump(tag_474)\n    tag_476:\n        /* \"#utility.yul\":22803:22809   */\n      dup7\n        /* \"#utility.yul\":22794:22801   */\n      dup4\n        /* \"#utility.yul\":22791:22810   */\n      lt\n        /* \"#utility.yul\":22788:22967   */\n      iszero\n      tag_477\n      jumpi\n        /* \"#utility.yul\":22861:22870   */\n      dup5\n        /* \"#utility.yul\":22856:22859   */\n      dup10\n        /* \"#utility.yul\":22852:22871   */\n      add\n        /* \"#utility.yul\":22846:22872   */\n      mload\n        /* \"#utility.yul\":22904:22952   */\n      tag_478\n        /* \"#utility.yul\":22946:22950   */\n      0x1f\n        /* \"#utility.yul\":22938:22944   */\n      dup10\n        /* \"#utility.yul\":22934:22951   */\n      and\n        /* \"#utility.yul\":22923:22932   */\n      dup3\n        /* \"#utility.yul\":22904:22952   */\n      tag_243\n      jump\t// in\n    tag_478:\n        /* \"#utility.yul\":22896:22902   */\n      dup4\n        /* \"#utility.yul\":22889:22953   */\n      sstore\n        /* \"#utility.yul\":22811:22967   */\n      pop\n        /* \"#utility.yul\":22788:22967   */\n    tag_477:\n        /* \"#utility.yul\":23013:23014   */\n      0x01\n        /* \"#utility.yul\":23009:23010   */\n      0x02\n        /* \"#utility.yul\":23001:23007   */\n      dup9\n        /* \"#utility.yul\":22997:23011   */\n      mul\n        /* \"#utility.yul\":22993:23015   */\n      add\n        /* \"#utility.yul\":22987:22991   */\n      dup9\n        /* \"#utility.yul\":22980:23016   */\n      sstore\n        /* \"#utility.yul\":22415:23026   */\n      pop\n      pop\n      pop\n        /* \"#utility.yul\":22378:23265   */\n    tag_469:\n      pop\n        /* \"#utility.yul\":21968:23271   */\n      pop\n      pop\n      pop\n        /* \"#utility.yul\":21876:23271   */\n      pop\n      pop\n      jump\t// out\n\n    auxdata: 0xa26469706673582212200ed49b389bb85708739cd7de7d97b062b9c9d9ccf68cb288640413116f971ed364736f6c634300081a0033\n}\n",
				"bytecode": {
					"linkReferences": {},
					"object": "6080604052348015600e575f80fd5b50611c828061001c5f395ff3fe608060405234801561000f575f80fd5b50600436106100fe575f3560e01c8063cf8aacdd11610095578063de6f24bb11610064578063de6f24bb146102ce578063e8d857b0146102ea578063fb46d4c51461031d578063ff9913e814610339576100fe565b8063cf8aacdd1461024a578063cfe3d77a14610266578063d21d159614610282578063dc7d06351461029e576100fe565b806378bae934116100d157806378bae934146101b25780639139cda5146101ce578063af22bf94146101fe578063b88e318d1461022e576100fe565b80633befea091461010257806341599f87146101365780634dbf27cc146101665780635025c42814610182575b5f80fd5b61011c60048036038101906101179190611110565b610355565b60405161012d9594939291906111dc565b60405180910390f35b610150600480360381019061014b9190611110565b610465565b60405161015d91906113b5565b60405180910390f35b610180600480360381019061017b91906113d5565b610709565b005b61019c60048036038101906101979190611400565b6107a7565b6040516101a991906113b5565b60405180910390f35b6101cc60048036038101906101c79190611557565b6109ad565b005b6101e860048036038101906101e39190611110565b610be1565b6040516101f591906115b1565b60405180910390f35b61021860048036038101906102139190611110565b610c29565b60405161022591906115ca565b60405180910390f35b610248600480360381019061024391906115e3565b610c54565b005b610264600480360381019061025f91906113d5565b610c64565b005b610280600480360381019061027b91906115e3565b610cf6565b005b61029c60048036038101906102979190611557565b610e80565b005b6102b860048036038101906102b3919061164f565b610e8e565b6040516102c591906116a7565b60405180910390f35b6102e860048036038101906102e39190611557565b610eb8565b005b61030460048036038101906102ff9190611400565b610ec7565b60405161031494939291906116c0565b60405180910390f35b6103376004803603810190610332919061170a565b610f97565b005b610353600480360381019061034e91906113d5565b610fa4565b005b6002602052815f5260405f20818154811061036e575f80fd5b905f5260205f2090600502015f9150915050805f0154908060010180546103949061177e565b80601f01602080910402602001604051908101604052809291908181526020018280546103c09061177e565b801561040b5780601f106103e25761010080835404028352916020019161040b565b820191905f5260205f20905b8154815290600101906020018083116103ee57829003601f168201915b505050505090806002015f9054906101000a900473ffffffffffffffffffffffffffffffffffffffff1690806003015f9054906101000a900473ffffffffffffffffffffffffffffffffffffffff16908060040154905085565b60605f82118015610477575060055482105b6104b6576040517f08c379a00000000000000000000000000000000000000000000000000000000081526004016104ad9061181e565b60405180910390fd5b5f8267ffffffffffffffff8111156104d1576104d0611433565b5b60405190808252806020026020018201604052801561050a57816020015b6104f7611037565b8152602001906001900390816104ef5790505b5090505f60015f8673ffffffffffffffffffffffffffffffffffffffff1673ffffffffffffffffffffffffffffffffffffffff1681526020019081526020015f208054905090505f60015f8773ffffffffffffffffffffffffffffffffffffffff1673ffffffffffffffffffffffffffffffffffffffff1681526020019081526020015f2090505f80868461059f9190611869565b90505b838110156106fb575f805f8584815481106105c0576105bf61189c565b5b905f5260205f20015481526020019081526020015f2090506040518060800160405280825f01548152602001826001015f9054906101000a900473ffffffffffffffffffffffffffffffffffffffff1673ffffffffffffffffffffffffffffffffffffffff16815260200182600201805461063a9061177e565b80601f01602080910402602001604051908101604052809291908181526020018280546106669061177e565b80156106b15780601f10610688576101008083540402835291602001916106b1565b820191905f5260205f20905b81548152906001019060200180831161069457829003601f168201915b5050505050815260200182600301548152508684806106cf906118c9565b9550815181106106e2576106e161189c565b5b60200260200101819052505080806001019150506105a2565b508394505050505092915050565b60045f3373ffffffffffffffffffffffffffffffffffffffff1673ffffffffffffffffffffffffffffffffffffffff1681526020019081526020015f2081908060018154018082558091505060019003905f5260205f20015f9091909190916101000a81548173ffffffffffffffffffffffffffffffffffffffff021916908373ffffffffffffffffffffffffffffffffffffffff16021790555050565b60605f821180156107b9575060055482105b6107f8576040517f08c379a00000000000000000000000000000000000000000000000000000000081526004016107ef9061195a565b60405180910390fd5b5f8267ffffffffffffffff81111561081357610812611433565b5b60405190808252806020026020018201604052801561084c57816020015b610839611037565b8152602001906001900390816108315790505b5090505f808460055461085f9190611869565b90505b6005548110156109a2575f805f8381526020019081526020015f2090506040518060800160405280825f01548152602001826001015f9054906101000a900473ffffffffffffffffffffffffffffffffffffffff1673ffffffffffffffffffffffffffffffffffffffff1681526020018260020180546108e19061177e565b80601f016020809104026020016040519081016040528092919081815260200182805461090d9061177e565b80156109585780601f1061092f57610100808354040283529160200191610958565b820191905f5260205f20905b81548152906001019060200180831161093b57829003601f168201915b505050505081526020018260030154815250848480610976906118c9565b9550815181106109895761098861189c565b5b6020026020010181905250508080600101915050610862565b508192505050919050565b3373ffffffffffffffffffffffffffffffffffffffff168273ffffffffffffffffffffffffffffffffffffffff161480610a68575060035f8373ffffffffffffffffffffffffffffffffffffffff1673ffffffffffffffffffffffffffffffffffffffff1681526020019081526020015f205f3373ffffffffffffffffffffffffffffffffffffffff1673ffffffffffffffffffffffffffffffffffffffff1681526020019081526020015f205f9054906101000a900460ff165b610aa7576040517f08c379a0000000000000000000000000000000000000000000000000000000008152600401610a9e906119c2565b60405180910390fd5b604051806080016040528060055481526020018373ffffffffffffffffffffffffffffffffffffffff168152602001828152602001428152505f8060055481526020019081526020015f205f820151815f01556020820151816001015f6101000a81548173ffffffffffffffffffffffffffffffffffffffff021916908373ffffffffffffffffffffffffffffffffffffffff1602179055506040820151816002019081610b559190611b7d565b506060820151816003015590505060015f8373ffffffffffffffffffffffffffffffffffffffff1673ffffffffffffffffffffffffffffffffffffffff1681526020019081526020015f20600554908060018154018082558091505060019003905f5260205f20015f909190919091505560055f815480929190610bd8906118c9565b91905055505050565b6004602052815f5260405f208181548110610bfa575f80fd5b905f5260205f20015f915091509054906101000a900473ffffffffffffffffffffffffffffffffffffffff1681565b6001602052815f5260405f208181548110610c42575f80fd5b905f5260205f20015f91509150505481565b610c5f838383610cf6565b505050565b5f60035f3373ffffffffffffffffffffffffffffffffffffffff1673ffffffffffffffffffffffffffffffffffffffff1681526020019081526020015f205f8373ffffffffffffffffffffffffffffffffffffffff1673ffffffffffffffffffffffffffffffffffffffff1681526020019081526020015f205f6101000a81548160ff02191690831515021790555050565b60025f8473ffffffffffffffffffffffffffffffffffffffff1673ffffffffffffffffffffffffffffffffffffffff1681526020019081526020015f206040518060a0016040528060065481526020018381526020018573ffffffffffffffffffffffffffffffffffffffff1681526020018473ffffffffffffffffffffffffffffffffffffffff16815260200142815250908060018154018082558091505060019003905f5260205f2090600502015f909190919091505f820151815f01556020820151816001019081610dcb9190611b7d565b506040820151816002015f6101000a81548173ffffffffffffffffffffffffffffffffffffffff021916908373ffffffffffffffffffffffffffffffffffffffff1602179055506060820151816003015f6101000a81548173ffffffffffffffffffffffffffffffffffffffff021916908373ffffffffffffffffffffffffffffffffffffffff16021790555060808201518160040155505060065f815480929190610e76906118c9565b9190505550505050565b610e8a82826109ad565b5050565b6003602052815f5260405f20602052805f5260405f205f915091509054906101000a900460ff1681565b610ec3338383610cf6565b5050565b5f602052805f5260405f205f91509050805f015490806001015f9054906101000a900473ffffffffffffffffffffffffffffffffffffffff1690806002018054610f109061177e565b80601f0160208091040260200160405190810160405280929190818152602001828054610f3c9061177e565b8015610f875780601f10610f5e57610100808354040283529160200191610f87565b820191905f5260205f20905b815481529060010190602001808311610f6a57829003601f168201915b5050505050908060030154905084565b610fa133826109ad565b50565b600160035f3373ffffffffffffffffffffffffffffffffffffffff1673ffffffffffffffffffffffffffffffffffffffff1681526020019081526020015f205f8373ffffffffffffffffffffffffffffffffffffffff1673ffffffffffffffffffffffffffffffffffffffff1681526020019081526020015f205f6101000a81548160ff02191690831515021790555050565b60405180608001604052805f81526020015f73ffffffffffffffffffffffffffffffffffffffff168152602001606081526020015f81525090565b5f604051905090565b5f80fd5b5f80fd5b5f73ffffffffffffffffffffffffffffffffffffffff82169050919050565b5f6110ac82611083565b9050919050565b6110bc816110a2565b81146110c6575f80fd5b50565b5f813590506110d7816110b3565b92915050565b5f819050919050565b6110ef816110dd565b81146110f9575f80fd5b50565b5f8135905061110a816110e6565b92915050565b5f80604083850312156111265761112561107b565b5b5f611133858286016110c9565b9250506020611144858286016110fc565b9150509250929050565b611157816110dd565b82525050565b5f81519050919050565b5f82825260208201905092915050565b8281835e5f83830152505050565b5f601f19601f8301169050919050565b5f61119f8261115d565b6111a98185611167565b93506111b9818560208601611177565b6111c281611185565b840191505092915050565b6111d6816110a2565b82525050565b5f60a0820190506111ef5f83018861114e565b81810360208301526112018187611195565b905061121060408301866111cd565b61121d60608301856111cd565b61122a608083018461114e565b9695505050505050565b5f81519050919050565b5f82825260208201905092915050565b5f819050602082019050919050565b611266816110dd565b82525050565b611275816110a2565b82525050565b5f82825260208201905092915050565b5f6112958261115d565b61129f818561127b565b93506112af818560208601611177565b6112b881611185565b840191505092915050565b5f608083015f8301516112d85f86018261125d565b5060208301516112eb602086018261126c565b5060408301518482036040860152611303828261128b565b9150506060830151611318606086018261125d565b508091505092915050565b5f61132e83836112c3565b905092915050565b5f602082019050919050565b5f61134c82611234565b611356818561123e565b9350836020820285016113688561124e565b805f5b858110156113a357848403895281516113848582611323565b945061138f83611336565b925060208a0199505060018101905061136b565b50829750879550505050505092915050565b5f6020820190508181035f8301526113cd8184611342565b905092915050565b5f602082840312156113ea576113e961107b565b5b5f6113f7848285016110c9565b91505092915050565b5f602082840312156114155761141461107b565b5b5f611422848285016110fc565b91505092915050565b5f80fd5b5f80fd5b7f4e487b71000000000000000000000000000000000000000000000000000000005f52604160045260245ffd5b61146982611185565b810181811067ffffffffffffffff8211171561148857611487611433565b5b80604052505050565b5f61149a611072565b90506114a68282611460565b919050565b5f67ffffffffffffffff8211156114c5576114c4611433565b5b6114ce82611185565b9050602081019050919050565b828183375f83830152505050565b5f6114fb6114f6846114ab565b611491565b9050828152602081018484840111156115175761151661142f565b5b6115228482856114db565b509392505050565b5f82601f83011261153e5761153d61142b565b5b813561154e8482602086016114e9565b91505092915050565b5f806040838503121561156d5761156c61107b565b5b5f61157a858286016110c9565b925050602083013567ffffffffffffffff81111561159b5761159a61107f565b5b6115a78582860161152a565b9150509250929050565b5f6020820190506115c45f8301846111cd565b92915050565b5f6020820190506115dd5f83018461114e565b92915050565b5f805f606084860312156115fa576115f961107b565b5b5f611607868287016110c9565b9350506020611618868287016110c9565b925050604084013567ffffffffffffffff8111156116395761163861107f565b5b6116458682870161152a565b9150509250925092565b5f80604083850312156116655761166461107b565b5b5f611672858286016110c9565b9250506020611683858286016110c9565b9150509250929050565b5f8115159050919050565b6116a18161168d565b82525050565b5f6020820190506116ba5f830184611698565b92915050565b5f6080820190506116d35f83018761114e565b6116e060208301866111cd565b81810360408301526116f28185611195565b9050611701606083018461114e565b95945050505050565b5f6020828403121561171f5761171e61107b565b5b5f82013567ffffffffffffffff81111561173c5761173b61107f565b5b6117488482850161152a565b91505092915050565b7f4e487b71000000000000000000000000000000000000000000000000000000005f52602260045260245ffd5b5f600282049050600182168061179557607f821691505b6020821081036117a8576117a7611751565b5b50919050565b7f7573657220776974682074686973206164647265737320646f6e7420686176655f8201527f20706f7374000000000000000000000000000000000000000000000000000000602082015250565b5f611808602583611167565b9150611813826117ae565b604082019050919050565b5f6020820190508181035f830152611835816117fc565b9050919050565b7f4e487b71000000000000000000000000000000000000000000000000000000005f52601160045260245ffd5b5f611873826110dd565b915061187e836110dd565b92508282039050818111156118965761189561183c565b5b92915050565b7f4e487b71000000000000000000000000000000000000000000000000000000005f52603260045260245ffd5b5f6118d3826110dd565b91507fffffffffffffffffffffffffffffffffffffffffffffffffffffffffffffffff82036119055761190461183c565b5b600182019050919050565b7f436f756e74206973206e6f7420696e206c696d697400000000000000000000005f82015250565b5f611944601583611167565b915061194f82611910565b602082019050919050565b5f6020820190508181035f83015261197181611938565b9050919050565b7f596f7520646f6e277420686176652061636365737300000000000000000000005f82015250565b5f6119ac601583611167565b91506119b782611978565b602082019050919050565b5f6020820190508181035f8301526119d9816119a0565b9050919050565b5f819050815f5260205f209050919050565b5f6020601f8301049050919050565b5f82821b905092915050565b5f60088302611a3c7fffffffffffffffffffffffffffffffffffffffffffffffffffffffffffffffff82611a01565b611a468683611a01565b95508019841693508086168417925050509392505050565b5f819050919050565b5f611a81611a7c611a77846110dd565b611a5e565b6110dd565b9050919050565b5f819050919050565b611a9a83611a67565b611aae611aa682611a88565b848454611a0d565b825550505050565b5f90565b611ac2611ab6565b611acd818484611a91565b505050565b5b81811015611af057611ae55f82611aba565b600181019050611ad3565b5050565b601f821115611b3557611b06816119e0565b611b0f846119f2565b81016020851015611b1e578190505b611b32611b2a856119f2565b830182611ad2565b50505b505050565b5f82821c905092915050565b5f611b555f1984600802611b3a565b1980831691505092915050565b5f611b6d8383611b46565b9150826002028217905092915050565b611b868261115d565b67ffffffffffffffff811115611b9f57611b9e611433565b5b611ba9825461177e565b611bb4828285611af4565b5f60209050601f831160018114611be5575f8415611bd3578287015190505b611bdd8582611b62565b865550611c44565b601f198416611bf3866119e0565b5f5b82811015611c1a57848901518255600182019150602085019450602081019050611bf5565b86831015611c375784890151611c33601f891682611b46565b8355505b6001600288020188555050505b50505050505056fea26469706673582212200ed49b389bb85708739cd7de7d97b062b9c9d9ccf68cb288640413116f971ed364736f6c634300081a0033",
					"opcodes": "PUSH1 0x80 PUSH1 0x40 MSTORE CALLVALUE DUP1 ISZERO PUSH1 0xE JUMPI PUSH0 DUP1 REVERT JUMPDEST POP PUSH2 0x1C82 DUP1 PUSH2 0x1C PUSH0 CODECOPY PUSH0 RETURN INVALID PUSH1 0x80 PUSH1 0x40 MSTORE CALLVALUE DUP1 ISZERO PUSH2 0xF JUMPI PUSH0 DUP1 REVERT JUMPDEST POP PUSH1 0x4 CALLDATASIZE LT PUSH2 0xFE JUMPI PUSH0 CALLDATALOAD PUSH1 0xE0 SHR DUP1 PUSH4 0xCF8AACDD GT PUSH2 0x95 JUMPI DUP1 PUSH4 0xDE6F24BB GT PUSH2 0x64 JUMPI DUP1 PUSH4 0xDE6F24BB EQ PUSH2 0x2CE JUMPI DUP1 PUSH4 0xE8D857B0 EQ PUSH2 0x2EA JUMPI DUP1 PUSH4 0xFB46D4C5 EQ PUSH2 0x31D JUMPI DUP1 PUSH4 0xFF9913E8 EQ PUSH2 0x339 JUMPI PUSH2 0xFE JUMP JUMPDEST DUP1 PUSH4 0xCF8AACDD EQ PUSH2 0x24A JUMPI DUP1 PUSH4 0xCFE3D77A EQ PUSH2 0x266 JUMPI DUP1 PUSH4 0xD21D1596 EQ PUSH2 0x282 JUMPI DUP1 PUSH4 0xDC7D0635 EQ PUSH2 0x29E JUMPI PUSH2 0xFE JUMP JUMPDEST DUP1 PUSH4 0x78BAE934 GT PUSH2 0xD1 JUMPI DUP1 PUSH4 0x78BAE934 EQ PUSH2 0x1B2 JUMPI DUP1 PUSH4 0x9139CDA5 EQ PUSH2 0x1CE JUMPI DUP1 PUSH4 0xAF22BF94 EQ PUSH2 0x1FE JUMPI DUP1 PUSH4 0xB88E318D EQ PUSH2 0x22E JUMPI PUSH2 0xFE JUMP JUMPDEST DUP1 PUSH4 0x3BEFEA09 EQ PUSH2 0x102 JUMPI DUP1 PUSH4 0x41599F87 EQ PUSH2 0x136 JUMPI DUP1 PUSH4 0x4DBF27CC EQ PUSH2 0x166 JUMPI DUP1 PUSH4 0x5025C428 EQ PUSH2 0x182 JUMPI JUMPDEST PUSH0 DUP1 REVERT JUMPDEST PUSH2 0x11C PUSH1 0x4 DUP1 CALLDATASIZE SUB DUP2 ADD SWAP1 PUSH2 0x117 SWAP2 SWAP1 PUSH2 0x1110 JUMP JUMPDEST PUSH2 0x355 JUMP JUMPDEST PUSH1 0x40 MLOAD PUSH2 0x12D SWAP6 SWAP5 SWAP4 SWAP3 SWAP2 SWAP1 PUSH2 0x11DC JUMP JUMPDEST PUSH1 0x40 MLOAD DUP1 SWAP2 SUB SWAP1 RETURN JUMPDEST PUSH2 0x150 PUSH1 0x4 DUP1 CALLDATASIZE SUB DUP2 ADD SWAP1 PUSH2 0x14B SWAP2 SWAP1 PUSH2 0x1110 JUMP JUMPDEST PUSH2 0x465 JUMP JUMPDEST PUSH1 0x40 MLOAD PUSH2 0x15D SWAP2 SWAP1 PUSH2 0x13B5 JUMP JUMPDEST PUSH1 0x40 MLOAD DUP1 SWAP2 SUB SWAP1 RETURN JUMPDEST PUSH2 0x180 PUSH1 0x4 DUP1 CALLDATASIZE SUB DUP2 ADD SWAP1 PUSH2 0x17B SWAP2 SWAP1 PUSH2 0x13D5 JUMP JUMPDEST PUSH2 0x709 JUMP JUMPDEST STOP JUMPDEST PUSH2 0x19C PUSH1 0x4 DUP1 CALLDATASIZE SUB DUP2 ADD SWAP1 PUSH2 0x197 SWAP2 SWAP1 PUSH2 0x1400 JUMP JUMPDEST PUSH2 0x7A7 JUMP JUMPDEST PUSH1 0x40 MLOAD PUSH2 0x1A9 SWAP2 SWAP1 PUSH2 0x13B5 JUMP JUMPDEST PUSH1 0x40 MLOAD DUP1 SWAP2 SUB SWAP1 RETURN JUMPDEST PUSH2 0x1CC PUSH1 0x4 DUP1 CALLDATASIZE SUB DUP2 ADD SWAP1 PUSH2 0x1C7 SWAP2 SWAP1 PUSH2 0x1557 JUMP JUMPDEST PUSH2 0x9AD JUMP JUMPDEST STOP JUMPDEST PUSH2 0x1E8 PUSH1 0x4 DUP1 CALLDATASIZE SUB DUP2 ADD SWAP1 PUSH2 0x1E3 SWAP2 SWAP1 PUSH2 0x1110 JUMP JUMPDEST PUSH2 0xBE1 JUMP JUMPDEST PUSH1 0x40 MLOAD PUSH2 0x1F5 SWAP2 SWAP1 PUSH2 0x15B1 JUMP JUMPDEST PUSH1 0x40 MLOAD DUP1 SWAP2 SUB SWAP1 RETURN JUMPDEST PUSH2 0x218 PUSH1 0x4 DUP1 CALLDATASIZE SUB DUP2 ADD SWAP1 PUSH2 0x213 SWAP2 SWAP1 PUSH2 0x1110 JUMP JUMPDEST PUSH2 0xC29 JUMP JUMPDEST PUSH1 0x40 MLOAD PUSH2 0x225 SWAP2 SWAP1 PUSH2 0x15CA JUMP JUMPDEST PUSH1 0x40 MLOAD DUP1 SWAP2 SUB SWAP1 RETURN JUMPDEST PUSH2 0x248 PUSH1 0x4 DUP1 CALLDATASIZE SUB DUP2 ADD SWAP1 PUSH2 0x243 SWAP2 SWAP1 PUSH2 0x15E3 JUMP JUMPDEST PUSH2 0xC54 JUMP JUMPDEST STOP JUMPDEST PUSH2 0x264 PUSH1 0x4 DUP1 CALLDATASIZE SUB DUP2 ADD SWAP1 PUSH2 0x25F SWAP2 SWAP1 PUSH2 0x13D5 JUMP JUMPDEST PUSH2 0xC64 JUMP JUMPDEST STOP JUMPDEST PUSH2 0x280 PUSH1 0x4 DUP1 CALLDATASIZE SUB DUP2 ADD SWAP1 PUSH2 0x27B SWAP2 SWAP1 PUSH2 0x15E3 JUMP JUMPDEST PUSH2 0xCF6 JUMP JUMPDEST STOP JUMPDEST PUSH2 0x29C PUSH1 0x4 DUP1 CALLDATASIZE SUB DUP2 ADD SWAP1 PUSH2 0x297 SWAP2 SWAP1 PUSH2 0x1557 JUMP JUMPDEST PUSH2 0xE80 JUMP JUMPDEST STOP JUMPDEST PUSH2 0x2B8 PUSH1 0x4 DUP1 CALLDATASIZE SUB DUP2 ADD SWAP1 PUSH2 0x2B3 SWAP2 SWAP1 PUSH2 0x164F JUMP JUMPDEST PUSH2 0xE8E JUMP JUMPDEST PUSH1 0x40 MLOAD PUSH2 0x2C5 SWAP2 SWAP1 PUSH2 0x16A7 JUMP JUMPDEST PUSH1 0x40 MLOAD DUP1 SWAP2 SUB SWAP1 RETURN JUMPDEST PUSH2 0x2E8 PUSH1 0x4 DUP1 CALLDATASIZE SUB DUP2 ADD SWAP1 PUSH2 0x2E3 SWAP2 SWAP1 PUSH2 0x1557 JUMP JUMPDEST PUSH2 0xEB8 JUMP JUMPDEST STOP JUMPDEST PUSH2 0x304 PUSH1 0x4 DUP1 CALLDATASIZE SUB DUP2 ADD SWAP1 PUSH2 0x2FF SWAP2 SWAP1 PUSH2 0x1400 JUMP JUMPDEST PUSH2 0xEC7 JUMP JUMPDEST PUSH1 0x40 MLOAD PUSH2 0x314 SWAP5 SWAP4 SWAP3 SWAP2 SWAP1 PUSH2 0x16C0 JUMP JUMPDEST PUSH1 0x40 MLOAD DUP1 SWAP2 SUB SWAP1 RETURN JUMPDEST PUSH2 0x337 PUSH1 0x4 DUP1 CALLDATASIZE SUB DUP2 ADD SWAP1 PUSH2 0x332 SWAP2 SWAP1 PUSH2 0x170A JUMP JUMPDEST PUSH2 0xF97 JUMP JUMPDEST STOP JUMPDEST PUSH2 0x353 PUSH1 0x4 DUP1 CALLDATASIZE SUB DUP2 ADD SWAP1 PUSH2 0x34E SWAP2 SWAP1 PUSH2 0x13D5 JUMP JUMPDEST PUSH2 0xFA4 JUMP JUMPDEST STOP JUMPDEST PUSH1 0x2 PUSH1 0x20 MSTORE DUP2 PUSH0 MSTORE PUSH1 0x40 PUSH0 KECCAK256 DUP2 DUP2 SLOAD DUP2 LT PUSH2 0x36E JUMPI PUSH0 DUP1 REVERT JUMPDEST SWAP1 PUSH0 MSTORE PUSH1 0x20 PUSH0 KECCAK256 SWAP1 PUSH1 0x5 MUL ADD PUSH0 SWAP2 POP SWAP2 POP POP DUP1 PUSH0 ADD SLOAD SWAP1 DUP1 PUSH1 0x1 ADD DUP1 SLOAD PUSH2 0x394 SWAP1 PUSH2 0x177E JUMP JUMPDEST DUP1 PUSH1 0x1F ADD PUSH1 0x20 DUP1 SWAP2 DIV MUL PUSH1 0x20 ADD PUSH1 0x40 MLOAD SWAP1 DUP2 ADD PUSH1 0x40 MSTORE DUP1 SWAP3 SWAP2 SWAP1 DUP2 DUP2 MSTORE PUSH1 0x20 ADD DUP3 DUP1 SLOAD PUSH2 0x3C0 SWAP1 PUSH2 0x177E JUMP JUMPDEST DUP1 ISZERO PUSH2 0x40B JUMPI DUP1 PUSH1 0x1F LT PUSH2 0x3E2 JUMPI PUSH2 0x100 DUP1 DUP4 SLOAD DIV MUL DUP4 MSTORE SWAP2 PUSH1 0x20 ADD SWAP2 PUSH2 0x40B JUMP JUMPDEST DUP3 ADD SWAP2 SWAP1 PUSH0 MSTORE PUSH1 0x20 PUSH0 KECCAK256 SWAP1 JUMPDEST DUP2 SLOAD DUP2 MSTORE SWAP1 PUSH1 0x1 ADD SWAP1 PUSH1 0x20 ADD DUP1 DUP4 GT PUSH2 0x3EE JUMPI DUP3 SWAP1 SUB PUSH1 0x1F AND DUP3 ADD SWAP2 JUMPDEST POP POP POP POP POP SWAP1 DUP1 PUSH1 0x2 ADD PUSH0 SWAP1 SLOAD SWAP1 PUSH2 0x100 EXP SWAP1 DIV PUSH20 0xFFFFFFFFFFFFFFFFFFFFFFFFFFFFFFFFFFFFFFFF AND SWAP1 DUP1 PUSH1 0x3 ADD PUSH0 SWAP1 SLOAD SWAP1 PUSH2 0x100 EXP SWAP1 DIV PUSH20 0xFFFFFFFFFFFFFFFFFFFFFFFFFFFFFFFFFFFFFFFF AND SWAP1 DUP1 PUSH1 0x4 ADD SLOAD SWAP1 POP DUP6 JUMP JUMPDEST PUSH1 0x60 PUSH0 DUP3 GT DUP1 ISZERO PUSH2 0x477 JUMPI POP PUSH1 0x5 SLOAD DUP3 LT JUMPDEST PUSH2 0x4B6 JUMPI PUSH1 0x40 MLOAD PUSH32 0x8C379A000000000000000000000000000000000000000000000000000000000 DUP2 MSTORE PUSH1 0x4 ADD PUSH2 0x4AD SWAP1 PUSH2 0x181E JUMP JUMPDEST PUSH1 0x40 MLOAD DUP1 SWAP2 SUB SWAP1 REVERT JUMPDEST PUSH0 DUP3 PUSH8 0xFFFFFFFFFFFFFFFF DUP2 GT ISZERO PUSH2 0x4D1 JUMPI PUSH2 0x4D0 PUSH2 0x1433 JUMP JUMPDEST JUMPDEST PUSH1 0x40 MLOAD SWAP1 DUP1 DUP3 MSTORE DUP1 PUSH1 0x20 MUL PUSH1 0x20 ADD DUP3 ADD PUSH1 0x40 MSTORE DUP1 ISZERO PUSH2 0x50A JUMPI DUP2 PUSH1 0x20 ADD JUMPDEST PUSH2 0x4F7 PUSH2 0x1037 JUMP JUMPDEST DUP2 MSTORE PUSH1 0x20 ADD SWAP1 PUSH1 0x1 SWAP1 SUB SWAP1 DUP2 PUSH2 0x4EF JUMPI SWAP1 POP JUMPDEST POP SWAP1 POP PUSH0 PUSH1 0x1 PUSH0 DUP7 PUSH20 0xFFFFFFFFFFFFFFFFFFFFFFFFFFFFFFFFFFFFFFFF AND PUSH20 0xFFFFFFFFFFFFFFFFFFFFFFFFFFFFFFFFFFFFFFFF AND DUP2 MSTORE PUSH1 0x20 ADD SWAP1 DUP2 MSTORE PUSH1 0x20 ADD PUSH0 KECCAK256 DUP1 SLOAD SWAP1 POP SWAP1 POP PUSH0 PUSH1 0x1 PUSH0 DUP8 PUSH20 0xFFFFFFFFFFFFFFFFFFFFFFFFFFFFFFFFFFFFFFFF AND PUSH20 0xFFFFFFFFFFFFFFFFFFFFFFFFFFFFFFFFFFFFFFFF AND DUP2 MSTORE PUSH1 0x20 ADD SWAP1 DUP2 MSTORE PUSH1 0x20 ADD PUSH0 KECCAK256 SWAP1 POP PUSH0 DUP1 DUP7 DUP5 PUSH2 0x59F SWAP2 SWAP1 PUSH2 0x1869 JUMP JUMPDEST SWAP1 POP JUMPDEST DUP4 DUP2 LT ISZERO PUSH2 0x6FB JUMPI PUSH0 DUP1 PUSH0 DUP6 DUP5 DUP2 SLOAD DUP2 LT PUSH2 0x5C0 JUMPI PUSH2 0x5BF PUSH2 0x189C JUMP JUMPDEST JUMPDEST SWAP1 PUSH0 MSTORE PUSH1 0x20 PUSH0 KECCAK256 ADD SLOAD DUP2 MSTORE PUSH1 0x20 ADD SWAP1 DUP2 MSTORE PUSH1 0x20 ADD PUSH0 KECCAK256 SWAP1 POP PUSH1 0x40 MLOAD DUP1 PUSH1 0x80 ADD PUSH1 0x40 MSTORE DUP1 DUP3 PUSH0 ADD SLOAD DUP2 MSTORE PUSH1 0x20 ADD DUP3 PUSH1 0x1 ADD PUSH0 SWAP1 SLOAD SWAP1 PUSH2 0x100 EXP SWAP1 DIV PUSH20 0xFFFFFFFFFFFFFFFFFFFFFFFFFFFFFFFFFFFFFFFF AND PUSH20 0xFFFFFFFFFFFFFFFFFFFFFFFFFFFFFFFFFFFFFFFF AND DUP2 MSTORE PUSH1 0x20 ADD DUP3 PUSH1 0x2 ADD DUP1 SLOAD PUSH2 0x63A SWAP1 PUSH2 0x177E JUMP JUMPDEST DUP1 PUSH1 0x1F ADD PUSH1 0x20 DUP1 SWAP2 DIV MUL PUSH1 0x20 ADD PUSH1 0x40 MLOAD SWAP1 DUP2 ADD PUSH1 0x40 MSTORE DUP1 SWAP3 SWAP2 SWAP1 DUP2 DUP2 MSTORE PUSH1 0x20 ADD DUP3 DUP1 SLOAD PUSH2 0x666 SWAP1 PUSH2 0x177E JUMP JUMPDEST DUP1 ISZERO PUSH2 0x6B1 JUMPI DUP1 PUSH1 0x1F LT PUSH2 0x688 JUMPI PUSH2 0x100 DUP1 DUP4 SLOAD DIV MUL DUP4 MSTORE SWAP2 PUSH1 0x20 ADD SWAP2 PUSH2 0x6B1 JUMP JUMPDEST DUP3 ADD SWAP2 SWAP1 PUSH0 MSTORE PUSH1 0x20 PUSH0 KECCAK256 SWAP1 JUMPDEST DUP2 SLOAD DUP2 MSTORE SWAP1 PUSH1 0x1 ADD SWAP1 PUSH1 0x20 ADD DUP1 DUP4 GT PUSH2 0x694 JUMPI DUP3 SWAP1 SUB PUSH1 0x1F AND DUP3 ADD SWAP2 JUMPDEST POP POP POP POP POP DUP2 MSTORE PUSH1 0x20 ADD DUP3 PUSH1 0x3 ADD SLOAD DUP2 MSTORE POP DUP7 DUP5 DUP1 PUSH2 0x6CF SWAP1 PUSH2 0x18C9 JUMP JUMPDEST SWAP6 POP DUP2 MLOAD DUP2 LT PUSH2 0x6E2 JUMPI PUSH2 0x6E1 PUSH2 0x189C JUMP JUMPDEST JUMPDEST PUSH1 0x20 MUL PUSH1 0x20 ADD ADD DUP2 SWAP1 MSTORE POP POP DUP1 DUP1 PUSH1 0x1 ADD SWAP2 POP POP PUSH2 0x5A2 JUMP JUMPDEST POP DUP4 SWAP5 POP POP POP POP POP SWAP3 SWAP2 POP POP JUMP JUMPDEST PUSH1 0x4 PUSH0 CALLER PUSH20 0xFFFFFFFFFFFFFFFFFFFFFFFFFFFFFFFFFFFFFFFF AND PUSH20 0xFFFFFFFFFFFFFFFFFFFFFFFFFFFFFFFFFFFFFFFF AND DUP2 MSTORE PUSH1 0x20 ADD SWAP1 DUP2 MSTORE PUSH1 0x20 ADD PUSH0 KECCAK256 DUP2 SWAP1 DUP1 PUSH1 0x1 DUP2 SLOAD ADD DUP1 DUP3 SSTORE DUP1 SWAP2 POP POP PUSH1 0x1 SWAP1 SUB SWAP1 PUSH0 MSTORE PUSH1 0x20 PUSH0 KECCAK256 ADD PUSH0 SWAP1 SWAP2 SWAP1 SWAP2 SWAP1 SWAP2 PUSH2 0x100 EXP DUP2 SLOAD DUP2 PUSH20 0xFFFFFFFFFFFFFFFFFFFFFFFFFFFFFFFFFFFFFFFF MUL NOT AND SWAP1 DUP4 PUSH20 0xFFFFFFFFFFFFFFFFFFFFFFFFFFFFFFFFFFFFFFFF AND MUL OR SWAP1 SSTORE POP POP JUMP JUMPDEST PUSH1 0x60 PUSH0 DUP3 GT DUP1 ISZERO PUSH2 0x7B9 JUMPI POP PUSH1 0x5 SLOAD DUP3 LT JUMPDEST PUSH2 0x7F8 JUMPI PUSH1 0x40 MLOAD PUSH32 0x8C379A000000000000000000000000000000000000000000000000000000000 DUP2 MSTORE PUSH1 0x4 ADD PUSH2 0x7EF SWAP1 PUSH2 0x195A JUMP JUMPDEST PUSH1 0x40 MLOAD DUP1 SWAP2 SUB SWAP1 REVERT JUMPDEST PUSH0 DUP3 PUSH8 0xFFFFFFFFFFFFFFFF DUP2 GT ISZERO PUSH2 0x813 JUMPI PUSH2 0x812 PUSH2 0x1433 JUMP JUMPDEST JUMPDEST PUSH1 0x40 MLOAD SWAP1 DUP1 DUP3 MSTORE DUP1 PUSH1 0x20 MUL PUSH1 0x20 ADD DUP3 ADD PUSH1 0x40 MSTORE DUP1 ISZERO PUSH2 0x84C JUMPI DUP2 PUSH1 0x20 ADD JUMPDEST PUSH2 0x839 PUSH2 0x1037 JUMP JUMPDEST DUP2 MSTORE PUSH1 0x20 ADD SWAP1 PUSH1 0x1 SWAP1 SUB SWAP1 DUP2 PUSH2 0x831 JUMPI SWAP1 POP JUMPDEST POP SWAP1 POP PUSH0 DUP1 DUP5 PUSH1 0x5 SLOAD PUSH2 0x85F SWAP2 SWAP1 PUSH2 0x1869 JUMP JUMPDEST SWAP1 POP JUMPDEST PUSH1 0x5 SLOAD DUP2 LT ISZERO PUSH2 0x9A2 JUMPI PUSH0 DUP1 PUSH0 DUP4 DUP2 MSTORE PUSH1 0x20 ADD SWAP1 DUP2 MSTORE PUSH1 0x20 ADD PUSH0 KECCAK256 SWAP1 POP PUSH1 0x40 MLOAD DUP1 PUSH1 0x80 ADD PUSH1 0x40 MSTORE DUP1 DUP3 PUSH0 ADD SLOAD DUP2 MSTORE PUSH1 0x20 ADD DUP3 PUSH1 0x1 ADD PUSH0 SWAP1 SLOAD SWAP1 PUSH2 0x100 EXP SWAP1 DIV PUSH20 0xFFFFFFFFFFFFFFFFFFFFFFFFFFFFFFFFFFFFFFFF AND PUSH20 0xFFFFFFFFFFFFFFFFFFFFFFFFFFFFFFFFFFFFFFFF AND DUP2 MSTORE PUSH1 0x20 ADD DUP3 PUSH1 0x2 ADD DUP1 SLOAD PUSH2 0x8E1 SWAP1 PUSH2 0x177E JUMP JUMPDEST DUP1 PUSH1 0x1F ADD PUSH1 0x20 DUP1 SWAP2 DIV MUL PUSH1 0x20 ADD PUSH1 0x40 MLOAD SWAP1 DUP2 ADD PUSH1 0x40 MSTORE DUP1 SWAP3 SWAP2 SWAP1 DUP2 DUP2 MSTORE PUSH1 0x20 ADD DUP3 DUP1 SLOAD PUSH2 0x90D SWAP1 PUSH2 0x177E JUMP JUMPDEST DUP1 ISZERO PUSH2 0x958 JUMPI DUP1 PUSH1 0x1F LT PUSH2 0x92F JUMPI PUSH2 0x100 DUP1 DUP4 SLOAD DIV MUL DUP4 MSTORE SWAP2 PUSH1 0x20 ADD SWAP2 PUSH2 0x958 JUMP JUMPDEST DUP3 ADD SWAP2 SWAP1 PUSH0 MSTORE PUSH1 0x20 PUSH0 KECCAK256 SWAP1 JUMPDEST DUP2 SLOAD DUP2 MSTORE SWAP1 PUSH1 0x1 ADD SWAP1 PUSH1 0x20 ADD DUP1 DUP4 GT PUSH2 0x93B JUMPI DUP3 SWAP1 SUB PUSH1 0x1F AND DUP3 ADD SWAP2 JUMPDEST POP POP POP POP POP DUP2 MSTORE PUSH1 0x20 ADD DUP3 PUSH1 0x3 ADD SLOAD DUP2 MSTORE POP DUP5 DUP5 DUP1 PUSH2 0x976 SWAP1 PUSH2 0x18C9 JUMP JUMPDEST SWAP6 POP DUP2 MLOAD DUP2 LT PUSH2 0x989 JUMPI PUSH2 0x988 PUSH2 0x189C JUMP JUMPDEST JUMPDEST PUSH1 0x20 MUL PUSH1 0x20 ADD ADD DUP2 SWAP1 MSTORE POP POP DUP1 DUP1 PUSH1 0x1 ADD SWAP2 POP POP PUSH2 0x862 JUMP JUMPDEST POP DUP2 SWAP3 POP POP POP SWAP2 SWAP1 POP JUMP JUMPDEST CALLER PUSH20 0xFFFFFFFFFFFFFFFFFFFFFFFFFFFFFFFFFFFFFFFF AND DUP3 PUSH20 0xFFFFFFFFFFFFFFFFFFFFFFFFFFFFFFFFFFFFFFFF AND EQ DUP1 PUSH2 0xA68 JUMPI POP PUSH1 0x3 PUSH0 DUP4 PUSH20 0xFFFFFFFFFFFFFFFFFFFFFFFFFFFFFFFFFFFFFFFF AND PUSH20 0xFFFFFFFFFFFFFFFFFFFFFFFFFFFFFFFFFFFFFFFF AND DUP2 MSTORE PUSH1 0x20 ADD SWAP1 DUP2 MSTORE PUSH1 0x20 ADD PUSH0 KECCAK256 PUSH0 CALLER PUSH20 0xFFFFFFFFFFFFFFFFFFFFFFFFFFFFFFFFFFFFFFFF AND PUSH20 0xFFFFFFFFFFFFFFFFFFFFFFFFFFFFFFFFFFFFFFFF AND DUP2 MSTORE PUSH1 0x20 ADD SWAP1 DUP2 MSTORE PUSH1 0x20 ADD PUSH0 KECCAK256 PUSH0 SWAP1 SLOAD SWAP1 PUSH2 0x100 EXP SWAP1 DIV PUSH1 0xFF AND JUMPDEST PUSH2 0xAA7 JUMPI PUSH1 0x40 MLOAD PUSH32 0x8C379A000000000000000000000000000000000000000000000000000000000 DUP2 MSTORE PUSH1 0x4 ADD PUSH2 0xA9E SWAP1 PUSH2 0x19C2 JUMP JUMPDEST PUSH1 0x40 MLOAD DUP1 SWAP2 SUB SWAP1 REVERT JUMPDEST PUSH1 0x40 MLOAD DUP1 PUSH1 0x80 ADD PUSH1 0x40 MSTORE DUP1 PUSH1 0x5 SLOAD DUP2 MSTORE PUSH1 0x20 ADD DUP4 PUSH20 0xFFFFFFFFFFFFFFFFFFFFFFFFFFFFFFFFFFFFFFFF AND DUP2 MSTORE PUSH1 0x20 ADD DUP3 DUP2 MSTORE PUSH1 0x20 ADD TIMESTAMP DUP2 MSTORE POP PUSH0 DUP1 PUSH1 0x5 SLOAD DUP2 MSTORE PUSH1 0x20 ADD SWAP1 DUP2 MSTORE PUSH1 0x20 ADD PUSH0 KECCAK256 PUSH0 DUP3 ADD MLOAD DUP2 PUSH0 ADD SSTORE PUSH1 0x20 DUP3 ADD MLOAD DUP2 PUSH1 0x1 ADD PUSH0 PUSH2 0x100 EXP DUP2 SLOAD DUP2 PUSH20 0xFFFFFFFFFFFFFFFFFFFFFFFFFFFFFFFFFFFFFFFF MUL NOT AND SWAP1 DUP4 PUSH20 0xFFFFFFFFFFFFFFFFFFFFFFFFFFFFFFFFFFFFFFFF AND MUL OR SWAP1 SSTORE POP PUSH1 0x40 DUP3 ADD MLOAD DUP2 PUSH1 0x2 ADD SWAP1 DUP2 PUSH2 0xB55 SWAP2 SWAP1 PUSH2 0x1B7D JUMP JUMPDEST POP PUSH1 0x60 DUP3 ADD MLOAD DUP2 PUSH1 0x3 ADD SSTORE SWAP1 POP POP PUSH1 0x1 PUSH0 DUP4 PUSH20 0xFFFFFFFFFFFFFFFFFFFFFFFFFFFFFFFFFFFFFFFF AND PUSH20 0xFFFFFFFFFFFFFFFFFFFFFFFFFFFFFFFFFFFFFFFF AND DUP2 MSTORE PUSH1 0x20 ADD SWAP1 DUP2 MSTORE PUSH1 0x20 ADD PUSH0 KECCAK256 PUSH1 0x5 SLOAD SWAP1 DUP1 PUSH1 0x1 DUP2 SLOAD ADD DUP1 DUP3 SSTORE DUP1 SWAP2 POP POP PUSH1 0x1 SWAP1 SUB SWAP1 PUSH0 MSTORE PUSH1 0x20 PUSH0 KECCAK256 ADD PUSH0 SWAP1 SWAP2 SWAP1 SWAP2 SWAP1 SWAP2 POP SSTORE PUSH1 0x5 PUSH0 DUP2 SLOAD DUP1 SWAP3 SWAP2 SWAP1 PUSH2 0xBD8 SWAP1 PUSH2 0x18C9 JUMP JUMPDEST SWAP2 SWAP1 POP SSTORE POP POP POP JUMP JUMPDEST PUSH1 0x4 PUSH1 0x20 MSTORE DUP2 PUSH0 MSTORE PUSH1 0x40 PUSH0 KECCAK256 DUP2 DUP2 SLOAD DUP2 LT PUSH2 0xBFA JUMPI PUSH0 DUP1 REVERT JUMPDEST SWAP1 PUSH0 MSTORE PUSH1 0x20 PUSH0 KECCAK256 ADD PUSH0 SWAP2 POP SWAP2 POP SWAP1 SLOAD SWAP1 PUSH2 0x100 EXP SWAP1 DIV PUSH20 0xFFFFFFFFFFFFFFFFFFFFFFFFFFFFFFFFFFFFFFFF AND DUP2 JUMP JUMPDEST PUSH1 0x1 PUSH1 0x20 MSTORE DUP2 PUSH0 MSTORE PUSH1 0x40 PUSH0 KECCAK256 DUP2 DUP2 SLOAD DUP2 LT PUSH2 0xC42 JUMPI PUSH0 DUP1 REVERT JUMPDEST SWAP1 PUSH0 MSTORE PUSH1 0x20 PUSH0 KECCAK256 ADD PUSH0 SWAP2 POP SWAP2 POP POP SLOAD DUP2 JUMP JUMPDEST PUSH2 0xC5F DUP4 DUP4 DUP4 PUSH2 0xCF6 JUMP JUMPDEST POP POP POP JUMP JUMPDEST PUSH0 PUSH1 0x3 PUSH0 CALLER PUSH20 0xFFFFFFFFFFFFFFFFFFFFFFFFFFFFFFFFFFFFFFFF AND PUSH20 0xFFFFFFFFFFFFFFFFFFFFFFFFFFFFFFFFFFFFFFFF AND DUP2 MSTORE PUSH1 0x20 ADD SWAP1 DUP2 MSTORE PUSH1 0x20 ADD PUSH0 KECCAK256 PUSH0 DUP4 PUSH20 0xFFFFFFFFFFFFFFFFFFFFFFFFFFFFFFFFFFFFFFFF AND PUSH20 0xFFFFFFFFFFFFFFFFFFFFFFFFFFFFFFFFFFFFFFFF AND DUP2 MSTORE PUSH1 0x20 ADD SWAP1 DUP2 MSTORE PUSH1 0x20 ADD PUSH0 KECCAK256 PUSH0 PUSH2 0x100 EXP DUP2 SLOAD DUP2 PUSH1 0xFF MUL NOT AND SWAP1 DUP4 ISZERO ISZERO MUL OR SWAP1 SSTORE POP POP JUMP JUMPDEST PUSH1 0x2 PUSH0 DUP5 PUSH20 0xFFFFFFFFFFFFFFFFFFFFFFFFFFFFFFFFFFFFFFFF AND PUSH20 0xFFFFFFFFFFFFFFFFFFFFFFFFFFFFFFFFFFFFFFFF AND DUP2 MSTORE PUSH1 0x20 ADD SWAP1 DUP2 MSTORE PUSH1 0x20 ADD PUSH0 KECCAK256 PUSH1 0x40 MLOAD DUP1 PUSH1 0xA0 ADD PUSH1 0x40 MSTORE DUP1 PUSH1 0x6 SLOAD DUP2 MSTORE PUSH1 0x20 ADD DUP4 DUP2 MSTORE PUSH1 0x20 ADD DUP6 PUSH20 0xFFFFFFFFFFFFFFFFFFFFFFFFFFFFFFFFFFFFFFFF AND DUP2 MSTORE PUSH1 0x20 ADD DUP5 PUSH20 0xFFFFFFFFFFFFFFFFFFFFFFFFFFFFFFFFFFFFFFFF AND DUP2 MSTORE PUSH1 0x20 ADD TIMESTAMP DUP2 MSTORE POP SWAP1 DUP1 PUSH1 0x1 DUP2 SLOAD ADD DUP1 DUP3 SSTORE DUP1 SWAP2 POP POP PUSH1 0x1 SWAP1 SUB SWAP1 PUSH0 MSTORE PUSH1 0x20 PUSH0 KECCAK256 SWAP1 PUSH1 0x5 MUL ADD PUSH0 SWAP1 SWAP2 SWAP1 SWAP2 SWAP1 SWAP2 POP PUSH0 DUP3 ADD MLOAD DUP2 PUSH0 ADD SSTORE PUSH1 0x20 DUP3 ADD MLOAD DUP2 PUSH1 0x1 ADD SWAP1 DUP2 PUSH2 0xDCB SWAP2 SWAP1 PUSH2 0x1B7D JUMP JUMPDEST POP PUSH1 0x40 DUP3 ADD MLOAD DUP2 PUSH1 0x2 ADD PUSH0 PUSH2 0x100 EXP DUP2 SLOAD DUP2 PUSH20 0xFFFFFFFFFFFFFFFFFFFFFFFFFFFFFFFFFFFFFFFF MUL NOT AND SWAP1 DUP4 PUSH20 0xFFFFFFFFFFFFFFFFFFFFFFFFFFFFFFFFFFFFFFFF AND MUL OR SWAP1 SSTORE POP PUSH1 0x60 DUP3 ADD MLOAD DUP2 PUSH1 0x3 ADD PUSH0 PUSH2 0x100 EXP DUP2 SLOAD DUP2 PUSH20 0xFFFFFFFFFFFFFFFFFFFFFFFFFFFFFFFFFFFFFFFF MUL NOT AND SWAP1 DUP4 PUSH20 0xFFFFFFFFFFFFFFFFFFFFFFFFFFFFFFFFFFFFFFFF AND MUL OR SWAP1 SSTORE POP PUSH1 0x80 DUP3 ADD MLOAD DUP2 PUSH1 0x4 ADD SSTORE POP POP PUSH1 0x6 PUSH0 DUP2 SLOAD DUP1 SWAP3 SWAP2 SWAP1 PUSH2 0xE76 SWAP1 PUSH2 0x18C9 JUMP JUMPDEST SWAP2 SWAP1 POP SSTORE POP POP POP POP JUMP JUMPDEST PUSH2 0xE8A DUP3 DUP3 PUSH2 0x9AD JUMP JUMPDEST POP POP JUMP JUMPDEST PUSH1 0x3 PUSH1 0x20 MSTORE DUP2 PUSH0 MSTORE PUSH1 0x40 PUSH0 KECCAK256 PUSH1 0x20 MSTORE DUP1 PUSH0 MSTORE PUSH1 0x40 PUSH0 KECCAK256 PUSH0 SWAP2 POP SWAP2 POP SWAP1 SLOAD SWAP1 PUSH2 0x100 EXP SWAP1 DIV PUSH1 0xFF AND DUP2 JUMP JUMPDEST PUSH2 0xEC3 CALLER DUP4 DUP4 PUSH2 0xCF6 JUMP JUMPDEST POP POP JUMP JUMPDEST PUSH0 PUSH1 0x20 MSTORE DUP1 PUSH0 MSTORE PUSH1 0x40 PUSH0 KECCAK256 PUSH0 SWAP2 POP SWAP1 POP DUP1 PUSH0 ADD SLOAD SWAP1 DUP1 PUSH1 0x1 ADD PUSH0 SWAP1 SLOAD SWAP1 PUSH2 0x100 EXP SWAP1 DIV PUSH20 0xFFFFFFFFFFFFFFFFFFFFFFFFFFFFFFFFFFFFFFFF AND SWAP1 DUP1 PUSH1 0x2 ADD DUP1 SLOAD PUSH2 0xF10 SWAP1 PUSH2 0x177E JUMP JUMPDEST DUP1 PUSH1 0x1F ADD PUSH1 0x20 DUP1 SWAP2 DIV MUL PUSH1 0x20 ADD PUSH1 0x40 MLOAD SWAP1 DUP2 ADD PUSH1 0x40 MSTORE DUP1 SWAP3 SWAP2 SWAP1 DUP2 DUP2 MSTORE PUSH1 0x20 ADD DUP3 DUP1 SLOAD PUSH2 0xF3C SWAP1 PUSH2 0x177E JUMP JUMPDEST DUP1 ISZERO PUSH2 0xF87 JUMPI DUP1 PUSH1 0x1F LT PUSH2 0xF5E JUMPI PUSH2 0x100 DUP1 DUP4 SLOAD DIV MUL DUP4 MSTORE SWAP2 PUSH1 0x20 ADD SWAP2 PUSH2 0xF87 JUMP JUMPDEST DUP3 ADD SWAP2 SWAP1 PUSH0 MSTORE PUSH1 0x20 PUSH0 KECCAK256 SWAP1 JUMPDEST DUP2 SLOAD DUP2 MSTORE SWAP1 PUSH1 0x1 ADD SWAP1 PUSH1 0x20 ADD DUP1 DUP4 GT PUSH2 0xF6A JUMPI DUP3 SWAP1 SUB PUSH1 0x1F AND DUP3 ADD SWAP2 JUMPDEST POP POP POP POP POP SWAP1 DUP1 PUSH1 0x3 ADD SLOAD SWAP1 POP DUP5 JUMP JUMPDEST PUSH2 0xFA1 CALLER DUP3 PUSH2 0x9AD JUMP JUMPDEST POP JUMP JUMPDEST PUSH1 0x1 PUSH1 0x3 PUSH0 CALLER PUSH20 0xFFFFFFFFFFFFFFFFFFFFFFFFFFFFFFFFFFFFFFFF AND PUSH20 0xFFFFFFFFFFFFFFFFFFFFFFFFFFFFFFFFFFFFFFFF AND DUP2 MSTORE PUSH1 0x20 ADD SWAP1 DUP2 MSTORE PUSH1 0x20 ADD PUSH0 KECCAK256 PUSH0 DUP4 PUSH20 0xFFFFFFFFFFFFFFFFFFFFFFFFFFFFFFFFFFFFFFFF AND PUSH20 0xFFFFFFFFFFFFFFFFFFFFFFFFFFFFFFFFFFFFFFFF AND DUP2 MSTORE PUSH1 0x20 ADD SWAP1 DUP2 MSTORE PUSH1 0x20 ADD PUSH0 KECCAK256 PUSH0 PUSH2 0x100 EXP DUP2 SLOAD DUP2 PUSH1 0xFF MUL NOT AND SWAP1 DUP4 ISZERO ISZERO MUL OR SWAP1 SSTORE POP POP JUMP JUMPDEST PUSH1 0x40 MLOAD DUP1 PUSH1 0x80 ADD PUSH1 0x40 MSTORE DUP1 PUSH0 DUP2 MSTORE PUSH1 0x20 ADD PUSH0 PUSH20 0xFFFFFFFFFFFFFFFFFFFFFFFFFFFFFFFFFFFFFFFF AND DUP2 MSTORE PUSH1 0x20 ADD PUSH1 0x60 DUP2 MSTORE PUSH1 0x20 ADD PUSH0 DUP2 MSTORE POP SWAP1 JUMP JUMPDEST PUSH0 PUSH1 0x40 MLOAD SWAP1 POP SWAP1 JUMP JUMPDEST PUSH0 DUP1 REVERT JUMPDEST PUSH0 DUP1 REVERT JUMPDEST PUSH0 PUSH20 0xFFFFFFFFFFFFFFFFFFFFFFFFFFFFFFFFFFFFFFFF DUP3 AND SWAP1 POP SWAP2 SWAP1 POP JUMP JUMPDEST PUSH0 PUSH2 0x10AC DUP3 PUSH2 0x1083 JUMP JUMPDEST SWAP1 POP SWAP2 SWAP1 POP JUMP JUMPDEST PUSH2 0x10BC DUP2 PUSH2 0x10A2 JUMP JUMPDEST DUP2 EQ PUSH2 0x10C6 JUMPI PUSH0 DUP1 REVERT JUMPDEST POP JUMP JUMPDEST PUSH0 DUP2 CALLDATALOAD SWAP1 POP PUSH2 0x10D7 DUP2 PUSH2 0x10B3 JUMP JUMPDEST SWAP3 SWAP2 POP POP JUMP JUMPDEST PUSH0 DUP2 SWAP1 POP SWAP2 SWAP1 POP JUMP JUMPDEST PUSH2 0x10EF DUP2 PUSH2 0x10DD JUMP JUMPDEST DUP2 EQ PUSH2 0x10F9 JUMPI PUSH0 DUP1 REVERT JUMPDEST POP JUMP JUMPDEST PUSH0 DUP2 CALLDATALOAD SWAP1 POP PUSH2 0x110A DUP2 PUSH2 0x10E6 JUMP JUMPDEST SWAP3 SWAP2 POP POP JUMP JUMPDEST PUSH0 DUP1 PUSH1 0x40 DUP4 DUP6 SUB SLT ISZERO PUSH2 0x1126 JUMPI PUSH2 0x1125 PUSH2 0x107B JUMP JUMPDEST JUMPDEST PUSH0 PUSH2 0x1133 DUP6 DUP3 DUP7 ADD PUSH2 0x10C9 JUMP JUMPDEST SWAP3 POP POP PUSH1 0x20 PUSH2 0x1144 DUP6 DUP3 DUP7 ADD PUSH2 0x10FC JUMP JUMPDEST SWAP2 POP POP SWAP3 POP SWAP3 SWAP1 POP JUMP JUMPDEST PUSH2 0x1157 DUP2 PUSH2 0x10DD JUMP JUMPDEST DUP3 MSTORE POP POP JUMP JUMPDEST PUSH0 DUP2 MLOAD SWAP1 POP SWAP2 SWAP1 POP JUMP JUMPDEST PUSH0 DUP3 DUP3 MSTORE PUSH1 0x20 DUP3 ADD SWAP1 POP SWAP3 SWAP2 POP POP JUMP JUMPDEST DUP3 DUP2 DUP4 MCOPY PUSH0 DUP4 DUP4 ADD MSTORE POP POP POP JUMP JUMPDEST PUSH0 PUSH1 0x1F NOT PUSH1 0x1F DUP4 ADD AND SWAP1 POP SWAP2 SWAP1 POP JUMP JUMPDEST PUSH0 PUSH2 0x119F DUP3 PUSH2 0x115D JUMP JUMPDEST PUSH2 0x11A9 DUP2 DUP6 PUSH2 0x1167 JUMP JUMPDEST SWAP4 POP PUSH2 0x11B9 DUP2 DUP6 PUSH1 0x20 DUP7 ADD PUSH2 0x1177 JUMP JUMPDEST PUSH2 0x11C2 DUP2 PUSH2 0x1185 JUMP JUMPDEST DUP5 ADD SWAP2 POP POP SWAP3 SWAP2 POP POP JUMP JUMPDEST PUSH2 0x11D6 DUP2 PUSH2 0x10A2 JUMP JUMPDEST DUP3 MSTORE POP POP JUMP JUMPDEST PUSH0 PUSH1 0xA0 DUP3 ADD SWAP1 POP PUSH2 0x11EF PUSH0 DUP4 ADD DUP9 PUSH2 0x114E JUMP JUMPDEST DUP2 DUP2 SUB PUSH1 0x20 DUP4 ADD MSTORE PUSH2 0x1201 DUP2 DUP8 PUSH2 0x1195 JUMP JUMPDEST SWAP1 POP PUSH2 0x1210 PUSH1 0x40 DUP4 ADD DUP7 PUSH2 0x11CD JUMP JUMPDEST PUSH2 0x121D PUSH1 0x60 DUP4 ADD DUP6 PUSH2 0x11CD JUMP JUMPDEST PUSH2 0x122A PUSH1 0x80 DUP4 ADD DUP5 PUSH2 0x114E JUMP JUMPDEST SWAP7 SWAP6 POP POP POP POP POP POP JUMP JUMPDEST PUSH0 DUP2 MLOAD SWAP1 POP SWAP2 SWAP1 POP JUMP JUMPDEST PUSH0 DUP3 DUP3 MSTORE PUSH1 0x20 DUP3 ADD SWAP1 POP SWAP3 SWAP2 POP POP JUMP JUMPDEST PUSH0 DUP2 SWAP1 POP PUSH1 0x20 DUP3 ADD SWAP1 POP SWAP2 SWAP1 POP JUMP JUMPDEST PUSH2 0x1266 DUP2 PUSH2 0x10DD JUMP JUMPDEST DUP3 MSTORE POP POP JUMP JUMPDEST PUSH2 0x1275 DUP2 PUSH2 0x10A2 JUMP JUMPDEST DUP3 MSTORE POP POP JUMP JUMPDEST PUSH0 DUP3 DUP3 MSTORE PUSH1 0x20 DUP3 ADD SWAP1 POP SWAP3 SWAP2 POP POP JUMP JUMPDEST PUSH0 PUSH2 0x1295 DUP3 PUSH2 0x115D JUMP JUMPDEST PUSH2 0x129F DUP2 DUP6 PUSH2 0x127B JUMP JUMPDEST SWAP4 POP PUSH2 0x12AF DUP2 DUP6 PUSH1 0x20 DUP7 ADD PUSH2 0x1177 JUMP JUMPDEST PUSH2 0x12B8 DUP2 PUSH2 0x1185 JUMP JUMPDEST DUP5 ADD SWAP2 POP POP SWAP3 SWAP2 POP POP JUMP JUMPDEST PUSH0 PUSH1 0x80 DUP4 ADD PUSH0 DUP4 ADD MLOAD PUSH2 0x12D8 PUSH0 DUP7 ADD DUP3 PUSH2 0x125D JUMP JUMPDEST POP PUSH1 0x20 DUP4 ADD MLOAD PUSH2 0x12EB PUSH1 0x20 DUP7 ADD DUP3 PUSH2 0x126C JUMP JUMPDEST POP PUSH1 0x40 DUP4 ADD MLOAD DUP5 DUP3 SUB PUSH1 0x40 DUP7 ADD MSTORE PUSH2 0x1303 DUP3 DUP3 PUSH2 0x128B JUMP JUMPDEST SWAP2 POP POP PUSH1 0x60 DUP4 ADD MLOAD PUSH2 0x1318 PUSH1 0x60 DUP7 ADD DUP3 PUSH2 0x125D JUMP JUMPDEST POP DUP1 SWAP2 POP POP SWAP3 SWAP2 POP POP JUMP JUMPDEST PUSH0 PUSH2 0x132E DUP4 DUP4 PUSH2 0x12C3 JUMP JUMPDEST SWAP1 POP SWAP3 SWAP2 POP POP JUMP JUMPDEST PUSH0 PUSH1 0x20 DUP3 ADD SWAP1 POP SWAP2 SWAP1 POP JUMP JUMPDEST PUSH0 PUSH2 0x134C DUP3 PUSH2 0x1234 JUMP JUMPDEST PUSH2 0x1356 DUP2 DUP6 PUSH2 0x123E JUMP JUMPDEST SWAP4 POP DUP4 PUSH1 0x20 DUP3 MUL DUP6 ADD PUSH2 0x1368 DUP6 PUSH2 0x124E JUMP JUMPDEST DUP1 PUSH0 JUMPDEST DUP6 DUP2 LT ISZERO PUSH2 0x13A3 JUMPI DUP5 DUP5 SUB DUP10 MSTORE DUP2 MLOAD PUSH2 0x1384 DUP6 DUP3 PUSH2 0x1323 JUMP JUMPDEST SWAP5 POP PUSH2 0x138F DUP4 PUSH2 0x1336 JUMP JUMPDEST SWAP3 POP PUSH1 0x20 DUP11 ADD SWAP10 POP POP PUSH1 0x1 DUP2 ADD SWAP1 POP PUSH2 0x136B JUMP JUMPDEST POP DUP3 SWAP8 POP DUP8 SWAP6 POP POP POP POP POP POP SWAP3 SWAP2 POP POP JUMP JUMPDEST PUSH0 PUSH1 0x20 DUP3 ADD SWAP1 POP DUP2 DUP2 SUB PUSH0 DUP4 ADD MSTORE PUSH2 0x13CD DUP2 DUP5 PUSH2 0x1342 JUMP JUMPDEST SWAP1 POP SWAP3 SWAP2 POP POP JUMP JUMPDEST PUSH0 PUSH1 0x20 DUP3 DUP5 SUB SLT ISZERO PUSH2 0x13EA JUMPI PUSH2 0x13E9 PUSH2 0x107B JUMP JUMPDEST JUMPDEST PUSH0 PUSH2 0x13F7 DUP5 DUP3 DUP6 ADD PUSH2 0x10C9 JUMP JUMPDEST SWAP2 POP POP SWAP3 SWAP2 POP POP JUMP JUMPDEST PUSH0 PUSH1 0x20 DUP3 DUP5 SUB SLT ISZERO PUSH2 0x1415 JUMPI PUSH2 0x1414 PUSH2 0x107B JUMP JUMPDEST JUMPDEST PUSH0 PUSH2 0x1422 DUP5 DUP3 DUP6 ADD PUSH2 0x10FC JUMP JUMPDEST SWAP2 POP POP SWAP3 SWAP2 POP POP JUMP JUMPDEST PUSH0 DUP1 REVERT JUMPDEST PUSH0 DUP1 REVERT JUMPDEST PUSH32 0x4E487B7100000000000000000000000000000000000000000000000000000000 PUSH0 MSTORE PUSH1 0x41 PUSH1 0x4 MSTORE PUSH1 0x24 PUSH0 REVERT JUMPDEST PUSH2 0x1469 DUP3 PUSH2 0x1185 JUMP JUMPDEST DUP2 ADD DUP2 DUP2 LT PUSH8 0xFFFFFFFFFFFFFFFF DUP3 GT OR ISZERO PUSH2 0x1488 JUMPI PUSH2 0x1487 PUSH2 0x1433 JUMP JUMPDEST JUMPDEST DUP1 PUSH1 0x40 MSTORE POP POP POP JUMP JUMPDEST PUSH0 PUSH2 0x149A PUSH2 0x1072 JUMP JUMPDEST SWAP1 POP PUSH2 0x14A6 DUP3 DUP3 PUSH2 0x1460 JUMP JUMPDEST SWAP2 SWAP1 POP JUMP JUMPDEST PUSH0 PUSH8 0xFFFFFFFFFFFFFFFF DUP3 GT ISZERO PUSH2 0x14C5 JUMPI PUSH2 0x14C4 PUSH2 0x1433 JUMP JUMPDEST JUMPDEST PUSH2 0x14CE DUP3 PUSH2 0x1185 JUMP JUMPDEST SWAP1 POP PUSH1 0x20 DUP2 ADD SWAP1 POP SWAP2 SWAP1 POP JUMP JUMPDEST DUP3 DUP2 DUP4 CALLDATACOPY PUSH0 DUP4 DUP4 ADD MSTORE POP POP POP JUMP JUMPDEST PUSH0 PUSH2 0x14FB PUSH2 0x14F6 DUP5 PUSH2 0x14AB JUMP JUMPDEST PUSH2 0x1491 JUMP JUMPDEST SWAP1 POP DUP3 DUP2 MSTORE PUSH1 0x20 DUP2 ADD DUP5 DUP5 DUP5 ADD GT ISZERO PUSH2 0x1517 JUMPI PUSH2 0x1516 PUSH2 0x142F JUMP JUMPDEST JUMPDEST PUSH2 0x1522 DUP5 DUP3 DUP6 PUSH2 0x14DB JUMP JUMPDEST POP SWAP4 SWAP3 POP POP POP JUMP JUMPDEST PUSH0 DUP3 PUSH1 0x1F DUP4 ADD SLT PUSH2 0x153E JUMPI PUSH2 0x153D PUSH2 0x142B JUMP JUMPDEST JUMPDEST DUP2 CALLDATALOAD PUSH2 0x154E DUP5 DUP3 PUSH1 0x20 DUP7 ADD PUSH2 0x14E9 JUMP JUMPDEST SWAP2 POP POP SWAP3 SWAP2 POP POP JUMP JUMPDEST PUSH0 DUP1 PUSH1 0x40 DUP4 DUP6 SUB SLT ISZERO PUSH2 0x156D JUMPI PUSH2 0x156C PUSH2 0x107B JUMP JUMPDEST JUMPDEST PUSH0 PUSH2 0x157A DUP6 DUP3 DUP7 ADD PUSH2 0x10C9 JUMP JUMPDEST SWAP3 POP POP PUSH1 0x20 DUP4 ADD CALLDATALOAD PUSH8 0xFFFFFFFFFFFFFFFF DUP2 GT ISZERO PUSH2 0x159B JUMPI PUSH2 0x159A PUSH2 0x107F JUMP JUMPDEST JUMPDEST PUSH2 0x15A7 DUP6 DUP3 DUP7 ADD PUSH2 0x152A JUMP JUMPDEST SWAP2 POP POP SWAP3 POP SWAP3 SWAP1 POP JUMP JUMPDEST PUSH0 PUSH1 0x20 DUP3 ADD SWAP1 POP PUSH2 0x15C4 PUSH0 DUP4 ADD DUP5 PUSH2 0x11CD JUMP JUMPDEST SWAP3 SWAP2 POP POP JUMP JUMPDEST PUSH0 PUSH1 0x20 DUP3 ADD SWAP1 POP PUSH2 0x15DD PUSH0 DUP4 ADD DUP5 PUSH2 0x114E JUMP JUMPDEST SWAP3 SWAP2 POP POP JUMP JUMPDEST PUSH0 DUP1 PUSH0 PUSH1 0x60 DUP5 DUP7 SUB SLT ISZERO PUSH2 0x15FA JUMPI PUSH2 0x15F9 PUSH2 0x107B JUMP JUMPDEST JUMPDEST PUSH0 PUSH2 0x1607 DUP7 DUP3 DUP8 ADD PUSH2 0x10C9 JUMP JUMPDEST SWAP4 POP POP PUSH1 0x20 PUSH2 0x1618 DUP7 DUP3 DUP8 ADD PUSH2 0x10C9 JUMP JUMPDEST SWAP3 POP POP PUSH1 0x40 DUP5 ADD CALLDATALOAD PUSH8 0xFFFFFFFFFFFFFFFF DUP2 GT ISZERO PUSH2 0x1639 JUMPI PUSH2 0x1638 PUSH2 0x107F JUMP JUMPDEST JUMPDEST PUSH2 0x1645 DUP7 DUP3 DUP8 ADD PUSH2 0x152A JUMP JUMPDEST SWAP2 POP POP SWAP3 POP SWAP3 POP SWAP3 JUMP JUMPDEST PUSH0 DUP1 PUSH1 0x40 DUP4 DUP6 SUB SLT ISZERO PUSH2 0x1665 JUMPI PUSH2 0x1664 PUSH2 0x107B JUMP JUMPDEST JUMPDEST PUSH0 PUSH2 0x1672 DUP6 DUP3 DUP7 ADD PUSH2 0x10C9 JUMP JUMPDEST SWAP3 POP POP PUSH1 0x20 PUSH2 0x1683 DUP6 DUP3 DUP7 ADD PUSH2 0x10C9 JUMP JUMPDEST SWAP2 POP POP SWAP3 POP SWAP3 SWAP1 POP JUMP JUMPDEST PUSH0 DUP2 ISZERO ISZERO SWAP1 POP SWAP2 SWAP1 POP JUMP JUMPDEST PUSH2 0x16A1 DUP2 PUSH2 0x168D JUMP JUMPDEST DUP3 MSTORE POP POP JUMP JUMPDEST PUSH0 PUSH1 0x20 DUP3 ADD SWAP1 POP PUSH2 0x16BA PUSH0 DUP4 ADD DUP5 PUSH2 0x1698 JUMP JUMPDEST SWAP3 SWAP2 POP POP JUMP JUMPDEST PUSH0 PUSH1 0x80 DUP3 ADD SWAP1 POP PUSH2 0x16D3 PUSH0 DUP4 ADD DUP8 PUSH2 0x114E JUMP JUMPDEST PUSH2 0x16E0 PUSH1 0x20 DUP4 ADD DUP7 PUSH2 0x11CD JUMP JUMPDEST DUP2 DUP2 SUB PUSH1 0x40 DUP4 ADD MSTORE PUSH2 0x16F2 DUP2 DUP6 PUSH2 0x1195 JUMP JUMPDEST SWAP1 POP PUSH2 0x1701 PUSH1 0x60 DUP4 ADD DUP5 PUSH2 0x114E JUMP JUMPDEST SWAP6 SWAP5 POP POP POP POP POP JUMP JUMPDEST PUSH0 PUSH1 0x20 DUP3 DUP5 SUB SLT ISZERO PUSH2 0x171F JUMPI PUSH2 0x171E PUSH2 0x107B JUMP JUMPDEST JUMPDEST PUSH0 DUP3 ADD CALLDATALOAD PUSH8 0xFFFFFFFFFFFFFFFF DUP2 GT ISZERO PUSH2 0x173C JUMPI PUSH2 0x173B PUSH2 0x107F JUMP JUMPDEST JUMPDEST PUSH2 0x1748 DUP5 DUP3 DUP6 ADD PUSH2 0x152A JUMP JUMPDEST SWAP2 POP POP SWAP3 SWAP2 POP POP JUMP JUMPDEST PUSH32 0x4E487B7100000000000000000000000000000000000000000000000000000000 PUSH0 MSTORE PUSH1 0x22 PUSH1 0x4 MSTORE PUSH1 0x24 PUSH0 REVERT JUMPDEST PUSH0 PUSH1 0x2 DUP3 DIV SWAP1 POP PUSH1 0x1 DUP3 AND DUP1 PUSH2 0x1795 JUMPI PUSH1 0x7F DUP3 AND SWAP2 POP JUMPDEST PUSH1 0x20 DUP3 LT DUP2 SUB PUSH2 0x17A8 JUMPI PUSH2 0x17A7 PUSH2 0x1751 JUMP JUMPDEST JUMPDEST POP SWAP2 SWAP1 POP JUMP JUMPDEST PUSH32 0x7573657220776974682074686973206164647265737320646F6E742068617665 PUSH0 DUP3 ADD MSTORE PUSH32 0x20706F7374000000000000000000000000000000000000000000000000000000 PUSH1 0x20 DUP3 ADD MSTORE POP JUMP JUMPDEST PUSH0 PUSH2 0x1808 PUSH1 0x25 DUP4 PUSH2 0x1167 JUMP JUMPDEST SWAP2 POP PUSH2 0x1813 DUP3 PUSH2 0x17AE JUMP JUMPDEST PUSH1 0x40 DUP3 ADD SWAP1 POP SWAP2 SWAP1 POP JUMP JUMPDEST PUSH0 PUSH1 0x20 DUP3 ADD SWAP1 POP DUP2 DUP2 SUB PUSH0 DUP4 ADD MSTORE PUSH2 0x1835 DUP2 PUSH2 0x17FC JUMP JUMPDEST SWAP1 POP SWAP2 SWAP1 POP JUMP JUMPDEST PUSH32 0x4E487B7100000000000000000000000000000000000000000000000000000000 PUSH0 MSTORE PUSH1 0x11 PUSH1 0x4 MSTORE PUSH1 0x24 PUSH0 REVERT JUMPDEST PUSH0 PUSH2 0x1873 DUP3 PUSH2 0x10DD JUMP JUMPDEST SWAP2 POP PUSH2 0x187E DUP4 PUSH2 0x10DD JUMP JUMPDEST SWAP3 POP DUP3 DUP3 SUB SWAP1 POP DUP2 DUP2 GT ISZERO PUSH2 0x1896 JUMPI PUSH2 0x1895 PUSH2 0x183C JUMP JUMPDEST JUMPDEST SWAP3 SWAP2 POP POP JUMP JUMPDEST PUSH32 0x4E487B7100000000000000000000000000000000000000000000000000000000 PUSH0 MSTORE PUSH1 0x32 PUSH1 0x4 MSTORE PUSH1 0x24 PUSH0 REVERT JUMPDEST PUSH0 PUSH2 0x18D3 DUP3 PUSH2 0x10DD JUMP JUMPDEST SWAP2 POP PUSH32 0xFFFFFFFFFFFFFFFFFFFFFFFFFFFFFFFFFFFFFFFFFFFFFFFFFFFFFFFFFFFFFFFF DUP3 SUB PUSH2 0x1905 JUMPI PUSH2 0x1904 PUSH2 0x183C JUMP JUMPDEST JUMPDEST PUSH1 0x1 DUP3 ADD SWAP1 POP SWAP2 SWAP1 POP JUMP JUMPDEST PUSH32 0x436F756E74206973206E6F7420696E206C696D69740000000000000000000000 PUSH0 DUP3 ADD MSTORE POP JUMP JUMPDEST PUSH0 PUSH2 0x1944 PUSH1 0x15 DUP4 PUSH2 0x1167 JUMP JUMPDEST SWAP2 POP PUSH2 0x194F DUP3 PUSH2 0x1910 JUMP JUMPDEST PUSH1 0x20 DUP3 ADD SWAP1 POP SWAP2 SWAP1 POP JUMP JUMPDEST PUSH0 PUSH1 0x20 DUP3 ADD SWAP1 POP DUP2 DUP2 SUB PUSH0 DUP4 ADD MSTORE PUSH2 0x1971 DUP2 PUSH2 0x1938 JUMP JUMPDEST SWAP1 POP SWAP2 SWAP1 POP JUMP JUMPDEST PUSH32 0x596F7520646F6E27742068617665206163636573730000000000000000000000 PUSH0 DUP3 ADD MSTORE POP JUMP JUMPDEST PUSH0 PUSH2 0x19AC PUSH1 0x15 DUP4 PUSH2 0x1167 JUMP JUMPDEST SWAP2 POP PUSH2 0x19B7 DUP3 PUSH2 0x1978 JUMP JUMPDEST PUSH1 0x20 DUP3 ADD SWAP1 POP SWAP2 SWAP1 POP JUMP JUMPDEST PUSH0 PUSH1 0x20 DUP3 ADD SWAP1 POP DUP2 DUP2 SUB PUSH0 DUP4 ADD MSTORE PUSH2 0x19D9 DUP2 PUSH2 0x19A0 JUMP JUMPDEST SWAP1 POP SWAP2 SWAP1 POP JUMP JUMPDEST PUSH0 DUP2 SWAP1 POP DUP2 PUSH0 MSTORE PUSH1 0x20 PUSH0 KECCAK256 SWAP1 POP SWAP2 SWAP1 POP JUMP JUMPDEST PUSH0 PUSH1 0x20 PUSH1 0x1F DUP4 ADD DIV SWAP1 POP SWAP2 SWAP1 POP JUMP JUMPDEST PUSH0 DUP3 DUP3 SHL SWAP1 POP SWAP3 SWAP2 POP POP JUMP JUMPDEST PUSH0 PUSH1 0x8 DUP4 MUL PUSH2 0x1A3C PUSH32 0xFFFFFFFFFFFFFFFFFFFFFFFFFFFFFFFFFFFFFFFFFFFFFFFFFFFFFFFFFFFFFFFF DUP3 PUSH2 0x1A01 JUMP JUMPDEST PUSH2 0x1A46 DUP7 DUP4 PUSH2 0x1A01 JUMP JUMPDEST SWAP6 POP DUP1 NOT DUP5 AND SWAP4 POP DUP1 DUP7 AND DUP5 OR SWAP3 POP POP POP SWAP4 SWAP3 POP POP POP JUMP JUMPDEST PUSH0 DUP2 SWAP1 POP SWAP2 SWAP1 POP JUMP JUMPDEST PUSH0 PUSH2 0x1A81 PUSH2 0x1A7C PUSH2 0x1A77 DUP5 PUSH2 0x10DD JUMP JUMPDEST PUSH2 0x1A5E JUMP JUMPDEST PUSH2 0x10DD JUMP JUMPDEST SWAP1 POP SWAP2 SWAP1 POP JUMP JUMPDEST PUSH0 DUP2 SWAP1 POP SWAP2 SWAP1 POP JUMP JUMPDEST PUSH2 0x1A9A DUP4 PUSH2 0x1A67 JUMP JUMPDEST PUSH2 0x1AAE PUSH2 0x1AA6 DUP3 PUSH2 0x1A88 JUMP JUMPDEST DUP5 DUP5 SLOAD PUSH2 0x1A0D JUMP JUMPDEST DUP3 SSTORE POP POP POP POP JUMP JUMPDEST PUSH0 SWAP1 JUMP JUMPDEST PUSH2 0x1AC2 PUSH2 0x1AB6 JUMP JUMPDEST PUSH2 0x1ACD DUP2 DUP5 DUP5 PUSH2 0x1A91 JUMP JUMPDEST POP POP POP JUMP JUMPDEST JUMPDEST DUP2 DUP2 LT ISZERO PUSH2 0x1AF0 JUMPI PUSH2 0x1AE5 PUSH0 DUP3 PUSH2 0x1ABA JUMP JUMPDEST PUSH1 0x1 DUP2 ADD SWAP1 POP PUSH2 0x1AD3 JUMP JUMPDEST POP POP JUMP JUMPDEST PUSH1 0x1F DUP3 GT ISZERO PUSH2 0x1B35 JUMPI PUSH2 0x1B06 DUP2 PUSH2 0x19E0 JUMP JUMPDEST PUSH2 0x1B0F DUP5 PUSH2 0x19F2 JUMP JUMPDEST DUP2 ADD PUSH1 0x20 DUP6 LT ISZERO PUSH2 0x1B1E JUMPI DUP2 SWAP1 POP JUMPDEST PUSH2 0x1B32 PUSH2 0x1B2A DUP6 PUSH2 0x19F2 JUMP JUMPDEST DUP4 ADD DUP3 PUSH2 0x1AD2 JUMP JUMPDEST POP POP JUMPDEST POP POP POP JUMP JUMPDEST PUSH0 DUP3 DUP3 SHR SWAP1 POP SWAP3 SWAP2 POP POP JUMP JUMPDEST PUSH0 PUSH2 0x1B55 PUSH0 NOT DUP5 PUSH1 0x8 MUL PUSH2 0x1B3A JUMP JUMPDEST NOT DUP1 DUP4 AND SWAP2 POP POP SWAP3 SWAP2 POP POP JUMP JUMPDEST PUSH0 PUSH2 0x1B6D DUP4 DUP4 PUSH2 0x1B46 JUMP JUMPDEST SWAP2 POP DUP3 PUSH1 0x2 MUL DUP3 OR SWAP1 POP SWAP3 SWAP2 POP POP JUMP JUMPDEST PUSH2 0x1B86 DUP3 PUSH2 0x115D JUMP JUMPDEST PUSH8 0xFFFFFFFFFFFFFFFF DUP2 GT ISZERO PUSH2 0x1B9F JUMPI PUSH2 0x1B9E PUSH2 0x1433 JUMP JUMPDEST JUMPDEST PUSH2 0x1BA9 DUP3 SLOAD PUSH2 0x177E JUMP JUMPDEST PUSH2 0x1BB4 DUP3 DUP3 DUP6 PUSH2 0x1AF4 JUMP JUMPDEST PUSH0 PUSH1 0x20 SWAP1 POP PUSH1 0x1F DUP4 GT PUSH1 0x1 DUP2 EQ PUSH2 0x1BE5 JUMPI PUSH0 DUP5 ISZERO PUSH2 0x1BD3 JUMPI DUP3 DUP8 ADD MLOAD SWAP1 POP JUMPDEST PUSH2 0x1BDD DUP6 DUP3 PUSH2 0x1B62 JUMP JUMPDEST DUP7 SSTORE POP PUSH2 0x1C44 JUMP JUMPDEST PUSH1 0x1F NOT DUP5 AND PUSH2 0x1BF3 DUP7 PUSH2 0x19E0 JUMP JUMPDEST PUSH0 JUMPDEST DUP3 DUP2 LT ISZERO PUSH2 0x1C1A JUMPI DUP5 DUP10 ADD MLOAD DUP3 SSTORE PUSH1 0x1 DUP3 ADD SWAP2 POP PUSH1 0x20 DUP6 ADD SWAP5 POP PUSH1 0x20 DUP2 ADD SWAP1 POP PUSH2 0x1BF5 JUMP JUMPDEST DUP7 DUP4 LT ISZERO PUSH2 0x1C37 JUMPI DUP5 DUP10 ADD MLOAD PUSH2 0x1C33 PUSH1 0x1F DUP10 AND DUP3 PUSH2 0x1B46 JUMP JUMPDEST DUP4 SSTORE POP JUMPDEST PUSH1 0x1 PUSH1 0x2 DUP9 MUL ADD DUP9 SSTORE POP POP POP JUMPDEST POP POP POP POP POP POP JUMP INVALID LOG2 PUSH5 0x6970667358 0x22 SLT KECCAK256 0xE 0xD4 SWAP12 CODESIZE SWAP12 0xB8 JUMPI ADDMOD PUSH20 0x9CD7DE7D97B062B9C9D9CCF68CB288640413116F SWAP8 0x1E 0xD3 PUSH5 0x736F6C6343 STOP ADDMOD BYTE STOP CALLER "
				},
				"gasEstimates": {
					"creation": {
						"codeDepositCost": "1459600",
						"executionCost": "1525",
						"totalCost": "1461125"
					},
					"external": {
						"_sendMessage(address,address,string)": "infinite",
						"_tweet(address,string)": "infinite",
						"allow(address)": "24978",
						"conversations(address,uint256)": "infinite",
						"disAllow(address)": "24912",
						"follow(address)": "49180",
						"following(address,uint256)": "infinite",
						"getLatestOfUser(address,uint256)": "infinite",
						"getLatestTweet(uint256)": "infinite",
						"operator(address,address)": "infinite",
						"sendMessage(address,address,string)": "infinite",
						"sendMessage(address,string)": "infinite",
						"tweet(address,string)": "infinite",
						"tweet(string)": "infinite",
						"tweets(uint256)": "infinite",
						"tweetsOf(address,uint256)": "infinite"
					}
				},
				"methodIdentifiers": {
					"_sendMessage(address,address,string)": "cfe3d77a",
					"_tweet(address,string)": "78bae934",
					"allow(address)": "ff9913e8",
					"conversations(address,uint256)": "3befea09",
					"disAllow(address)": "cf8aacdd",
					"follow(address)": "4dbf27cc",
					"following(address,uint256)": "9139cda5",
					"getLatestOfUser(address,uint256)": "41599f87",
					"getLatestTweet(uint256)": "5025c428",
					"operator(address,address)": "dc7d0635",
					"sendMessage(address,address,string)": "b88e318d",
					"sendMessage(address,string)": "de6f24bb",
					"tweet(address,string)": "d21d1596",
					"tweet(string)": "fb46d4c5",
					"tweets(uint256)": "e8d857b0",
					"tweetsOf(address,uint256)": "af22bf94"
				}
			},
			"storageLayout": {
				"storage": [
					{
						"astId": 26,
						"contract": "contracts/4_Twitter.sol:Twitter",
						"label": "tweets",
						"offset": 0,
						"slot": "0",
						"type": "t_mapping(t_uint256,t_struct(Tweet)10_storage)"
					},
					{
						"astId": 31,
						"contract": "contracts/4_Twitter.sol:Twitter",
						"label": "tweetsOf",
						"offset": 0,
						"slot": "1",
						"type": "t_mapping(t_address,t_array(t_uint256)dyn_storage)"
					},
					{
						"astId": 37,
						"contract": "contracts/4_Twitter.sol:Twitter",
						"label": "conversations",
						"offset": 0,
						"slot": "2",
						"type": "t_mapping(t_address,t_array(t_struct(message)21_storage)dyn_storage)"
					},
					{
						"astId": 43,
						"contract": "contracts/4_Twitter.sol:Twitter",
						"label": "operator",
						"offset": 0,
						"slot": "3",
						"type": "t_mapping(t_address,t_mapping(t_address,t_bool))"
					},
					{
						"astId": 48,
						"contract": "contracts/4_Twitter.sol:Twitter",
						"label": "following",
						"offset": 0,
						"slot": "4",
						"type": "t_mapping(t_address,t_array(t_address)dyn_storage)"
					},
					{
						"astId": 50,
						"contract": "contracts/4_Twitter.sol:Twitter",
						"label": "nextId",
						"offset": 0,
						"slot": "5",
						"type": "t_uint256"
					},
					{
						"astId": 52,
						"contract": "contracts/4_Twitter.sol:Twitter",
						"label": "messageId",
						"offset": 0,
						"slot": "6",
						"type": "t_uint256"
					}
				],
				"types": {
					"t_address": {
						"encoding": "inplace",
						"label": "address",
						"numberOfBytes": "20"
					},
					"t_array(t_address)dyn_storage": {
						"base": "t_address",
						"encoding": "dynamic_array",
						"label": "address[]",
						"numberOfBytes": "32"
					},
					"t_array(t_struct(message)21_storage)dyn_storage": {
						"base": "t_struct(message)21_storage",
						"encoding": "dynamic_array",
						"label": "struct Twitter.message[]",
						"numberOfBytes": "32"
					},
					"t_array(t_uint256)dyn_storage": {
						"base": "t_uint256",
						"encoding": "dynamic_array",
						"label": "uint256[]",
						"numberOfBytes": "32"
					},
					"t_bool": {
						"encoding": "inplace",
						"label": "bool",
						"numberOfBytes": "1"
					},
					"t_mapping(t_address,t_array(t_address)dyn_storage)": {
						"encoding": "mapping",
						"key": "t_address",
						"label": "mapping(address => address[])",
						"numberOfBytes": "32",
						"value": "t_array(t_address)dyn_storage"
					},
					"t_mapping(t_address,t_array(t_struct(message)21_storage)dyn_storage)": {
						"encoding": "mapping",
						"key": "t_address",
						"label": "mapping(address => struct Twitter.message[])",
						"numberOfBytes": "32",
						"value": "t_array(t_struct(message)21_storage)dyn_storage"
					},
					"t_mapping(t_address,t_array(t_uint256)dyn_storage)": {
						"encoding": "mapping",
						"key": "t_address",
						"label": "mapping(address => uint256[])",
						"numberOfBytes": "32",
						"value": "t_array(t_uint256)dyn_storage"
					},
					"t_mapping(t_address,t_bool)": {
						"encoding": "mapping",
						"key": "t_address",
						"label": "mapping(address => bool)",
						"numberOfBytes": "32",
						"value": "t_bool"
					},
					"t_mapping(t_address,t_mapping(t_address,t_bool))": {
						"encoding": "mapping",
						"key": "t_address",
						"label": "mapping(address => mapping(address => bool))",
						"numberOfBytes": "32",
						"value": "t_mapping(t_address,t_bool)"
					},
					"t_mapping(t_uint256,t_struct(Tweet)10_storage)": {
						"encoding": "mapping",
						"key": "t_uint256",
						"label": "mapping(uint256 => struct Twitter.Tweet)",
						"numberOfBytes": "32",
						"value": "t_struct(Tweet)10_storage"
					},
					"t_string_storage": {
						"encoding": "bytes",
						"label": "string",
						"numberOfBytes": "32"
					},
					"t_struct(Tweet)10_storage": {
						"encoding": "inplace",
						"label": "struct Twitter.Tweet",
						"members": [
							{
								"astId": 3,
								"contract": "contracts/4_Twitter.sol:Twitter",
								"label": "id",
								"offset": 0,
								"slot": "0",
								"type": "t_uint256"
							},
							{
								"astId": 5,
								"contract": "contracts/4_Twitter.sol:Twitter",
								"label": "authore",
								"offset": 0,
								"slot": "1",
								"type": "t_address"
							},
							{
								"astId": 7,
								"contract": "contracts/4_Twitter.sol:Twitter",
								"label": "content",
								"offset": 0,
								"slot": "2",
								"type": "t_string_storage"
							},
							{
								"astId": 9,
								"contract": "contracts/4_Twitter.sol:Twitter",
								"label": "createdAt",
								"offset": 0,
								"slot": "3",
								"type": "t_uint256"
							}
						],
						"numberOfBytes": "128"
					},
					"t_struct(message)21_storage": {
						"encoding": "inplace",
						"label": "struct Twitter.message",
						"members": [
							{
								"astId": 12,
								"contract": "contracts/4_Twitter.sol:Twitter",
								"label": "id",
								"offset": 0,
								"slot": "0",
								"type": "t_uint256"
							},
							{
								"astId": 14,
								"contract": "contracts/4_Twitter.sol:Twitter",
								"label": "content",
								"offset": 0,
								"slot": "1",
								"type": "t_string_storage"
							},
							{
								"astId": 16,
								"contract": "contracts/4_Twitter.sol:Twitter",
								"label": "from",
								"offset": 0,
								"slot": "2",
								"type": "t_address"
							},
							{
								"astId": 18,
								"contract": "contracts/4_Twitter.sol:Twitter",
								"label": "to",
								"offset": 0,
								"slot": "3",
								"type": "t_address"
							},
							{
								"astId": 20,
								"contract": "contracts/4_Twitter.sol:Twitter",
								"label": "createdAt",
								"offset": 0,
								"slot": "4",
								"type": "t_uint256"
							}
						],
						"numberOfBytes": "160"
					},
					"t_uint256": {
						"encoding": "inplace",
						"label": "uint256",
						"numberOfBytes": "32"
					}
				}
			},
			"userdoc": {
				"kind": "user",
				"methods": {},
				"version": 1
			}
		}
	}
}